:020000040000FA
:2000000000000420C1170000E9170000EB170000ED170000EF170000F117000000000000D0
:20002000000000000000000000000000F3170000F517000000000000F7170000F91700008C
:20004000A14C000085440000216A0000FB170000FB170000FB170000C1490000FB1700000D
:2000600079580000FB170000FB170000B14D0000FB170000B14C0000FB170000FB1700005A
:20008000614E0000FB170000FB170000FB170000FB170000FB170000FB170000FB17000033
:2000A000FB170000FB170000FB170000FB170000FB170000FB1700000000000000000000D4
:2000C000FB170000FB170000FB170000FB170000FB170000FB170000FB170000FB17000090
:2000E000FB170000FB170000FB1700000000000000000000FB17000000000000FB170000A6
:200100000000000000000000000000000000000000000000000000000000000000000000DF
:200120000000000000000000000000000000000000000000000000000000000000000000BF
:2001400000000000000000000000000000000000000000000000000000000000000000009F
:2001600000000000000000000000000000000000000000000000000000000000000000007F
:2001800000000000000000000000000000000000000000000000000000000000000000005F
:2001A00000000000000000000000000000000000000000000000000000000000000000003F
:2001C00000000000000000000000000000000000000000000000000000000000000000001F
:2001E0000000000000000000000000000000000000000000000000000000000000000000FF
:2002000001F0FF01102A2BDB10F0070F08D010F8013B013A8B422DD010F0070F42B3F6D1A4
:20022000F0B441EA012141EA014122F007047FF000070023F0E80256083C85EA010586EA51
:20024000010685FA47F5A3FA87F586FA47F6A5FA87F68EB9EED1F0BC01F0FF0102F007024C
:2002600032B110F8013B013A83EA010313B1F8D10020704701387047002D06BF35460338AF
:20028000073815F0010F07D1013015F4807F02BF013015F4C03F0130F0BC0138704700BF73
:2002A00010B5054C237833B9044B13B10448AFF300800123237010BD600300200000000019
:2002C000248B000008B5034B1BB103490348AFF3008008BD0000000064030020248B0000E4
:2002E000A3F5803A704700BF174B002B08BF134B9D46FFF7F5FF00218B460F461348144AB7
:20030000121A07F0C3FC0E4B002B00D098470D4B002B00D098470020002104000D000D48EF
:20032000002802D00C48AFF3008006F0EBFB2000290000F0F7F906F0D1FB00BF00000800BF
:200340000000000000000000000004206003002014140020000000000000000000B585B0C4
:200360000346002101AA44F20100CDE90111039300F004F805B05DF804FB00BF72B6094BA3
:200380001B68DB0700D500BEBFF34F8F0649074BCA6802F4E0621343CB60BFF34F8F00BFFA
:2003A000FDE700BFF0ED00E000ED00E00400FA0572B6024A13680133136070477C03002021
:2003C000034A1368013B136003B962B6704700BF7C03002010B50446006830B1002105F04F
:2003E00085F854F8040F0028F8D110BD10B590F84C10094A013180F84C100446034680212D
:20040000203000F06BFD054B22461978BDE81040002005F003B900BFED030000051400203D
:200420002DE9F041038804463BB1B3F5867F0AD182290DD00120BDE8F0814FF4867323808E
:200440000120BDE8F081002303800320BDE8F08101F06AFABFF35F8F1649174B0E68002238
:200460000A601F781A70FFB2BFF35F8F134D01F05FFA28680028E0D0DFF8448003E055F8C3
:20048000040F0028D9D090F8463026FA03F3DA07F5D590F8453047FA03F3DB07EFD500F0EF
:2004A00043FD0028EBD02B6842461846022100F015FDE4E790030020B013002040010020B9
:2004C0002105000010B4094A094C13681943116021780346012202FA03F30B43DBB22370DD
:2004E00004485DF8044B05F0BBB800BF90030020B01300205401002010B5044690F84610ED
:2005000090F8450001F0CEF910B994F8440010BD01280ABF94F84400002080F0010010BDD0
:2005200070B5044600F000FD00B970BD04F12006304600F0F9FC05462046FFF7DDFF012857
:200540000ED00028F1D1002DEFD1304600F0D2FC0D4B224628461978BDE8704005F05EB893
:20056000002DE2D0002530462346084A84F84C507E2100F0B3FC064B284622461978BDE893
:20058000704005F04BB800BF04140020ED03000006140020F8B504F0A1FF304B304C1870D2
:2005A00004F09CFF2F4B304F187004F097FF2F4922682F4B08700025FF2139727B60FD6085
:2005C000002A42D02B4E09E091F84600F9683A72834054F8042F0B43FB60B2B392F8463051
:2005E00092F84510926C03F01F0343EA41131F2BC6BF03F01F0331464FF0A04103F5E073C2
:2006000042F08C0241F82350236893F8461093F8450001F005F9226892F8463092F84500EA
:2006200003F01F0343EA4010012104F023F92168387A91F8452082424FF00103C4D0FF280B
:20064000C2D054F8042F002AC8D10B48002104F04DFFBDE8F840044801F038B906140020CD
:2006600040010020041400208003002005140020C5040000000300505401002030B5174B2D
:2006800083B000221A6003F055FF00BB002003F06DFF134B134A93E80300FF250090ADF878
:2006A0000410062400231048ADF8005069468DF802408DF8043004F011FB58B901210A48D8
:2006C00004F060FB084804F051FB03B030BDFFF745FEDBE7FFF742FEF0E700BF940300201D
:2006E000E07F000019070000E87F0000014B1868704700BF9403002008B5064A136801335F
:20070000136000F01FFD00B908BDBDE8084000F0F9BC00BF94030020042800D07047FFF72B
:20072000EBBF00BF10B54F4C04F0ECFDFFF7A6FF05F0B2F804F0FCFE4B48002104F0D6FE6F
:2007400000F092FB06F08CF900F028FC05F000FA04F0E0FD04F0A2FF03F05EFA03F06EFA92
:200760002368022B11DC04F0F1FD4048FFF732FE06F0A0F904F0F6FE044606F0A3F914F0ED
:20078000FF0FF7D104F0E8FDF4E7394A39493A4804F0FEFD394804F073FF2368022BE2DDFB
:2007A000334A3449344804F0F3FD354B3548196804F0EEFD2368022BD5DD2D4A2D492E48B5
:2007C00004F0E6FD304B3148196804F0E1FD2368022BC8DD264A2749274804F0D9FD2C4B0E
:2007E0002C48196804F0D4FD2368022BBBDD204A2049214804F0CCFD27484AF6CD3104F055
:20080000C7FD2368022BAEDD194A1A491A4804F0BFFD22481A2104F0BBFD2368022BA2DD71
:20082000134A1449144804F0B3FD1D4B1D48198804F0AEFD2368022B95DD0D4A0D490E48C4
:2008400004F0A6FD184804F0A3FD2368022B8ADD164801F08FF92368022B84DD0A2004F0E0
:200860000DFF80E7A801002098010020D8860000F07F0000F87F000000800000108000002F
:2008800054880000308000003888000040800000C48000004C800000588000007480000070
:2008A000AA13002094800000A4800000C413002070B590F82D50012D04460FD91F2504F06A
:2008C00051FF0246B0FBF5F1234601FB152104F10C00054ABDE8704000F000BBE91C0125D9
:2008E0008D40013DEBE700BF790900002DE9F04714460D468A6894F82C900646606BD2E9D4
:20090000007801F00FF9686804F0FEFEA968164802F0E8F81548294602F0E4F8606B01F00F
:20092000D1F860B10023A3852046FFF7C1FF4B46324641463846BDE8F04701F0ADB904F140
:200940000C0000F0D7FA2146094801F0EBF82146084802F0C7F84B46324641463846BDE823
:20096000F04701F099B900BF640100207C010020000400207001002008B32DE9F047044615
:2009800082B0406B01F09EF80546A8B1406804F0D1FE63490C2004F099FC0121072004F046
:2009A00087FC00F063F900280ADAAB6823B1052022462946FFF79AFF02B0BDE8F087704765
:2009C00004F0D0FBDFF85C8190F80290D8F8047004F0C8FB064604F0CFFB01463046B847C9
:2009E00004F088FCD8F818600746B04770BB002F4AD1D8F81CA0D04740BBD8F8087004F0A4
:200A0000BBFBB84700285DD002281FD0AB68002BD2D00420CCE704F023FF6FF028031E1A24
:200A200003E004F01DFFC64202D5D0470028F8D0D04700285ED0D8F81030032101A89847B4
:200A4000032803D19DF806304B4524D0AA68002AB2D094F82D300133DBB2052B84F82D30D7
:200A600094F82C3008D8127A9A4224D8224629460120FFF73BFF9FE70133DBB2002184F83E
:200A80002C3084F82D10EEE7D8F8086004F074FBB0470028B8D1AB68002B8DD094F82C30A6
:200AA00000200133294684F82C3084F82D002246FFF71CFF80E72046FFF7FAFE686804F0FA
:200AC0001DFE79E704F0CCFE6FF018073F1A03E004F0C6FEC74202D5D0470028F8D0B0478D
:200AE000002898D1D047002895D1D8F814309847002890D0A96800293FF45EAF94F82C30E3
:200B00000133DBB2002284F82C3084F82D200A7A9A42D0D8224629460220FFF7E7FE4BE743
:200B2000C4130020F88700002DE9F04106460D200F4604F0D7FB054601F04CF801210B2097
:200B400004F0B6FB3C4800F0BDFFD0B1044603E001F00CF80446A0B12946201D00F0A6FF41
:200B600003462046002BF3D0606B00F0F5FF07281EDD394630460123BDE8F041062201F0F7
:200B80008BB82E4801F092FF04460028F1D02946201D00F085FF002304F13000C4E90C3096
:200BA000A38500F08BFF2448214600F08DFFDBE7234801F07BFF054650B3224801F076FF8E
:200BC000A86008B304F078FD6860C8B10520D5F8088004F075FBC8E9006710F0FF000ABFEA
:200BE000082388F8080088F80830606B294600F06BFF606B00F066FF854217D0BDE8F08112
:200C0000A968104801F06EFF0D48294601F06AFF606B00F0A1FF0028ABD12146064800F04B
:200C200081FF2146054801F05DFFA2E72046BDE8F041FFF73DBE00BF000400207001002009
:200C40007C0100206401002008B5054801F01CFF044801F019FFBDE80840034801F014BF0B
:200C60007C010020640100207001002010B501210B2004F01DFB024BBDE810405B6818473F
:200C8000FC800000014B9B68184700BFFC800000014B1B6A184700BFF8870000014B5B6A70
:200CA000184700BFF887000010B50D4B82B01B6898470C4B04469B6A01A919209847012855
:200CC0000BD0002C0198B8BF15248028D4BFC4EB0000C4F1800002B010BD002002B010BD87
:200CE000FC800000F8870000FFF71EBF00B583B004F03CFA032802D103B05DF804FBFFF719
:200D0000C1FF0028F8DB0D2004F0ECFA1F4900F0CDFEE8B10C2004F0E5FA1C4900F0C6FE3D
:200D20000028E9D100F060FFB8B1072004F0C8FA0028E1D00223ADF8043004F013FA144B05
:200D40008278DB688DF80620032101A89847D3E704F0D0FA0028DDD1CEE700F06BFF07207B
:200D600004F0AEFA18B90B4B9B689847C4E70223ADF8043004F0F6F9054B8278DB688DF830
:200D80000620032101A89847EDE700BFC4130020F88700003888000030B50D4C83B0A56A38
:200DA00069461920A84748B901A90420A84738B100F008FFFFF748FF236A984703B030BD75
:200DC0000199E36A21F00201019104209847EFE7F8870000F0B5038883B0054633B14A2B27
:200DE00018D188291BD0012003B0F0BD1B4800F069FE044630B1A168201D00F089F92468C4
:200E0000002CF8D1164B01221A704A2301202B8003B0F0BD00230380032003B0F0BD0F48B6
:200E2000019200F04FFE04460028EED0019A031D9A4205D02468231D002CE6D09A42F9D1F2
:200E40000648084E214600F06DFED4E90523376832600BB1E06998473760D6E7E0040020DA
:200E6000B1130020EC0C002010B5064B064800241C7000F023FE21460448BDE8104004F0B5
:200E800035BB00BFB1130020E00400208801002070B50E4C049E25784661C0E90623044691
:200EA00035B9A1600A482146BDE8704000F00CBE084D094B2E682B60043000F029F92E60DD
:200EC00021460348BDE8704000F0FEBDB1130020E0040020EC0C00208801002010B5044CA2
:200EE00082B024680094FFF7D3FF02B010BD00BFEC0C002010B50A4B1B7804463BB9C0E9EE
:200F0000033321460748BDE8104000F00BBE043000F020F921460348BDE8104000F002BEA3
:200F2000B1130020E004002038B50C4B1D7804466DB90B4800F0C6FD38B1A04202D10BE0F1
:200F4000844209D000680028FAD1012038BDBDE83840043000F0F0B8002038BDB11300209F
:200F6000E004002010B50446C0B205F013FD204610BD00BF70B570B10E46451E002404E0F0
:200F8000A64206D005F006FD013415F8010F0028F6D1204670BD0446FBE700BF704700BF66
:200FA00010B5FFF7A3FB0B4B1A68D2E9003192680B44191A52B1D2E9003423441B1A926810
:200FC000994228BF1946002AF5D14318024A136010BD00BFE8040020E40400202DE9F843F5
:200FE000038805465BB3592B2CD187292FD0822920D12C4FDFF8B4803C684FF00009CCB152
:20100000002603E0A3682646A3B11C46204605F0B3FC0028F6D0E0682246882104F0FEFA5D
:2010200003464046002B2AD004F01AFBA3682646002BEAD159232B800120BDE8F883194A8B
:201040001360F7E7002303800320BDE8F883154F3968002019B9EDE789680120D9B1CB68BC
:201060009342F9D000B139608B68002BE2D0D868904207BF9B688B6019469B68F5E7E36071
:20108000A3686EB1B3603B68C4F808902BB1FFF787FF3C68B3E73960CCE7034A1360C9E7CA
:2010A0003B60F1E7E8040020E40400209801002010B50446104804F0D3FA1049E3680A68B2
:2010C0004BB142B194420FD0134601E09C420BD09B68002BFAD10A4BA2601B68E3600C60F7
:2010E000BDE81040FFF75CBF054B1B68E360BDE81040FFF755BF00BF98010020E804002051
:20110000EC0C0020014804F0ABBA00BF9801002010B5044605F01AFC2046BDE81040FFF732
:20112000C7BF00BF10B5044605F018FC2046BDE81040FFF7BDBF00BFC068B0FA80F040093B
:20114000704700BF024B1868003818BF01207047E804002010B5124B19688142044614D0C5
:201160000B462BB19A68A24206D01346002BF9D10023C4E9023310BDA2689A6049B1FFF772
:201180000FFF0023C4E9023310BD82681A60002AF5D1044B00221A600023C4E9023310BD5E
:2011A000E8040020E4040020014B1888704700BF5403002000283ED0037A022B30B410D09E
:2011C0000378022B15D00379B3B10024C37913F0030318BF012301B10C6002B1136030BC0E
:2011E0007047C579447A037965B90CB9012BF2D0DBB100231C46EEE7447A14F0030418BF69
:201200000124E3E7C4B1032D37D1032C2ED0022C24D143BB022D2DD00123032D24D1A4F1DA
:201220000204B4FA84F46409D5E7023C012C8CBF00240124CFE770474BB9022D08BF0123CF
:20124000EAD1A4F10304B4FA84F46409C3E7032D01D0022D02D123461C46BCE7002BC8D1C5
:20126000022DDAD1EDE701230024B4E7002BC0D10123D4E701231C46ADE7022DC7D1002B36
:20128000F1D1022C4FF00103DBD11C46A3E700BF30B500230B608B80437D0D46D9075CBF38
:2012A00001232B70037E012B83B0044623D901AA694604F11000FFF77DFF009B0BB10223FC
:2012C000EB70019B0BB102236B70E37D03F00303022B03D0032B14BF00230823AB70637EB7
:2012E00003F00303022B03D0032B14BF002308232B7103B030BDC37D9A0706D0437E9B0750
:2013000003D0C28B838B9A4202D000232375CEE701230375CBE700BF02280CBF0123072331
:201320000B441A78FF2A184603F1FF3303D18142F7D1012070470020704700BF30B583B03A
:201340006946FFF7A5FF9DF800309DF801509DF802409DF803109DF804209DF80500023392
:201360002B4423440B441344184403B030BD00BF70B4437882780578C478DB00120102F0C4
:20138000100203F008031343027905F0070564012B4304F020049201234302F040021343FD
:2013A0000B7043798579467AC479027A03F001036D0043EA861305F00205A0002B4300F05B
:2013C0000C001201034302F03002134370BC4B70704700BFF0B583B00E4607466946FFF7B3
:2013E00057FF314607F11000FFF7C2FF9DF80030012B04BFBB7EB3709DF801300CBF03229B
:201400000222022B08D1BB8BB354531CB98BDBB2090A0232F154D2B29DF802304BB35D1EC5
:2014200013443D44DBB214460132D2B215F8011931559A42F7D19DF80320022A08D1FA8BA3
:20144000F2545A1CF98BD2B2090A0233B154DBB29DF8040078B1C41D18443C44C0B21A469D
:201460000133DBB214F80159B5549842F7D103B0F0BD1346DFE7184603B0F0BD30B40278FF
:20148000437802F00700C2F3C005C2F300140870C2F34010C2F380124D708C7003F00105DF
:2014A000C3F34004C8700A71C3F38100C3F301129B094D718C71C87130BC0A724B7270470B
:2014C000012943DD2DE9F04186B00F4603A914460546FFF7D3FF03AB03CB9DF811201B88F2
:2014E0002383206161616AB3AE1C03A802AA01A9FFF760FE9DF81380B8F1000F43D0029B37
:20150000002B31D1B8F1020FA38367D0B8F1030F4DD09DF81580B8F1000F2CD0019BBBB9C1
:20152000A38BE383B8F1020F4DD0B8F1030F31D0701B3B1A8742C4E90E6300DA002006B00D
:20154000BDE8F081AB78A376EE1CCEE700207047717816F8023B029A03EB01239BB2E3830E
:20156000002ADFD1A383DDE7727816F8023B03EB02239BB2C6E71E4904F1080000F090FA87
:20158000A4F81E80D4E71A49204600F089FAA4F81C80BEE706F10800034604F1080213F8EB
:2015A000011D02F8011BB342F9D10646C0E706F108000346621E13F8011D02F8011FB34245
:2015C000F9D10646A5E70A4904F1080000F068FA7378237216F8023B6372A9E704492046E4
:2015E00000F05EFA7378237016F8023B637090E70881000030B591B003F0A4FD044603F010
:20160000B5FD6A4601462046FFF75AFF00283ED0044603F07BFDD0B39DF810100B2003F02B
:2016200047FE9DF81310072003F042FE9DF817308BB1BDF81C50FFF7B7FD854205D0BDF81F
:201640001C204FF6FF739A4221D19DF817006946FFF762FEB0B102A90C2003F037FE9DF823
:2016600015303BB14FF6FF71062003F021FE204611B030BD9DF81A10062003F019FE2046E3
:2016800011B030BD69460D2003F020FEE3E74FF0FF34ECE7F8B505460B2014460E46A847E0
:2016A00000232074A37496B3E37463750820A847002701232376A07567740620A847A076CE
:2016C000FFF772FDE0830920A84701280CBF3B4603236376FFF768FDA0830A20A8470128F6
:2016E0001AD066B90323E375637E022B0CD0E37DA3F10203B3FA83F35B092375F8BD022387
:20170000E375637E022BF2D101232375F8BD0720A8476675E074C9E7E775E5E730B591B0EC
:201720000546FFF741FD4FF6FF74A0423AD040220021684606F0AAFA03F0DCFD6A460146F8
:201740001A48FFF7A7FF03F0D5FD18B3ADF800400C2003F0C7FD014602A800F0A1F903F0C5
:20176000F1FC0E9003F002FD034668460F93FFF7E5FD044615B9204611B030BD03F096FCCA
:2017800080B103F0EFFC01466846FFF723FE204611B030BD0D2003F0A5FD0146684600F073
:2017A0007FF9D5E74FF0FF34E5E700BFC15200000120FFF7B3BF00BF0020FFF7AFBF00BF5A
:2017C0000649074A074B9B1A03DD043BC858D050FBDC04F0A3FFFEF787FD0000308B000062
:2017E0000000002060030020FEE7FEE7FEE7FEE7FEE7FEE7FEE7FEE7FEE7FEE700F01F0342
:201800000121C0F34710994000F066B808B502F095FF00B108BDBDE8084002F045BF00BF5A
:2018200030B583B01446022301F01F0100228DF8063014F00C0341EA4015ADF8042006D0F1
:20184000042B25D0082B27D00C2B02D103238DF8043014F0030304D0022B15D0012B02D162
:2018600003238DF805300E4A01A9284602F070FF2306284603D403F069F803B030BD012133
:2018800002F0F8FF03B030BD01238DF80530EAE701238DF80430DCE702238DF80430D8E7D3
:2018A000FD17000001F01F0141EA40101F28CABF054B4FF0A04300F01F00D3F8101521FA2C
:2018C00000F000F001007047000300500146014800F0FAB8EC04002070B505460C480E46C3
:2018E00000F0F0F890B1044601E0246874B1237AAB42FAD1E36816EA0301F6D06368284650
:20190000002BF2D098472468002CF0D170BD00BFEC04002008B5034800F0D0F8BDE80840D9
:20192000FFF774BFEC040020EFF3108072B6704780F31088704700BF032824D8124B00EB2D
:2019400040001A181B5C9178527803F01F0343EA421361B11F2BC6BF0C4903F01F034FF0AA
:20196000A041012202FA03F3C1F80C3570471F2BC6BF064903F01F034FF0A041012202FA4E
:2019800003F3C1F808357047C07F000000030050032824D8124B00EB40001A181B5C9178B1
:2019A000527803F01F0343EA421361B11F2BC6BF0C4903F01F034FF0A041012202FA03F346
:2019C000C1F8083570471F2BC6BF064903F01F034FF0A041012202FA03F3C1F80C35704741
:2019E000C07F00000003005070B41A4A1A4D0023012440FA03F1C90712D59178B9B111783D
:201A0000567801F01F0141EA46111F29C6BF01F01F012E464FF0A04604FA01F1C6F8081523
:201A20000133042B02F10302E3D170BC70471178567801F01F0141EA46111F29C6BF01F00C
:201A40001F012E464FF0A04604FA01F1C6F80C15E6E700BFC07F0000000300500E4A30B4A4
:201A60000E4D02F10C0403201378517803F01F0343EA41131F2BC6BF03F01F0329464FF069
:201A8000A04103F5E0730332944241F82300EBD130BC0F20FFF7A8BFC07F000000030050ED
:201AA0000B684A6842600360704700BF08B5082206F0D0F8B0FA80F0400908BD0023036033
:201AC000704700BF006870470368DBB110B4002400E0134699420FD01A681C46002AF8D1C8
:201AE00000230B600368CBB11A461B68002BFBD111605DF8044B70470A686CB12260002298
:201B00001A60EDE700230B6003684BB11A461B68002BFBD1116070470260F0E70160E8E717
:201B20000160704703689BB110B4002400E0134699421A6805D01C46002AF8D15DF8044B8A
:201B4000704734B1226000221A605DF8044B704770470260F7E700BF03682BB100201B68D0
:201B60000130002BFBD170471846704700B10068704700BFF0B170B50024104E054654B14A
:201B8000E3070DD5295D304603F002FC072C10D00134002CF4D12978304603F0F9FBF7E777
:201BA0002E2003F06BFD295D304603F0F1FB072CEED170BD024803F0EBBB00BF208100003F
:201BC0001081000008B503F0CDFD014B187008BDB2130020034B197806204A1C1A7003F094
:201BE00067BB00BFB2130020F8B5FEF77FFD104E0746344600250C2003F074FB2146FFF7CC
:201C000055FF103420B90135102DF4D10020F8BD062006EB051503F053FB2B7B8342F5D1A3
:201C2000A868381AB0F5206F8CBF00200120F8BDF0040020F8B5174E0024374635460C205F
:201C400003F050FB2946FFF731FF1035F8B90134102CF4D10F2407EB0414254654F8100D74
:201C60006168A268E368A6420FC5F6D1062003F027FB3873FEF73AFD0346BB600C2003F02E
:201C800031FBBDE8F84001460248FFF709BF002CE1D1EBE7F004002040B120B40D461146B9
:201CA0001A46034628465DF8045B1847704700BF38B505460948FFF705FF58B1044601E0CD
:201CC00024683CB12946201DFFF7F0FE0028F7D0204638BD0024204638BD00BF0C07002040
:201CE0002DE9F84F2B48DFF8B490DFF8BC8003F04FFB09F140074E464D4600242846314638
:201D0000FFF7D4FE083520B90134092CF6D14FF6FF7421460836404603F03AFBBE42EBD1ED
:201D20000A2003F0ABFC1C4D1C4EDFF880B01C4FDFF87C80CA46002450463146FFF7B6FEDC
:201D40000AF1080A20B90134092CF5D14FF6FF742146584603F01CFBA5F1100403E003F026
:201D600017FBAC4209D034F9021BFF293846F6D1404603F00DFBAC42F5D10A2003F07EFC07
:201D8000084B04F110059D4206F10806D2D1BDE8F88F00BF28810000000600201C02002067
:201DA000548100008006002040810000488100004C8100002DE9F84381460F48BDF820808D
:201DC0000F4616461D4600F071FE98B1044649460430FFF765FE394604F10C00FFF760FE0D
:201DE0002675E582A4F8188021460448BDE8F843FFF76ABEBDE8F883680200200C0700201F
:201E00002DE9F041048884B00646D4B140F23D239C426DD16748FFF78FF970B1664D2B7898
:201E200003F0FF04002B72D0644C6248FFF77AF9012240F23D2322803380012004B0BDE8F8
:201E4000F0815F4A5F49604F604803F0A1FA604803F016FCFD6A0C210120A847BB6A03A9B9
:201E600001209847564A5749584803F091FA0399584803F08DFA21460620A847504A0546ED
:201E800000283BD14F49514803F082FA5248294603F07EFA514800F0F7FD5148FFF70EFEE2
:201EA000504900242346224608460094FFF782FF4D4A2346144600218B420CBFFF250025DF
:201EC0000131082924F8025BF6D10133082B02F11002EFD14548394C03F092F83548802186
:201EE000FFF716F9012240F23D2322803380A4E700230380032004B0BDE8F0813C493348B5
:201F000003F046FA21463B4803F042FAC2E73A4B3A4F5B682046984780B201F077FE384B9B
:201F200002461A6037482022214605F0AFFE3B78042B30D8344D214C0020FFF7FDFC2846C0
:201F4000012300F8023B2749FFF7AAFD05F10A002449FFF7A5FD2D4823882D492D4A0560A4
:201F60004FF000081620AB8208800133D26885F81280404623809047114A1249134803F0AE
:201F800007FA397824484B1C3B7003F001FA4046FFF7FEFC49E7214B094A1C6009490B489D
:201FA0003C7001232B7003F0F3F91D4803F068FBC0E700BF1C090020B5130020A8130020AE
:201FC0005C810000F87F0000F887000000800000388200004C820000948200006802002086
:201FE0000C070020C4130020F0050020292700006882000070820000B0880000B413002057
:20200000CC010020AC06002010070020D0130020D413002038880000D08200001408002072
:20202000AC820000F0B5038883B0044613B340F28D22934229D13648FFF77EF850B3354DE0
:202040002B7803F0FF0243B3334B344903F1080613F8012F042A02F1010002D90F68012F17
:202060001FD0B342187001F10401F1D12848FFF759F804E026484FF4A061FFF749F840F285
:202080008D230120238003B0F0BD00230380032003B0F0BD012003B0F0BD214BC3E9002288
:2020A000EDE71F4B1F48204A204907700026C3E900661F4803F06CF91E4803F0E1FA1E4B9D
:2020C0001E481F602E7000F0DFFC1D48FFF7F6FC1C490096334632460846FFF76BFE334653
:2020E000194E3146002293420CBFFF2000200132082A21F8020BF6D10133082B06F110063B
:20210000EFD1124A0121002311802B70AEE700BF90060020B5130020A3060020AC060020A5
:20212000A4060020B31300205C810000F87F000000800000F08200001408002068020020E3
:202140000C070020C4130020F0050020A81300202DE9F04182B01646BDF820801F4605468B
:20216000FFF7A6FD98B1044617490430FFF79EFC50B9238B434507D2B4F91630DB1B002BE3
:20218000B8BF5B42052B15DC02B0BDE8F0813B46324629462846CDF80080FFF70BFE0B4AD3
:2021A0000B490C4803F0F4F80B4802B0BDE8F04103F066BA054A0649064803F0E9F807489B
:2021C00003F05EFAE782DFE7C41300205C810000F87F000000800000188300004483000058
:2021E0002DE9F04F0F4687B008210546DFF858B2DFF858A2DFF8589200F0B8FC012402E06C
:202200000134082C2DD015F83460012EF8D15A465146484603F0BCF8834803F0B9F8834B16
:2022200003EBC408414604230DF102008DF80030FFF736FC7E490DF10A00FFF731FC7D49A1
:202240007D4A7E4BADF81260C1F800D016260521DB6816804046ADF8141001349847082C7C
:20226000D1D10124002604E001360134082C00F0CA80BB5D0133A342F6D0714B0021196066
:202280004FEAC40805EBC40202E001310829ECD012F801BBBBF1010FF7D1644B694803EBEA
:2022A000C1019A46FFF7FCFB6548674A6749C0F800B0674803F06CF80AEB080B5A4803F076
:2022C00067F8042359460DF102008DF80030FFF7E7FB0DF10A005B49FFF7E2FB2346002044
:2022E00005EBC302002312F8011B012900F08E800133082BF7D14FF6FF700523524A534975
:20230000ADF812005248ADF8143003F041F85148DFF8188103F0B4F94B4A4C494C4803F0FD
:2023200037F84FF0000940465946FFF7BFFB08F1080830B909F10109B9F1090FF3D14FF690
:20234000FF794946444803F023F840493E4A404803F01EF8214605EBC102002312F8010BE7
:2023600001285CD00133082BF8D14FF0FF313B48DFF8D0B003F00CF8334A3449344803F02F
:2023800007F84FF0000950465946FFF78FFB0AF1080A30B909F10109B9F1090FF3D14FF67C
:2023A000FF7949462E4802F0F3FF274A2749284802F0EEFFBDF814102A4802F0E9FF1E4BFE
:2023C0001C4916221A80C1F800D02346D90005EBC302002312F8010B01281DD00133082B90
:2023E000F8D16FF00701114B1F481944FFF758FB124B1D48DB6898470134114A0023082C79
:2024000013607FF436AF07B0BDE8F08F0130002B7FF466AF80B270E7002BD7D1E3E7002BE1
:20242000A5D0194697E700BF688300001C020020C4130020D0130020D413002038880000A1
:20244000A0060020700600205C810000F87F0000008000007C83000098830000B0830000FF
:20246000C8830000DC830000880600202DE9F047038886B0054683B140F25F22934212D10C
:202480006D4B1B78ABB96D48FEF74CFE40F25F2301202B8006B0BDE8F08768484FF4C07123
:2024A000FEF736FEF2E700230380032006B0BDE8F087634A00231288ADF814208DF8163071
:2024C000FFF70EFC5F4B604ADFED606A03F12001D3ED017AF8EEE77A043387EEA67A9942D4
:2024E000A2EC017AF4D15A4F5A4B57495A48DFF88881584C0DF114090822CDF8009001F06F
:20250000E3FA384600F0C0FA5448FFF7D7FA544A5449554802F03CFF544803F0B1F80126EF
:2025200002E00136082E68D0384600F0BFFA82460028F6D0043008EBC601FFF7B1FA0AF1AD
:202540000C003346D90004EBC302002312F801CBBCF1010F6AD00133082BF7D16FF00701E3
:202560004144FFF79DFA3346002004EBC302002312F8011B012954D00133082BF8D1FF2016
:202580008AF81400304604EBC002002312F8011B012943D00133082BF8D16FF001032E4AED
:2025A0002E48D35EAAF816300123AAF818305146FFF78AFA2A4A2B492B4802F0E9FE3346C0
:2025C00004EBC301002211F8010B012822D00132082AF8D14FF0FF33BAF818200292BAF926
:2025E000162001929AF814200092314632462048013602F0CDFE082E96D1194A19491A48AB
:2026000002F0C6FE1B4803F03BF812484946FFF7E7FD38E7002ADFD01346D1E74BB1184655
:20262000B1E70130002BA0D1C0B2A9E7002B89D196E74300B3E700BFB5130020780600200F
:20264000D4860000C8010020AC010020004067455C020020CC060020F005002010080020C1
:202660005C810000F87F000000800000F48300003C8400007C8400001C02002030B51E4DC1
:202680001E4A2C681E491F4883B064BB02F080FE1D4802F0F5FF1D4B1D4801222A601C705D
:2026A00000F0F2F91B48FFF709FA1B490094234622460846FFF77EFB2346184C2146002207
:2026C00093420CBFFF2000200132082A21F8020BF6D10133082B04F11004EFD1104B01221B
:2026E0001A8003B030BD02F053FE0E4803B0BDE8304002F0C5BF00BF140800205C810000F1
:20270000F87F000000800000F0820000B5130020680200200C070020C4130020F00500209F
:20272000A8130020C48400002DE9F043044685B001201F460E461546FFF7FEF894F8008081
:2027400008F1FF33052B00F26081DFE813F0120025009200EC00F800060020463B462A4677
:202760003146FFF78BFF0120FFF712F905B0BDE8F083042002F0A4FD40B24530C0F23581ED
:20278000A74B1A884FF651539A426ED00120FFF7FFF805B0BDE8F0830120FFF7CDF8A14A00
:2027A000A149A24802F0F4FDA14802F069FFA37A0133A372042002F083FD43B213F1450FD6
:2027C000C0F21381A2890092A27ADFF87C8229462846FFF7BDFC934A9349944802F0D8FD1D
:2027E000944802F04DFF474604F10209002638464946FFF75BF9083720B90136092EF6D168
:202800004FF6FF768C4B012243F8262004F11C09002740464946FFF749F908F1080820B913
:202820000137092FF5D14FF6FF77B74200F0E680824BB4F92E2007EBC60106EBC70723F8FD
:20284000112023F81720FFF74BFA94F82C20238E00930132B4F92E30D2B229464846FFF7E9
:2028600077FC774B226943F826200120FFF790F88CE7042002F024FD40B24530C0F2B58080
:20288000704F20686168A268E3686F4D3E460FC620696169A26907F1020807C600242E46F9
:2028A00030464146FFF702F9083620B90134092CF6D14FF6FF74624B7A6943F82420DFF844
:2028C000C481002628464146FFF7F0F8083520B90136092EF6D14FF6FF7631465B485C4DF2
:2028E00002F056FD79695B4802F052FDB9695A4802F04EFD7969FA68584885FB01630B44B5
:20290000C917C1EB6313214602F042FDD7E9042385FB03151D44DB172146C3EB6513504826
:2029200002F036FD32E7162E58D03E4A4D493F4802F02EFD31464C4802F02AFD26E7A04614
:2029400002AB58F8020F404ED8F8041003C337460025384602A9FFF7A9F8083720B9013581
:20296000092DF6D14FF6FF75404A535D0BB1013B53552C4A2C492D48334F02F009FD3C4869
:2029800002F006FD274A2849284802F001FD0A34002538462146FFF789F8083720B90135F3
:2029A000092DF6D14FF6FF752946324802F0F0FC1C4A1D491D4802F0EBFC0024304641466F
:2029C000FFF774F8083620B90134092CF6D14FF6FF742146284802F0DBFCD7E6042002F022
:2029E0006FFC40B24A30BFF6D1AE0E4A1D490F4802F0CEFC214802F0CBFCC7E60F4A06EBE2
:202A0000C603FF2122F813101DE7064A1549074802F0BEFC41461A4802F0BAFCA6E600BF07
:202A2000AA1300205C810000F87F0000008000000485000020850000AC060020F0050020D0
:202A4000CC010020180800201C02002044850000A7C867DD648500007C850000948500008C
:202A6000C485000068820000F4850000A40600200C8600002C86000044860000E884000066
:202A80005C8600001A08002010B5044642884068002105F0FBF823886288A06802FB03F2F9
:202AA000BDE81040002105F0F1B800BF30B44588ADB14368002202E00132AA420CD019468B
:202AC00001330C78002CF7D101230B700588806802FB050030BC7047002030BC7047284660
:202AE000F8E700BF30B44488826854B18A420CD00588002301E0914208D00133A3422A442E
:202B0000F9D14FF0FF3030BC704700234268D15C0029F6D00020D05430BC704783688B4252
:202B200008D84288008800FB023081422CBF00200120704700207047BAB1F0B4541E002513
:202B400001F1FF3C0444471E2E467B190CEB050113F8010F01F8010FA342F9D101369642B4
:202B600015441444F1D1F0BC7047704701B32DE9F843441E04EB01090F4E0F464D464FF0E4
:202B8000000814F8011F304602F002FCAC42F8D108F101080A2002F071FD47453D444C46B9
:202BA00001D0B944EDE7BDE8F843044802F068BD024802F065BD00BFE8860000F08600002F
:202BC0002DE9F04F87B012FB02F400AF0734E408BB606B46A3EBC4039D46BAB102F1FF3AF5
:202BE000EA444FF0000954464D460DF1FF36EC46334603F8015FA342FBD109F1010E724588
:202C0000164403EB020405D0F146F1E71C37BD46BDE8F08F00F1FF3B0BEB020300200CF1C5
:202C2000FF34C7F804A07B61FC609C4638618246FB684FF0000E03EB0A0818F8013F01EB97
:202C40000E055C4614F8016F2878644506FB0033DBB21544F6D1F14588F800300EF1010330
:202C600001D09E46E9E73869D7F814B08145924404EB020C00F1010304D03B617B69134462
:202C80007B61D5E7BB68D7F804A0D7F80CC000245E1E25460CEB0403311913F8010F01F804
:202CA000010F9A45F9D1A9451444924405F10103ACD01D46EEE700BF012B13D014DD2DE9BC
:202CC000F0411E4607460D469046012400E0284601342B4642463946FFF772FFB442F6D1A5
:202CE000BDE8F081FFF728BF704700BF2DE9F8436C46A4EBC20400AF02F1FF3CA546002A21
:202D000000F08380D7F820909FED426A9846064604F1040E002507EE905AF8EEE77A9FED01
:202D20003D7ACEED007A00230AE0F05C07EE900A581CF8EE677A824237EE277A07D00346DA
:202D40009D42F2D1581C824237EE067AF7D1F8EC017AF9EC016A67EEA67A9D4227EE877A13
:202D600016440EED017A05F101000EF1080E01D00546D0E7BCF1000F34DD4FF000094B46FE
:202D8000CE46664604EBC300D0ED007A90ED027AF4EEC77A0133F1EE10FA04EBC3051BD5AA
:202DA00080ED007AC0ED027AD0F804E0D5F80480C0F80480B342C5F804E0B8BF4FF0010E6F
:202DC000E0DB09F10109CC45ACEB090609DD002E07DD00239E46D5E7B342D3DBBEF1000F61
:202DE000EFD17AB14D1ED4ED017A2B46FCEEE77A023317EE900A5B1A9A4205F8010F04F15E
:202E00000804F0DCBD46BDE8F883BCF1000FB4DCF8E700BF0000000070B415785378947845
:202E200005FB0106024601FB0300F35C065D01FB0421A3F10100B0FA80F04B5D4009012EA2
:202E400008BF0130012B04BF0130C0B270BC70472DE9F04F2DED028B93B002AF12FB02F511
:202E60007D6107354FEAD5087D606D46A5EBC805AD466E46A6EBC80602ADB546FD608B4657
:202E800029466D46A5EBC80502AEAD46054614460DF1080A08EE900A9946BE60FFF74CFE8E
:202EA000294628463346FFF78BFE294628465346FFF786FE2946534695005046FFF780FEA6
:202EC000EB1D03F4FF63ADEB030D02AB18462A4600213B6104F0DAFE002C00F09F8107EEB4
:202EE000904ADFEDCB6A7A6F3869DFEDCA5AB8EE676A26B2911EC4EBC47C26EE266A760076
:202F0000054401EB44014FEA4C0CB0EC017A01EB0C0308E05AB107EE902AF8EEE77A8B42DE
:202F200037EE277A07D033F9022FFF2AF2D18B4237EE667AF7D136EE077AA842C7EE257A2E
:202F400003EB060140ED017ADFD17B686A46DB08A2EBC3039D4602AD7A692846002104F063
:202F600095FEFB68C7F80CB004F1FF3C08EE105AD7F808B0C7F804909C444FF0FF3E4FF0DB
:202F80000008F6EE005AF0EE006AB0EE086A994609EB0E0205EB0E060AEB0E000BEB0E01A4
:202FA0007C6112F8013F23B1012B38BF0123DB00DBB211F8014F07EE904AF8EE677A67EE23
:202FC000A57AF5EE407AF1EE10FA0CD0F4EEE67AF1EE10FA57BFFCEEE77A043317EE904ACE
:202FE00003EB8403DBB210F8014F07EE904AF8EE677A87EE867AB5EE407AF1EE10FA0CD04A
:20300000B4EEE67AF1EE10FA57BFBCEEC77A023317EE104A03EB4403DBB2624506F8013F89
:20302000BFD17C6908F101084445A444A644AFD1D7F80CB0D7F80490E31D03F4FC73ADEB52
:20304000030D69463B6941F8083B22463B6F18EE100AFFF74BFE0BEB8B035B0007336E4A4F
:2030600023F00703ADEB030D02AB02F11E0CA646FB601E46DC445A445C4644B1131B30461D
:2030800013F8015B4D5D00F8015B9342F8D1033262452644F1D1A3460BF1070222F007021C
:2030A000ADEB020D02A900225FFA8BF33961C7E90722F968BA8407F11C05581E744608441E
:2030C0002E46AE4607F1260A8846002B00F0978008F1FF324FF0000C12F8011F8C4207D913
:2030E00019F80110012904BF0CF1010C5FFA8CFC9042F1D10EF801CBF2455844D844E4D1CC
:20310000002207F12809C7E90A223A86FA68C7F80490C84618EE909ABE60C7F814B01646D8
:203120009B465B46324621464846FFF775FE7B6908F8010B1E4407F132034345F1D100234B
:20314000D7E90196C7E90D33D7F814B0BB8707F1340216F8013B19F8011BB2450B4402F86E
:20316000013BF6D1FB680BF1FF341C44062007F13402002312F8011B884201D8E95C59BBC1
:2031800001330A2BF6D1013810F0FF00EFD1BBF1000F1BD0FB683A69013B013A13F8011FB9
:2031A00002F8011F9C42F9D1BBF1000F0ED03B690BF1FF35581EBA6F511E3A6903462A4478
:2031C00013F8010F01F8010F9A42F9D14437BD46BDEC028BBDE8F08FBBF1000FF6D03A6929
:2031E000F9680BF1FF35501E54190BFB0313024613F8011B02F8011F9442F9D1DBE79C467A
:203200000EF801CBF2455844D8447FF45EAF77E70000C84200001643748700004FEAC808A8
:20322000ADEB080D02AB7A691846214608EE103A04F02CFD00E700BF2DE9F04F2DED028B8D
:2032400012FB02F48DB007346E46E408D51D00AFA6EBC404A54605F4FC74C7F818D0ADEBC6
:20326000040D914605460C463861002168469A463C623C6E04F00AFD15FB09F2D31D694694
:20328000DB08A1EBC303C7F804D09D466846002109F1010504F0FAFC05FB05F202F1070BCE
:2032A00069464FEADB03A1EBC303C7F808D09D460021684604F0EAFC04F1FF386FEA090144
:2032C0004FF0000C6C4668465144C64666460023002E00F08D80002B00F08F80CA5CC25442
:2032E0000133AB42F4D101369E420EF1010E18449C444944EBD13D69EB1D03F4FC73ADEB92
:20330000030D2A466846002104F0C0FCE8464FEADB03A8EBC3039D465FFA86FB2A46684635
:203320000021C7F80C8004F0B1FC434607EE10BAD7F820B007EE90AA6E46CA465D19A14649
:203340004FF001081C46434617EE102A31464846FFF7B2FC3B69FBB10BF1FF302146234607
:2033600010F8012F324452781AB11A780AB983F800800133AB42F3D1002311F8012B002A53
:2033800008BF01238D42F8D108F101085FFA88F8C24501D3002BD6D1D7F8188017EE900A1C
:2033A00052464146D146FFF7C7FBBAF1000F51D03B6A3A697E68C64600249D189446984679
:2033C000BCF1000F0DD0337841460EEB040011F8012B19FB02F28D42825C1344DBB2F6D190
:2033E0003370631C994506F101060DD01C46E7E743B118F80320E25472E79EF8002004F85A
:203400000C206DE723706BE74FEA8902D31D03F4FF63ADEB030DE84600214046C7F824805A
:2034200004F034FC3B6A3E69002198190125C6469C46634616B907E0984205D013F8012BF1
:203440008A42F9D14EF82150A14201F1010306D01946EEE768464946786204F017FC3B697A
:20346000002B00F0AC803A69930008EE903A073303F4FF637B61531C3B604FF001084C46BC
:20348000002C6ED07B683A69013BBB623B6A9D18BB6823440026FB61B7EE008A7B69EA463A
:2034A000ADEB030DE94618EE902A4846002104F0EDFBBB6AB96913F801EFBB62D7E90723A1
:2034C00005EE909A01EB060BB14600207E6AFA6206E0FA6A9D42224400F10100FA6237D093
:2034E00013F8011B14FB01FC1BF80CC008FB0CFCF445EED1BEF1000FEBD056F82920002A7D
:20350000E7D17A6E9FED427A02EB8101FA6A91ED006A111B11F801CB07EE90CAF8EE677AF1
:203520008A4237EE277AF5D137EE087AFA62C6EE076AFA68125C07EE902AF8EE677A15EEC2
:20354000902A86EEA77A02EB800181ED007AC0E7C6454E4615EE909A37D00136B442D54604
:203560009CD13B6808F10108984589D1BB6E3A69D7F808E003F1FF383B6A4FF0000CA1467D
:203580006546981893469A46B9F1000F11D044467646002116F8013B04F8013F534613F8EC
:2035A000012B8A4208BF25709842F8D101318945F0D10CF1010CE345CE44C844E4D13437E3
:2035C000BD46BDEC028BBDE8F08F7B6A53F82620002AC2D1396999ED007A012911D009F1B4
:2035E00004090123F9EC017AF4EEC77AF1EE10FAA8BF1A4603F10103A8BFB0EE677A9942AE
:20360000F0D1BB6804FB023301229A55A5E700BF0000000072B32DE9F04302380027C2EBB9
:20362000C27E00EB42054FEA4E0EBC463E464FEA42094FF0010805EB0E03C81909E014F161
:203640004B0F0ADB4CB1AB4280F8008000F1010008D033F9024FFF2CF1D1AB42067000F1C1
:203660000100F6D10CF1010C62454D441744E2D1BDE8F083704700BF2DE9F04F2DED028BA8
:203680001C4613FB03F389B007336D4600AFDB08A5EBC30305469D46BD60E51D9246D7E9D1
:2036A0001409224605F4FC758B466946C7F804A0FFF742FAC7F814D0ADEB050D68460021EA
:2036C0006E46386004F0E2FAADEB050D224668460021D046EA4604F0D9FAC4B135460026CA
:2036E000B446C6465E465EB12B780EEB0C000021027801311344DBB2B1422B702044F7D1FE
:203700000CF1010C644505F10105ECD1B346B348B34E01F0B5FFB34801F03AFEBB6803F168
:20372000FF389D1C18F8011F304601F031FEA845F8D1AD4801F0A4FFBBF1000F00F09680D3
:20374000BB689FEDAA8A03EB0B05C7E906B4C7E903A5D7F858A00026984618F8061019F8C4
:203760000140012C00F02B81FA697869F0EE486A43464FF0FE0B02FB010E6FEA080CF0EE43
:20378000005AB6EE006A13F8012B1EF802000CEB0304B8B1A6420AEB820013D019F8024076
:2037A00090ED007A012C14BFF0EE467AF0EE657A67EE877AF4EEE67AF1EE10FAC4BFF0EED5
:2037C000676A9346AB42DED1BBF1FE0F11D05A46874801F0DDFDFB6918F80620F96D01339B
:2037E0008B4402FB03339B44F96801238B548BF80130BB6901369E42AFD17B68D7F80CA0B7
:20380000D7F80890FC69013BFB612CB304F10108FE6945464FF0000B05E00BF101018C427A
:203820008B46454418DD16F8012F002AF5D0594699F800206E4801F0ABFDFA6D99F8000075
:2038400001232A440BEB030102448C420AF80B30454453708B46E6DCFA692244FA613A69E5
:2038600009F101099145D0D1D7F818B06200D31D03F47E73ADEB030D6846FF21FA616D4678
:2038800004F004FA002C00F094803B685E1EBB684FF0000E704603EB0B01984604E000F114
:2038A000010C64451CD0604616F8013F002BF6D1BBF1000F0AD04346012213F801CB84459F
:2038C00008BF00229942F8D1002AE8D000F1010C0EF10103644505F81E005FFA83FEE2D127
:2038E0009FED425AD7F858B0002605F1010EF0EE005AB6EE006A4FF0010904E0864206F16C
:20390000010334D01E4615F81620FF2AF6D07B690CFB0232013A59460023F0EE456A00E080
:20392000434612F8014F03F10108C4B11AF8034091ED007A012C14BFF0EE467AF0EE657A8A
:2039400067EE877AF4EEE67AF1EE10FA07DD0EF8163015F816400AF80490F0EE676A834249
:2039600001F10401DCD1864206F10103CAD1FB69DFF87C8003F1010A5544D7F85CA07446F1
:2039800002364FF0010914F8011CFF290ED02278FF2A40460AD001F0FBFC14F8013C227889
:2039A00003FB06635344134483F801900234AC42E9D12437BD46BDEC028BBDE8F08F0D48BB
:2039C00001F0E6FCFB6918F80620F96801338C5402FB0333FA6DD4540BE700BF18870000F3
:2039E00038870000288700007885000000000000508700003C8700002DE9F041CB1D03F49C
:203A0000FC7300AFADEB030D0E4604460A466846002104F03BF9CEB1601E00EB060E6D464C
:203A20007246EC460DEB0608694611F8013B10F8014F23449042DBB2F9D1414500EB060241
:203A400001F8013C704604D0B644EEE7BD46BDE8F081741EDFF820806444013DCCF101060B
:203A600001E0AC42F2D0711915F8013F002BF8D1404601F08DFCF4E764870000012921DDFC
:203A8000F0B55C1E4618431C13F8015B04F8015FB342F9D1451E561E05EB410501F1FF3E8C
:203AA0008C46012700EB0C03324613F8014F02F8014FAB42F9D10137B94276448C440D4430
:203AC000F0D1F0BD704700BF2DE9F04F12FB02F489B0561E0734F6B2EC46E4081546ACEB0A
:203AE000C40416FB06F202F1070804AFA546E9464FEAD808A9EBC80806F1070E04AC4FEAB4
:203B0000420CC5460EF4FC7E0DF110090CF1070CADEB0E0D4FEADC0C804668468E46A0EB02
:203B2000CC0004A9F960854600214846C7E9003E04F0ACF8D7F80CA032460021504604F015
:203B4000A5F821462A464046FFF764FD204653464A462946FFF792FF04AC31464846BC60BE
:203B6000FFF74AFF012D1BDDA8F1020202EB85024FEA450BAE464FF0000C0120A4F1020A45
:203B800008EB4E030AEB4C0133F8024F21F8024F9342F9D101308542AE44B4445A44EFD1DA
:203BA000BB6B0293BB6801937D680095D7F80C803246434648460321FFF74AF906EB460299
:203BC000D31D03F4FF63ADEB030D04AC2046002104F05CF8CDE90154C7F80C80CDF80080DA
:203BE000B96B4B4632460320FFF726FB3968CDE90251FB68CDE900932246B86B33460321E0
:203C0000FFF73AFD1437BD46BDE8F08F4FF4616303FB00F0000B7047054B10B51B689847D7
:203C2000044B5B689847044BBDE810405B681847F8870000C480000038880000034A044910
:203C40009079D37903EB00230B807047C4130020AA130020064B074A01211960D2F850355C
:203C600013F0FF03FAD1C2F8FC3F0120704700BF1010004000100040A1B1192810D8DFE8F6
:203C800000F00D770F0F6E65605B453F0F3A0F0F0F36322E2A0F26221E1A171300207047BA
:203CA00001207047022070477D230B600020704700200860704710230B60002070470A2390
:203CC0000B600020704720230B600020704703230B600020704708230B6000207047D8234D
:203CE0000B60002070471A230B60002070470B230B6000207047244B1B780B60002070474F
:203D0000224B93F900300B6000207047204B214A012082B018601368002BFCD00020106095
:203D200012681D4B0192019AD3F8483503F07F035B420B6002B07047184B5B790B60002083
:203D40007047164B5B780B6000207047134BDB7800200860002BA1D001230B6070470F4BC1
:203D60001B7800200860002B98D004230B607047094B0B4AD3F80835A2FB03239B080A33F8
:203D8000DBB20B6000207047B6130020B7130020141000401C1100400010004084020020BA
:203DA000CDCCCCCC0120704770B582B0FDF7BCFDBFF35F8F1C4B1B78ABB11C4B1C49022210
:203DC0004FF0FF34C1F80843C3F88021C3F88020BFF34F8FBFF36F8FBFF35F8F02B0BDE87F
:203DE0007040FDF7A5BD134903F0FF020A600968114B019101991A601A680D490B4B0092D0
:203E00004FF0FF3502224FF44054009EC1F80853C3F88021C1F804431A60BFF35F8F02B05A
:203E2000BDE87040FDF784BD8402002000E100E0001000403011004034110040144BD3F811
:203E4000FC0F28B1D3F85035DBB2032B01D000207047104B1B7803F0FF0073B10E4B1B78DB
:203E6000053B7A2BF3D80D4B1B68002BEFD10C4B1868B0FA80F040097047074A1378053BBF
:203E80007A2BE5D892F8800080F00100704700BF00100040840200202C0900203011004003
:203EA000341100400D2801D001207047042A05D121B1034B1B680B600020704702207047DD
:203EC000B009002070B51B4CD4F85055EDB2032D82B028D0184B1948194AC4F804051949C5
:203EE000C3F8102501264FF00062C3F81415C3F80465C3F80425FFF757FFD4F8003243F0A1
:203F00001003C4F80032D4F80032022D43F40023C4F8003209D00C4B0C4A002119601B6888
:203F20000193019B166002B070BD094B1E6002B070BD00BF0010004000F001402C090020B6
:203F4000381100404C80004058110040041000400810004070B52F4D2F49304A304B002445
:203F60002C6084B02D680095009D0C600968019101991460126802922A4D029A1C602978FF
:203F80001B6803934B1F7A2B039A38D88C1E2246691C03F06DFE2B195B783F2B2DD89B0036
:203FA000DBB2214E214A3370D2F84835204A03F07F035B425BB299B20420137001F078F9D3
:203FC0003178032001F074F91A4B2A781A491A74D1F84C055860D1F8481599605200DA6042
:203FE0005D68104881220021023D1D6003F04EFEFFF768FF204604B070BDFF23D1E78122C4
:204000002146284603F042FEFFF75CFF204604B070BD00BF381100400C11004034110040D6
:20402000301100402C090020B613002000100040B7130020B00900200080004010B503889E
:2040400004461BB340F2D332934224D1822901D0012010BD124A1378053B7A2B16D8114BC7
:204060001B6813B992F8803083B102F02BFD01F0B1F801F067F88021FFF76CFF002805DD73
:2040800080B201F059F8084BDB68984740F2D3332380012010BD00230380032010BD00BF19
:2040A0002C09002030110040C48000007D2910B50C4609D801460A48A31C00F8013B224654
:2040C00003F0D6FD002010BD064A0749074801F05FF921467D22064801F05AF9012010BD6F
:2040E000C409002094870000A487000000800000A887000070B4164B1649174C0F22C3F8AB
:2041000010258A780A3A02EB8202C3F808250879CD798A794979120642EA0522024342EA63
:204120000142C3F86C2640F2022600250B48C3F834657F2140F20122C3F83845C3F83C5550
:20414000C3F81405C3F81815C3F8502670BC70470010004084020020211001000800000659
:2041600008B5084BD3F8FC2F1AB1FFF7ABFE012008BD0122C3F8FC2FFFF7BCFFFFF7A2FE99
:20418000012008BD0010004030B585B0FFF7E8FF104A11491148124C0023136015680395DC
:2041A000039D0B600D680295029D03600368019301230198236001E00B6813B91368002BE1
:2041C000FAD0044A044B10681B68B0FA80F0400905B030BD48110040441100404C110040AD
:2041E0002C10004010B5072867D8DFE800F01A2A666648525A04364A3648C9B25171D0F84E
:20420000FC3F5BB11179D479937952791B0643EA04230B4343EA0243C0F86C360024204690
:2042200010BD01294FD000294AD12B4A294B01211160D3F8504514F0FF04FAD1C3F8FC4F70
:20424000EDE7A1F10B030F2B3AD8214A214BC8B29070D3F8FC2F002AE0D01F4A0120106083
:20426000D3F8504514F0FF04FAD10A3901EB8101C3F8FC4FC3F80815FFF772FFCFE731F03F
:2042800007041DD1124BC1F380011970FFF78CFDC5E731F0010413D10D4BC9B2D970204653
:2042A00010BD0B4A0B4BC9B25170D3F8FC2F002AB4D0C3F80C150024B1E70124204610BDB6
:2042C0000224204610BDFFF74BFF0024A7E700BF84020020001000401010004010B57D2814
:2042E00084B04BD82C4CFFF73BFFE378002B3FD163782A4A2A49DBB20120C2F80C35086056
:20430000D2F85035DBB2022BFAD12649264BC2F8043500230B600868019001980B66086EE7
:20432000029002988B648B6C0393039BD2F8003223F01003C2F80032D2F80032012143F4D4
:204340008023C2F80032116001F08AFA6FF002031C1A01F085FAE042FBD4104AD2F8503544
:20436000DBB20B2BFAD0FFF7ADFD002004B010BDFFF70AFF0028BBD10220F7E70B4A0C4912
:2043800004460C4801F004F821460B4801F000F8012004B010BD00BF840200200010004098
:2043A0000C1000400C110040C409002094870000A487000000800000C487000010B50C462F
:2043C000FFF774FE2046BDE81040FFF787BF00BF10B51A491A481B4A1B4C00230B600370C8
:2043E0004B6023708B6082B0CB600B741360136800934FF080430121009819601368002B5C
:20440000FCD0002414601368019321460F48019B01F06CF8214681220D4803F037FC0D4B9D
:204420000122C3F8FC2FFFF765FE0B4A1378DBB21370FFF7B9FC204602B010BDB0090020C1
:20444000B613002000010040B7130020740200202C0900200010004084020020074A13788B
:20446000053B7A2B07D8064B1B6813B992F880007047012070470020704700BF2C09002054
:2044800030110040154B1B7803B1704700B503F0FF02134B196883B029B9124B1A6882B986
:2044A00003B05DF804FB1A601B6800930E480F4B009A012283F8802003B05DF804EB01F0F5
:2044C000CFB819601B68019381220848019B03F0DDFB03B05DF804EBFFF7F4BC8402002028
:2044E0003011004034110040740200202C09002010B568B90E4CA368012262703BB1D3E9E3
:2045000000230020A2609847A368002BF7D110BD0128FCD1064C2369A070002BF7D0D3E91A
:2045200000230120226198472369002BF7D110BD440A002010B50B4C237882B013B18520C9
:2045400002B010BD08486360A3602361E36000F03BF8019000F044F801980123237002B01D
:2045600010BD00BF440A0020F144000038B5154DAB78044673B110B14368012098470020A0
:20458000FBF716FFEB680133EB600020BDE83840FBF716BF03F0FF00FBF70AFF64B12A69A9
:2045A00042B1944208D0134601E09C4204D01B68002BFAD122602C61EB68002BE2D100F0C5
:2045C00025F8DFE7440A0020044A137923B90121106091801846704785207047580A00203E
:2045E000084B1A68D20704D4C02283F8002301221A60054A4FF080410123C1F8183513701C
:20460000704700BF00E100E00714002010B4094B094A0021196083B01B680193019C4FF0FD
:20462000804102200123C1F80403136003B05DF8044B7047040100400800004010B5174B7E
:204640001A6882B062B10021154A19601B68507900934FF080410123009CC1F8083398B1BE
:20466000104B1A68BAB100221A601B6801934FF0804202210A4B0198C2F808131B680120B4
:2046800002B0BDE810401847116853718847054B1A68002AE7D102B010BD00BF00010040D5
:2046A000580A00200401004030B41F4C94F86A3082B0002B33D104F12F03204604F15F017B
:2046C000FF2203F8012F8B42FBD14FF0FF3222600123072B88BFE11803F1010340F8042F0A
:2046E00088BF81F858200C2BF3D11049104B0020C0228880606683F8062340221A600D4B2B
:204700000D4A18601B680193019D01214FF0004384F86A10C2F8043302B030BC704708200D
:2047200002B030BC704700BF600A0020C40A002000E100E07C61004000600040034B93F896
:204740006A00003818BF0120704700BF600A0020F0B4454F3B1893F93030002B5DDA91F85D
:2047600002C0CCF3400CBCF1000F0CBF0823002307EB8304A4F104040CBF0C26082602E074
:2047800001339E424CD954F8045F0135F8D13C1847F8232084F83030BCF1000F4FD08A78A3
:2047A00054071AD4D5074ED41F284C7887BF2F4D00F01F0202464FF0A04502F5E072A4007B
:2047C00045F822402A4DC40800F0070C2E5D012202FA0CF232432A558A7812F0020222D05E
:2047E0009B0003F1804303F5C0430978D3F8104524F44F3424F44074C3F810450202090443
:20480000D3F8100501F4403102F47C520A430243C3F810250020F0BC70470820F0BC7047FE
:204820000420F0BC7047083B1F44097897F8603043EA811387F860301046F0BC7047FA1810
:2048400082F85800ABE71F2887BF084A00F01F0404464FF0A04202EB8402D2F8004724F0FF
:204860000204C2F80047ADE7600A002000030050C40A002070B4324C251883B095F93030D2
:20488000072B22DD234493F858309B09032B46D0012B0CBF4FF400324FF440321F288ABFD4
:2048A000284B4FF0A04300F01F0003EB8000D0F8003723F44033C0F80037D0F800371A4312
:2048C000C0F8002703B070BC7047DAB2072AF9D8980000F1804000F5C04003F140029200CF
:2048E000D0F8106592B202F1804202F5C04246F00106C0F810650020106012680192019AE7
:204900000029DFD095F9302054F82220002AD9D00D49012202FA03F3C1F80433D2E71F2825
:204920008ABF084A4FF0A04200F01F03D2F8102598BF0346DA4002F0010202321204ADE71D
:20494000600A00200003005000600040194B034493F93030072B13DD1F288ABF164B4FF0F1
:20496000A04300F01F0003EB8000D0F8003723F44033C0F80037D0F80037C0F800377047BA
:20498000DAB2072A14D810B49A0002F1804202F5C0420A4CD2F81005012120F0010001FAFF
:2049A00003F3C2F81005C4F808335DF8044B7047704700BF600A00200003005000600040ED
:2049C0002DE9F04F002289B0CDE9022216461546704B714C7148012204E0043383424FEA29
:2049E000420211D019680129F7D1D4F804131142F3D01D60196800910433834246EA020663
:204A000000994FEA4202EDD1654B1A68012A07D016F0FF0F17D1002E32DB09B0BDE8F08F7A
:204A200000221A601B6801934FF0A042019BD2F810255C4B0292D3F81035039316F0FF0F12
:204A40001ED046F00046584F01250024A30003F180432E4203F5C0434FEA45050BD0D3F80D
:204A6000100557F82420D3F81015C0F30520C1F3014102B190470134082CE7D1002ECCDA51
:204A80004FF0FF33494D0DF1100ACDE906330022CAF804200492A5F16408454C0027012689
:204AA00014F9010B431C32D0C0F3C20E08AB03EB0E0C00F007031CF8081C06FA03F31942BB
:204AC000C2B200F03F0022D008EB0009910999F9309058F82990B9F1000F4CD003294CD033
:204AE0001F288BBFDFF8BCE04FF0A04E02F01F0202460EEB82021CF818ECD2F800C71EEAFC
:204B0000030FCCF3014C1BD1BCF1030F3CD0A542C6D1002F81D04FF0A0430299D3F81035F5
:204B2000204A9942D2F8102503D1039991423FF474AFDDE90401CDE90232CDE90601ACE793
:204B4000BCF1020FE3D1032904D0B9F1000FDED0C847DCE74FF4403CD2F8003723F4403360
:204B6000C2F80037D2F8003701374CEA0303FFB2C2F80037E9E70329C9D11AF80EB04BEA92
:204B8000030B0AF80EB0ABE70329DED14FF4003CE2E700BF006100400060004020610040D1
:204BA0007C61004000030050600A0020C40A0020C00A002010B54FF0804386B0D3F8044314
:204BC000620705D5D3F8082103F58473002A4ED1A30603D52A4B1A68002A3FD1600603D576
:204BE000284B1A68002A2FD1210602D5264B1A680ABBE20502D5254B1A6892B9A3050ED55A
:204C0000234B1A685AB100221A601A68214B0592059A1B68022006B0BDE81040184706B074
:204C200010BD00221A601B4A1B68049301201368049A9847E2E700201860164A1B68039399
:204C40001368039A9847D4E700221A60124A1B68029301201368029A9847C5E70020186037
:204C60000D4A1B6801931368019A9847B6E700221A600A4A1B6800931368009A9847A7E7AC
:204C800014010040180100401C0100402001004024010040D40A0020D00A0020CC0A002055
:204CA00008B5FFF787FFBDE80840FFF7C7BC00BF074B0849084A0020186082B01B680193C0
:204CC000019BD1F808051368C0B202B0184700BF00D1004000D00040D80A002070B44379A2
:204CE0001E4C1F4E03EB430546F82320655D8DBB90F904308A78002B24DB03F1604303F5A4
:204D000061435201D2B283F8002390F90430002B07DB144D03F01F0601225B09B24045F881
:204D2000232003680A88C3F8082543790879C97803EB4303E218012550709170E55400205F
:204D400070BC7047084D03F00F0352011D44D2B22A76DAE7082070BC704700BFDC0A0020AD
:204D6000E00A002000E100E0FCEC00E00368044A01211960437903EB43030221D15470475D
:204D8000DC0A002010B403680022C3F8002183B0D3F80031026801930123019CC2F84433C1
:204DA00011B10268C2F8043303B05DF8044B70472DE9F041274F284EDFF8A08084B0002446
:204DC0004FF48035D7F804332B4211D056F824200023E0B262B1C7F84853C7F8085346F87B
:204DE000243056F824300393D8F80030039A98470134032C4FEA4505E4D1164BD3F80423BC
:204E0000D10702D5D3F80021C2B9124BD3F80423920710D5D3F804216AB10022C3F80421A2
:204E2000D3F804210D4B0192019A1B68052004B0BDE8F041184704B0BDE8F0810022C3F8C4
:204E40000021064AD3F80031029304201368029A9847DAE700B0004040B10040E00A00204A
:204E600010B5074C236882B03BB1064B1B6898470023236023680193019B02B010BD00BF1F
:204E800000010140E40A002070B5114B114A1D781160DDB9104E027801211970C6F80C25D8
:204EA000416804464FF47A720023C803490C02F055FDC6F80405237A084A5B01DBB282F830
:204EC00010334FF480331360284670BD082070BDB9130020E40A00200000014000E100E03A
:204EE000044B054901220220C3F804231A600870704700BF00000140B913002010B504464A
:204F00000020FBF755FA0E4A1378072B11D80D492370581C1070D1F80805012202FA03F36A
:204F20000343C1F8083500240020FBF749FA204610BD04240020FBF743FA204610BD00BF20
:204F4000B813002000000140034B044A00F5C07043F82020704700BF000001403546526EF7
:204F6000014B00221A607047E80A002010B5044600F030F90D4A0E4B1188186800F03AF96C
:204F800074B121460D2000F0A1F90A490C2000F09DF9094B002108469B689847012010BD36
:204FA00006490D2000F092F9EFE700BFD4130020D0130020C4130020C48000000881000097
:204FC00030B50E4B1C6883B0B4B100F0BBF8054600F0CCF801460C20019100F083F90090D4
:204FE0000D2000F07FF9DDE900210346A446284603B0BDE83040604703B030BDE80A002073
:20500000014B1860704700BFE80A0020704700BF704700BF002070470020704700207047D3
:2050200001207047704700BF0120704701207047704700BF00207047704700BF00207047D8
:20504000704700BF704700BF00207047012070470120704700207047704700BF2DE9F04149
:205060000E4A0F4B16781F88F419802C03DD00242046BDE8F081DFF830803246414605463F
:2050800002F0F6FD074B1B7833443A46A81958FA83F102F0EDFD2046BDE8F081BA13002083
:2050A000AC130020AE130020EC0A002070B4134B134D144A2C781B781288234452FA83F3E0
:2050C0009BB21A18802A15DC013B1BB2002B0CDB0D4A591C1E1811443244013B11F8016D1B
:2050E00002F801691BB25E1CF7D120442870012070BC7047002070BC704700BFAE1300209A
:20510000BA130020AC130020EC0A0020084A138883420BDB10B407490C8880B21B1A2044A2
:205120000880138001205DF8044B704700207047AC130020AE130020014B1880704700BFE7
:20514000AC130020044A054B12781B780448134450FA83F0704700BFAE130020BA13002011
:20516000EC0A002000487047EC0A0020014B1888704700BFAC1300200549064A064B12784A
:2051800008781B88104453FA80F080B2704700BFBA130020AE130020AC13002010B50A4B6C
:2051A0000A4C0B49002220461A605A609A60DA601A615A61FCF774FC04F108000449BDE8CD
:2051C0001040FCF76DBC00BFE8130020D81300200881000004480549054A002303800B80DB
:2051E0001370FFF7DBBF00BFAE130020AC130020BA13002070B5802982B00B4A0B4D0C4E29
:2052000001900C464FF0000328BF8024137033802B80FFF7C3FF01990648224602F028FDDE
:2052200020462C8002B070BDBA130020AC130020AE130020EC0A0020F0B40C4B0C4A1C68E5
:205240005D689F68DE68C6600460456087601C695D694561046154689068D36812680A60FD
:205260004C608860F0BCCB60704700BFE8130020D813002070B40C4B026844688568C6687B
:20528000DE601A605C609D60026944695C611A61064B0C6848688A68C968D9601C60586048
:2052A0009A6070BC704700BFE8130020D8130020024B23F810100120704700BFE8130020F2
:2052C000014B33F810007047E813002008B5044B0C3803EBC000FCF7E3FB012008BD00BF01
:2052E000D8130020024B0C3803EBC000704700BFD813002001490248FCF7D8BB0881000040
:20530000E013002008B5FCF705FBBDE80840FCF7A5BB00BF08B5FBF73DF9002000F028FAB4
:2053200001F04CFB00F002FC4FF08052064BD2F8A800D2F8A4205A604CF6F4613622D870F4
:2053400019809A7008BD00BFC41300200148002100F0CCB8B802002010B5FCF7E5FA044696
:20536000BFF35F8F00F050F900B930BFBFF35F8F2046BDE81040FCF7DBBA00BF0AB9002087
:20538000704708B508461146FBF7F4FD002008BD0FB400B583B004AA054852F8041B01928A
:2053A00000F08EFC03B05DF804EB04B0704700BF980200202DE9F843DFF8A880D8F8004038
:2053C000844205460F4645D0002C36D0234601E0002B32D01B689D42FAD173B3204EAB7BC2
:2053E000D6F80090F3B10023AB73002C34D0A54209D0A37B13F0010F20462A464FF08701AC
:2054000001D000F031F82468002CF0D1AB683BB1BD4205D035600022832105F10C0098471A
:20542000D8F80040A5420AD02CB12368AB420CD01C46002CF9D1C6F80090BDE8F8832B6811
:20544000C8F80030C6F80090F7E72B682360C6F80090F2E72346C0E7AB68002BD8D1EAE72B
:20546000EC0C0020F00C00208368BBB170B504460B4E0220A073346004F10C000D469847DD
:205480000238012804D9832D02D00123A37370BD21462046BDE87040FFF78CBF704700BF0A
:2054A000EC0C002038B50B4A0B4B146800221A707CB1012501E024685CB1E37B002BFAD0F4
:2054C000E581204600228221FFF7CEFF2468002CF3D138BDF00C0020BE130020024B18781D
:2054E000421C1A70704700BFBC13002070B50E4D2C68844207D00A4634B1234600E01BB164
:205500001B689842FBD170BD0028FCD0074E04600121002334688173838181212860FFF78F
:20552000A3FF346070BD00BFF00C0020EC0C002030B4074B07480849084A094C8A251D705C
:20554000002303700B601360237030BC704700BFBC130020BD130020F00C0020EC0C0020CF
:20556000BB1300202DE9F041224D2B78FBB9224E3378C3B12148224C027802EB420704EB2B
:205580008701013202F01F02013B0270886814F82770D1F80480DBB2337058B1812F1ED0D8
:2055A000827BD2071DD428781844BDE8F081FFF779FFDCE7134A14685CB9F4E7A37B13F0F7
:2055C000010F20464246394601D0FFF74DFF24685CB12B78002BF1D0FFF764FFEEE70123C1
:2055E000837342463946FFF73FFF337828781844BDE8F081BE130020BD130020BB130020EE
:205600006C0B0020F00C0020024A034B10781B7818447047BD130020BE13002070B40D4DB0
:205620002C78202C12D00C4B0C4E1B78234403F01F0303EB430301342C7006EB8304C4E9AE
:20564000012006F82310002070BC7047012070BC704700BFBD130020BB1300206C0B0020BD
:2056600018B1837B013B012B00D97047024A01231370C373704700BFBE130020FBF772BCBB
:2056800010B5044602F00AFB01462046FBF772FCBDE810400A20FBF765BC00BF08B50448FD
:2056A000FDF7F2F9BDE808400248FDF7EDB900BFAC020020A002002038B50E48FDF7F6F9C5
:2056C000044678B10C48FDF7F1F90546206058B1FFF7C4FC05F19A01A5F8800005F1820075
:2056E000FFF7AAFD204638BD214602482C46FDF7F9F9F7E7A0020020AC020020006800F1E2
:205700009A018230FFF798BD10B5014604460748FDF704FA00B910BD21680548FDF7E2F92F
:2057200021460248BDE81040FDF7DCB9A0020020AC02002010B5014604460948FDF7EEF928
:2057400000B910BD2468B4F880102046FFF752FD04F19A0104F18200BDE81040FFF78ABD17
:20576000A002002008B501F01FFA80B208BD00BF0F4B0121002219601946C3F80021D1F8CF
:205780000031002BFBD0D1F80805094A0023C0B2C1F80031D2F80031002BFBD0D2F8081562
:2057A000012340EA012080B2536001F0CFB900BF00D000400023013A027101604371837173
:2057C000704700BF10B4817942790479521A224208D003464A1C00682240405C9A715DF840
:2057E000044B70474FF0FF30F9E700BF10B4164A164B17490020106083B012680192019A46
:20580000D3F8102522F00F0242F00802C3F81025D3F8082542F00302C3F80825D3F804252E
:205820004FF4803422F003024FF48070C3F80425C3F80443C1F88001086001221A6003B04F
:205840005DF8044B704700BF408100400080004000E100E0014BC3F84005704700800040E9
:20586000034A044B01211160D3F84405704700BF4480004000800040064B1A6802B9704766
:20588000002282B01A601B680193019B02B000F005B800BF40810040FFF7A8BF10B5084CF2
:2058A000206858B1D0E90131002222609847236823B1BDE810401868FFF7CCBF10BD00BF08
:2058C0007412002010B4174B83B000220124ADF8042000921946C3F82CD61C60D1F8003195
:2058E000002BFBD0002401230E4AC1F800414B60D2F80431002BFBD0002401230949C2F824
:2059000004419360D1F81431002BFBD002AB03EB40000023C1F8143130F9080C03B05DF80A
:20592000044B70470070004001207047802801D00120704730B4144B14490120C3F8000507
:2059400000224FF4003509240720C3F81855C3F810450825C3F814250224C3F82815C3F827
:2059600020050320C3F82425C3F83815C3F83055C3F83425C3F8F045C3F8F425C3F83006CA
:2059800030BC0120704700BF00700040001202002DE9F0410488752C064607D07C2C37D07A
:2059A000A4B1002303800320BDE8F081DFF8D0802E4D98F800202E4F00233B602B6012B3D6
:2059C0002C4CE256002A41DB2B6832E02A4F274DFFF784FD294B3A6818702C60002A43D061
:2059E0002346244C984604F8038000219368802098472B6801332B6057F82320002AF2D105
:205A0000DBB21F4A1370752333800120BDE8F0811A4B1B788B4216D1144D164CDFF8608065
:205A2000134F2B683A68E15C01F07F010132E1543A6098F80020013393422B60C1DB3B689C
:205A4000002BB9D1DFE70120BDE8F0810A4A0B4952F8232009780020FFF7E0FD0028E0D112
:205A60007C23338001209FE71346CAE77C12002078120020CC1300208C02002008140020E2
:205A8000BF13002070B50488672C06461BD0792C33D05CB300230380032070BD1E4C1F491A
:205AA00023681F4A0978581C002520602846D554FFF7B4FD1B4B2A4618688521FFF7AEFD7D
:205AC00030B300232360184C134D06E00A28E5D00D28E3D02B687E2B15DD2046FFF772FECA
:205AE000431CF3D167233380012070BDFFF7F6FC0A4A094B10701C60E5E7852901D0012000
:205B000070BD054CDDE706495A1CC8542A60E4E779233380012070BD001300200914002000
:205B200080120020EC0C00200413002008B5054905488022FFF73EFEBDE8084003480021DF
:205B4000FFF7D4BC0C13002004130020C8020020074B82B001AA9A42019304D9CD2103F8FA
:205B6000011B9342FBD10348002102B0FFF7BEBC18140020D802002038B5124C124D00F0FA
:205B8000A1FF2378CD2B08D0AC4202D30EE0AC4212D014F8013FCD2BF9D1AC4202D30BE0BD
:205BA000AC4209D014F8013FCD2BF9D000F08AFFAC4203D2281B38BD00F084FF4FF0FF30BC
:205BC00038BD00BF181400200000042070B5038804463BB1922B0ED11F48FBF7ADFA70B9F6
:205BE000012070BD1C484FF4A061FBF791FA92232380012070BD00230380032070BDFFF7A0
:205C0000BBFF164E164B051EA6EB030615DB002E13DBB5420DDD134B1B68002B09DD124A0D
:205C200012491348FFF7B4FB124832462946FFF7AFFB0948FBF776FAD9E70A4B1B68002BB2
:205C4000F7DD094A09490A48FFF7A2FB324629460948FFF79DFBECE78C130020000004206A
:205C600018140020A8010020D8880000A4870000008000000C890000E0880000102A2DE9B7
:205C8000F041144606460D460DD90C4F01E0102C0CD93368286810223946103C9847002868
:205CA000F5D0BDE8F0811046002AFAD03368286802492246BDE8F041184700BF74890000F0
:205CC0000B78002B00F0DF842DE9F04F91B0904600228A468146009204E01AF8013F002BAB
:205CE00000F0D680252BF8D1514500F00381AAEB0104D9E9003022469847002840F0588137
:205D0000009A9AF8003022440092002B00F0C3809AF801300AF10104002B00F0BC80002196
:205D2000A3F12002102A0AD8DFE802F0AF0909AC09090909090909A909A60909A100A3F18D
:205D40003102082A40F2BD802A2B00F0C88000262E2B00F0AB804FF0FF3B6C2B00F09F8029
:205D6000682B00F0CA807A2B03D1637841F060010134782B00F2EA80DFE813F08D00E800FD
:205D8000E800E800E800E800E800E800E800E800E800E800E800E800E800E800E800E80083
:205DA000E800E800E800E800E800E800E800E800E800E800E800E800E800E800E800E80063
:205DC000E800E800E800C401E800E800E800E800E800E800E800E800E800E800E800E80066
:205DE000E800E800E800E800E800E800E800E800E800E800E800E800E800E800E800BD014D
:205E0000E800E800E800B601AF01A801E800E800E800E800E800E800E800E800E800E800AA
:205E2000E800E800E800E800E800E800A101E800E800E800E800E800E800E800E8009A0175
:205E4000E80093011F015B0169016201E8001F01E800E800E800E80085017E017701E80070
:205E6000E8007001E8005401E800E8004D0141F0100114F8013F53E741F00101F9E741F062
:205E80000601F6E741F00801F3E741F00201F0E78A457FF42CAF009811B0BDE8F08F63788A
:205EA0006C2B31D0013441F0600162E76378A3F13000092804F101022BD92A2B3AD01446B5
:205EC00049E7002606EB860603EB460614F8013FA3F13002092AA6F13006F3D938E7D8F8E8
:205EE00000606378002E08F10408B8BF41F0010101342DE79AF8003007E76378682B20D033
:205F0000013441F0400134E7A37841F0800102342FE74FF0000B0BEB8B0B03EB4B0B12F882
:205F2000013F2F2BABF1300B40F29282392BF2D9144612E7A378D8F800B0023408F1040852
:205F40000BE7A37841F02001023412E701F4E0630F46B3F5A06F04F1010A39D000F2918162
:205F6000B3F5407F00F09C81B3F5806F40F0D180D8F80050019508F10408002D40F02082DB
:205F8000C44B01930625BBF1000F02DB5D4528BF5D46AE428CBF761B0026F80740F12382A8
:205FA000D9E9003001992A469847002800F0B9814FF0FF3011B0BDE8F08F01F4E06343F4F2
:205FC0008073B3F5A06F41F4245704F1010AC5D1012ED8F800308DF82830354638BF01252D
:205FE000FA0705F1FF3508F1040840F11C82D9E9003001220AA998470028D9D12A4609F1BF
:2060000004014846FFF73AFE009B01330028CFD1EB1800933FE001F4E06343F4807341F4DC
:20602000C85796E701F4E06343F4807341F410678FE701F4E06343F4007341F4024788E771
:2060400001F4E06343F4007341F4813781E701F4E06343F4007341F400777AE701F4E063E2
:2060600043F4806341F4806773E701F4E06343F4407341F440776CE701F4E06343F48073CD
:2060800041F4885765E704F1010AD8F80030009A1A6008F104086378002B3FF4FCAE51460D
:2060A00020E601F4E06343F4A06341F4A06750E701F4E06343F4007341F4C13749E701F4C1
:2060C000E06343F4807341F4B24742E701F4E06343F4007341F4A1373BE701F4E06343F47C
:2060E000007341F4844734E701F4E06343F4007341F442472DE701F4E06343F4007341F447
:20610000E13726E701F4E06343F4C06341F4C0671FE7B3F5807FBED1BBF1000FABBF27F0F4
:2061200010070123CDF804B0019317F40053069307F0E00300F01D81402B00F07C8200F26D
:206140000B81002B00F05A82202B40F09E8298F9002008F10408D317002A73F10001C0F240
:206160001D82CDE9022307F4C053B3F5805F00F08C81B3F5C05F00F0E781B3F5006F00F0ED
:20618000AD81002305939B460DF13E030493019B9B4534BFA3EB0B03002341F6080201935C
:2061A00007EA020141F208039942019B00F0138191425B4404D1DDE902120A4340F058813B
:2061C00000250795069A7AB1059A002A40F04C8107F00602022A00F054812F49062A079A34
:2061E00004BF0A46012507922B449E428CBFF31A0023029317F00103059307D1FE0640F1BE
:20620000F381DDE901210A44CDE901233DB1D9E9003007992A46984700287FF4C9AE009B7E
:20622000019F5B44102F009340F2B2811B4ED9E9003010223146103F984700287FF4B8AEB5
:20624000102FF4D8D9F800301449D9F804003A46984700287FF4ACAED9E9003004995A467D
:206260009847009B1D4400287FF4A2AE019B2B449B46059B002B40F0ED80029B5B44009335
:2062800009E7B3F5C06F5BD0B3F5E06F3FF4FDAE01E700BF68890000E88100008489000029
:2062A000D8F80010C948CA4D17F4804F08F104080A464FF0000314BF8346AB4600296AD075
:2062C0000DF13B0E7146100902F00F0C40EA03701D0902462B461BF80C0001F8010D52EABC
:2062E0000300F0D1BEEB010557D003357823AE4201F8013C4FF030024FF0230301F8022C0E
:2063000001F8033CA1F1030B8CBF761B0026F9077ED5D9E9003059462A46984700287FF4D5
:2063200047AE324609F104014846FFF7A7FC009B2B441D4600287FF43BAE73190093AAE62A
:20634000D9E90030A3490122984700287FF430AE009B013300939EE6602B00F04F81802B08
:2063600040F0938108F1070828F00708F8E80223F2E6402B00F0578115D8002B00F04481CD
:20638000202B40F0998198F800200023CDE9022308F10408E7E60DF13B01302301F8013C25
:2063A00004250139A2E7602B00F02E81802B40F0838108F1070828F00708F8E80223D0E6FE
:2063C0002B78002B00F0488115F8013F002BFBD1019BED1AD7E5012B38BF01230025019393
:2063E00007955B44EEE6324609F104014846FFF745FC00287FF4DCAD0199D9E900302A4632
:20640000984700287FF4D4AD009B2B441D4694E7324609F104014846FFF730FC00287FF4D7
:20642000C7AD5946E9E72A4609F104014846FFF725FC00287FF4BCADD9E9003001220AA999
:206440009847009B013300287FF4B2AD2B44DFE514468EE4029A09F104014846FFF70EFC6C
:2064600000283FF40AAFA3E55B4A07920125BBE65A495B4A17F4804F18BF0A460792022572
:20648000A0E6584A07920125AEE6DDE9022313433FF477AEDDE90223184600231546059389
:2064A000DDE902230DF13E0107918C464FEAD20B4BEA437B02F007014FEAD30E30315A462C
:2064C00073460CF8011D52EA0301EFD1079BCDF810C0CDE90250A3EB0C0B58E6DDE90223D4
:2064E000134300F0C88000230593DDE902120DF13E03CDE9086407938B46154604971C4655
:20650000584629460A22002301F028FA303204F8012D584629460A22002301F01FFA2F46A5
:206520005E46002F08BF0A2E83460D46E8D2079B049F089E04942246A3EB020B099C26E67C
:2065400000220023CDE9022317F4804365D10593DDE902231E4DDDE90201014300F0858027
:206560000DF13E000790110902F00F0E41EA03714FEA131C0A46634615F80E1000F8011DDE
:2065800052EA0301EFD1079B0490A3EB000BFEE5019B002B3FF460AE1F4653E6524207F414
:2065A000C05163EB4303B1F5805FCDE9022355D0B1F5C05F45D00123B1F5006F059394D0A2
:2065C0000DF13E0304934FF0000BE0E5488900003489000070890000648900005C8900007D
:2065E000608900003C810000029A09F104014846FFF744FB00283FF409AED9E4D8F80020D8
:2066000008F10408D317A7E5D8F8003000221946CDE9021208F10408A5E50021DDE9022319
:20662000324D059197E7B8F800200023CDE9022308F1040897E5B8F9002008F10408D317B8
:206640008AE57B0405D50121DDE90223274D059186E7012305937BE7019DB9E6DDE90223A8
:2066600018460123154605931AE70DF13E034FF0000B04938BE54FF0000B0DF13E03CDF8C6
:2066800014B0049383E51846704707F4C053B3F5805F06D0B3F5C05F3FF452AFB3F5006FA5
:2066A00013D0002305939B4600230022CDE902230DF13E0304936AE507F4C053B3F5805F81
:2066C00008D0069B05939B46EEE74FF0000BCDF814B0E9E70699059100230022CDE90223FB
:2066E0000DF13E038B46049351E500BF48890000074A084913681844884202D81060184642
:206700007047054B0C221A604FF0FF3318467047E8020020000004200014002010B44FF0DF
:2067200080414FF080520020C1F80C015E4BC1F81001C1F83805D2F80414C3F82015D2F89C
:206740000814C3F82415D2F80C14C3F82815D2F81014C3F82C15D2F81414C3F83015D2F8A1
:206760001814C3F83415D2F81C14C3F84015D2F82014C3F84415D2F82414C3F84815D2F8E9
:206780002814C3F84C15D2F82C14C3F85015D2F83014C3F85415D2F83414C3F86015D2F839
:2067A0003814C3F86415D2F83C04C3F86805D2F840043E49C3F86C050968D2F84424C3F808
:2067C0007025082924D04FF08043D3F80024D20744BF6FF00102C3F80024354AD2F88830F0
:2067E00043F47003C2F88830BFF34F8FBFF36F8F4FF01023D3F80022002A23DBD3F80432B5
:20680000002B1FDB2B4B2C4A1A605DF8044B70472A4B1B68002BD6D129482A4A2A4C046009
:206820002A492B4BFB20C2F818050A681B68294822F00F0203F00F0313434FF400720B6079
:206840000260C0E7244A0123C2F80435D2F80034002BFBD04FF0102312211F4AC3F80012DB
:20686000D2F80034002BFBD04FF0102312211A4AC3F80412D2F80034002BFBD000231649D4
:20688000C2F80435D1F80034002BFBD0BFF34F8F0749124BCA6802F4E0621343CB60BFF338
:2068A0004F8F00BFFDE700BF00C000403001001000ED00E0EC0200200090D00334010010D4
:2068C0008C56004000F0004048810300E40E0040580200104096024000E001400400FA05C2
:2068E000802802D1024B00221A600120704700BF04C500400120704730B5134C01232360D1
:2069000083B0FEF7ADFF6FF003031D1A03E0FEF7A7FFC54203D5D4F80031002BF7D00A4B66
