:020000040000FA
:2000000000000420C1170000E9170000EB170000ED170000EF170000F117000000000000D0
:20002000000000000000000000000000F3170000F517000000000000F7170000F91700008C
:20004000E92D0000CD250000E54D0000FB170000FB170000FB170000092B0000FB170000EA
:20006000C1390000FB170000FB170000F92E0000FB170000F92D0000FB170000FB170000DF
:20008000A92F0000FB170000FB170000FB170000FB170000FB170000FB170000FB1700000A
:2000A000FB170000FB170000FB170000FB170000FB170000FB1700000000000000000000D4
:2000C000FB170000FB170000FB170000FB170000FB170000FB170000FB170000FB17000090
:2000E000FB170000FB170000FB1700000000000000000000FB17000000000000FB170000A6
:200100000000000000000000000000000000000000000000000000000000000000000000DF
:200120000000000000000000000000000000000000000000000000000000000000000000BF
:2001400000000000000000000000000000000000000000000000000000000000000000009F
:2001600000000000000000000000000000000000000000000000000000000000000000007F
:2001800000000000000000000000000000000000000000000000000000000000000000005F
:2001A00000000000000000000000000000000000000000000000000000000000000000003F
:2001C00000000000000000000000000000000000000000000000000000000000000000001F
:2001E0000000000000000000000000000000000000000000000000000000000000000000FF
:2002000001F0FF01102A2BDB10F0070F08D010F8013B013A8B422DD010F0070F42B3F6D1A4
:20022000F0B441EA012141EA014122F007047FF000070023F0E80256083C85EA010586EA51
:20024000010685FA47F5A3FA87F586FA47F6A5FA87F68EB9EED1F0BC01F0FF0102F007024C
:2002600032B110F8013B013A83EA010313B1F8D10020704701387047002D06BF35460338AF
:20028000073815F0010F07D1013015F4807F02BF013015F4C03F0130F0BC0138704700BF73
:2002A00010B5054C237833B9044B13B10448AFF300800123237010BDA802002000000000D2
:2002C0009069000008B5034B1BB103490348AFF3008008BD00000000AC0200209069000009
:2002E000A3F5803A704700BF174B002B08BF134B9D46FFF7F5FF00218B460F461348144AB7
:20030000121A05F0A5FE0E4B002B00D098470D4B002B00D098470020002104000D000D480D
:20032000002802D00C48AFF3008004F0CDFD2000290000F0F7F904F0B3FD00BF00000800FB
:20034000000000000000000000000420A80200203C100020000000000000000000B585B059
:200360000346002101AA44F20100CDE90111039300F004F805B05DF804FB00BF72B6094BA3
:200380001B68DB0700D500BEBFF34F8F0649074BCA6802F4E0621343CB60BFF34F8F00BFFA
:2003A000FDE700BFF0ED00E000ED00E00400FA0572B6024A1368013313607047C4020020DA
:2003C000034A1368013B136003B962B6704700BFC402002010B50446006830B1002103F00A
:2003E00029F954F8040F0028F8D110BD10B590F84C10094A013180F84C1004460346802188
:20040000203000F06BFD054B22461978BDE81040002003F0A7B900BFED0300002D10002077
:200420002DE9F041038804463BB1B3F5867F0AD182290DD00120BDE8F0814FF4867323808E
:200440000120BDE8F081002303800320BDE8F08101F06AFABFF35F8F1649174B0E68002238
:200460000A601F781A70FFB2BFF35F8F134D01F05FFA28680028E0D0DFF8448003E055F8C3
:20048000040F0028D9D090F8463026FA03F3DA07F5D590F8453047FA03F3DB07EFD500F0EF
:2004A00043FD0028EBD02B6842461846022100F015FDE4E7D8020020DC0F0020400100204A
:2004C0002105000010B4094A094C13681943116021780346012202FA03F30B43DBB22370DD
:2004E00004485DF8044B03F05FB900BFD8020020DC0F00205401002010B5044690F84610DB
:2005000090F8450001F0CEF910B994F8440010BD01280ABF94F84400002080F0010010BDD0
:2005200070B5044600F000FD00B970BD04F12006304600F0F9FC05462046FFF7DDFF012857
:200540000ED00028F1D1002DEFD1304600F0D2FC0D4B224628461978BDE8704003F002B9F0
:20056000002DE2D0002530462346084A84F84C507E2100F0B3FC064B284622461978BDE893
:20058000704003F0EFB800BF2C100020ED0300002E100020F8B503F045F8304B304C18704C
:2005A00003F040F82F4B304F187003F03BF82F4922682F4B08700025FF2139727B60FD604D
:2005C000002A42D02B4E09E091F84600F9683A72834054F8042F0B43FB60B2B392F8463051
:2005E00092F84510926C03F01F0343EA41131F2BC6BF03F01F0331464FF0A04103F5E073C2
:2006000042F08C0241F82350236893F8461093F8450001F005F9226892F8463092F84500EA
:2006200003F01F0343EA4010012102F0C7F92168387A91F8452082424FF00103C4D0FF2869
:20064000C2D054F8042F002AC8D10B48002102F0F1FFBDE8F840044801F038B92E10002007
:20066000400100202C100020C80200202D100020C5040000000300505401002030B5174B9E
:2006800083B000221A6001F0F9FF00BB002002F011F8134B134A93E80300FF250090ADF83A
:2006A0000410062400231048ADF8005069468DF802408DF8043002F0B5FB58B901210A4836
:2006C00002F004FC084802F0F5FB03B030BDFFF745FEDBE7FFF742FEF0E700BFDC02002091
:2006E000A463000019070000AC630000014B1868704700BFDC02002008B5064A13680133C8
:20070000136000F01FFD00B908BDBDE8084000F0F9BC00BFDC020020042800D07047FFF7E4
:20072000EBBF00BF10B54F4C02F090FEFFF7A6FF03F056F902F0A0FF4B48002102F07AFFE3
:2007400000F092FB04F06EFB00F028FC03F0E2FB02F084FE03F046F801F002FB01F012FB4A
:200760002368022B11DC02F095FE4048FFF732FE04F082FB02F09AFF044604F085FB14F0E3
:20078000FF0FF7D102F08CFEF4E7394A39493A4802F0A2FE394803F017F82368022BE2DD19
:2007A000334A3449344802F097FE354B3548196802F092FE2368022BD5DD2D4A2D492E486F
:2007C00002F08AFE304B3148196802F085FE2368022BC8DD264A2749274802F07DFE2C4B25
:2007E0002C48196802F078FE2368022BBBDD204A2049214802F070FE27484AF6CD3102F011
:200800006BFE2368022BAEDD194A1A491A4802F063FE22481A2102F05FFE2368022BA2DD86
:20082000134A1449144802F057FE1D4B1D48198802F052FE2368022B95DD0D4A0D490E487E
:2008400002F04AFE184802F047FE2368022B8ADD164801F08FF92368022B84DD0A2002F09C
:20086000B1FF80E7A80100209801002034670000B4630000BC630000C4630000D4630000B0
:20088000B0650000F863000094650000086400008C64000014640000206400003C640000F7
:2008A000D40F00205C6400006C640000EC0F002070B590F82D50012D04460FD91F2502F0CA
:2008C000F5FF0246B0FBF5F1234601FB152104F10C00054ABDE8704000F000BBE91C012535
:2008E0008D40013DEBE700BF790900002DE9F04714460D468A6894F82C900646606BD2E9D4
:20090000007801F00FF9686802F0A2FFA968164801F0FCF91548294601F0F8F9606B01F044
:20092000D1F860B10023A3852046FFF7C1FF4B46324641463846BDE8F04701F0ADB904F140
:200940000C0000F0D7FA2146094801F0EBF82146084801F0DBF94B46324641463846BDE80F
:20096000F04701F099B900BF640100207C010020480300207001002008B32DE9F0470446CE
:2009800082B0406B01F09EF80546A8B1406802F075FF63490C2002F03DFD0121072002F002
:2009A0002BFD00F063F900280ADAAB6823B1052022462946FFF79AFF02B0BDE8F0877047C0
:2009C00002F074FCDFF85C8190F80290D8F8047002F06CFC064602F073FC01463046B847E0
:2009E00002F02CFDD8F818600746B04770BB002F4AD1D8F81CA0D04740BBD8F8087002F003
:200A00005FFCB84700285DD002281FD0AB68002BD2D00420CCE702F0C7FF6FF028031E1ADD
:200A200003E002F0C1FFC64202D5D0470028F8D0D04700285ED0D8F81030032101A8984712
:200A4000032803D19DF806304B4524D0AA68002AB2D094F82D300133DBB2052B84F82D30D7
:200A600094F82C3008D8127A9A4224D8224629460120FFF73BFF9FE70133DBB2002184F83E
:200A80002C3084F82D10EEE7D8F8086002F018FCB0470028B8D1AB68002B8DD094F82C3003
:200AA00000200133294684F82C3084F82D002246FFF71CFF80E72046FFF7FAFE686802F0FC
:200AC000C1FE79E702F070FF6FF018073F1A03E002F06AFFC74202D5D0470028F8D0B047A3
:200AE000002898D1D047002895D1D8F814309847002890D0A96800293FF45EAF94F82C30E3
:200B00000133DBB2002284F82C3084F82D200A7A9A42D0D8224629460220FFF7E7FE4BE743
:200B2000EC0F0020546500002DE9F04106460D200F4602F07BFC054601F04CF801210B2096
:200B400002F05AFC3C4800F0BDFFD0B1044603E001F00CF80446A0B12946201D00F0A6FF9E
:200B600003462046002BF3D0606B00F0F5FF07281EDD394630460123BDE8F041062201F0F7
:200B80008BB82E4801F0A6F804460028F1D02946201D00F085FF002304F13000C4E90C3089
:200BA000A38500F08BFF2448214600F08DFFDBE7234801F08FF8054650B3224801F08AF874
:200BC000A86008B302F01CFE6860C8B10520D5F8088002F019FCC8E9006710F0FF000ABFA4
:200BE000082388F8080088F80830606B294600F06BFF606B00F066FF854217D0BDE8F08112
:200C0000A968104801F082F80D48294601F07EF8606B00F0A1FF0028ABD12146064800F031
:200C200081FF2146054801F071F8A2E72046BDE8F041FFF73DBE00BF4803002070010020B5
:200C40007C0100206401002008B5054801F030F8044801F02DF8BDE80840034801F028B8E4
:200C60007C010020640100207001002010B501210B2002F0C1FB024BBDE810405B6818479D
:200C8000C4640000014B9B68184700BFC4640000014B1B6A184700BF54650000014B5B6ADE
:200CA000184700BF5465000010B50D4B82B01B6898470C4B04469B6A01A91920984701281B
:200CC0000BD0002C0198B8BF15248028D4BFC4EB0000C4F1800002B010BD002002B010BD87
:200CE000C464000054650000FFF71EBF00B583B002F0E0FA032802D103B05DF804FBFFF791
:200D0000C1FF0028F8DB0D2002F090FB1F4900F0CDFEE8B10C2002F089FB1C4900F0C6FEF7
:200D20000028E9D100F060FFB8B1072002F06CFB0028E1D00223ADF8043002F0B7FA144BC0
:200D40008278DB688DF80620032101A89847D3E702F074FB0028DDD1CEE700F06BFF0720D8
:200D600002F052FB18B90B4B9B689847C4E70223ADF8043002F09AFA054B8278DB688DF8EA
:200D80000620032101A89847EDE700BFEC0F0020546500009465000030B50D4C83B0A56AA1
:200DA00069461920A84748B901A90420A84738B100F008FFFFF748FF236A984703B030BD75
:200DC0000199E36A21F00201019104209847EFE754650000F0B5038883B0054633B14A2BED
:200DE00018D188291BD0012003B0F0BD1B4800F069FE044630B1A168201D00F089F92468C4
:200E0000002CF8D1164B01221A704A2301202B8003B0F0BD00230380032003B0F0BD0F48B6
:200E2000019200F04FFE04460028EED0019A031D9A4205D02468231D002CE6D09A42F9D1F2
:200E40000648084E214600F06DFED4E90523376832600BB1E06998473760D6E72804002092
:200E6000DD0F0020F808002010B5064B064800241C7000F023FE21460448BDE8104002F087
:200E8000D9BB00BFDD0F0020280400208801002070B50E4C049E25784661C0E9062304467D
:200EA00035B9A1600A482146BDE8704000F00CBE084D094B2E682B60043000F029F92E60DD
:200EC00021460348BDE8704000F0FEBDDD0F002028040020F80800208801002010B5044C2A
:200EE00082B024680094FFF7D3FF02B010BD00BFF808002010B50A4B1B7804463BB9C0E9E6
:200F0000033321460748BDE8104000F00BBE043000F020F921460348BDE8104000F002BEA3
:200F2000DD0F00202804002038B50C4B1D7804466DB90B4800F0C6FD38B1A04202D10BE081
:200F4000844209D000680028FAD1012038BDBDE83840043000F0F0B8002038BDDD0F002077
:200F60002804002010B50446C0B203F0F5FE204610BD00BF70B570B10E46451E002404E0C7
:200F8000A64206D003F0E8FE013415F8010F0028F6D1204670BD0446FBE700BF704700BF85
:200FA00010B5FFF7A3FB0B4B1A68D2E9003192680B44191A52B1D2E9003423441B1A926810
:200FC000994228BF1946002AF5D14318024A136010BD00BF300400202C0400202DE9F84365
:200FE000038805465BB3592B2CD187292FD0822920D12C4FDFF8B4803C684FF00009CCB152
:20100000002603E0A3682646A3B11C46204603F095FE0028F6D0E0682246882102F0A2FBD8
:2010200003464046002B2AD002F0BEFBA3682646002BEAD159232B800120BDE8F883194AE9
:201040001360F7E7002303800320BDE8F883154F3968002019B9EDE789680120D9B1CB68BC
:201060009342F9D000B139608B68002BE2D0D868904207BF9B688B6019469B68F5E7E36071
:20108000A3686EB1B3603B68C4F808902BB1FFF787FF3C68B3E73960CCE7034A1360C9E7CA
:2010A0003B60F1E7300400202C0400209801002010B50446104802F077FB1049E3680A687F
:2010C0004BB142B194420FD0134601E09C420BD09B68002BFAD10A4BA2601B68E3600C60F7
:2010E000BDE81040FFF75CBF054B1B68E360BDE81040FFF755BF00BF980100203004002009
:20110000F8080020014802F04FBB00BF9801002010B5044603F0FCFD2046BDE81040FFF7A6
:20112000C7BF00BF10B5044603F0FAFD2046BDE81040FFF7BDBF00BFC068B0FA80F040095A
:20114000704700BF024B1868003818BF012070473004002010B5124B19688142044614D07D
:201160000B462BB19A68A24206D01346002BF9D10023C4E9023310BDA2689A6049B1FFF772
:201180000FFF0023C4E9023310BD82681A60002AF5D1044B00221A600023C4E9023310BD5E
:2011A000300400202C040020014B1888704700BF9C02002000283ED0037A022B30B410D0C7
:2011C0000378022B15D00379B3B10024C37913F0030318BF012301B10C6002B1136030BC0E
:2011E0007047C579447A037965B90CB9012BF2D0DBB100231C46EEE7447A14F0030418BF69
:201200000124E3E7C4B1032D37D1032C2ED0022C24D143BB022D2DD00123032D24D1A4F1DA
:201220000204B4FA84F46409D5E7023C012C8CBF00240124CFE770474BB9022D08BF0123CF
:20124000EAD1A4F10304B4FA84F46409C3E7032D01D0022D02D123461C46BCE7002BC8D1C5
:20126000022DDAD1EDE701230024B4E7002BC0D10123D4E701231C46ADE7022DC7D1002B36
:20128000F1D1022C4FF00103DBD11C46A3E700BF30B500230B608B80437D0D46D9075CBF38
:2012A00001232B70037E012B83B0044623D901AA694604F11000FFF77DFF009B0BB10223FC
:2012C000EB70019B0BB102236B70E37D03F00303022B03D0032B14BF00230823AB70637EB7
:2012E00003F00303022B03D0032B14BF002308232B7103B030BDC37D9A0706D0437E9B0750
:2013000003D0C28B838B9A4202D000232375CEE701230375CBE700BF02280CBF0123072331
:201320000B441A78FF2A184603F1FF3303D18142F7D1012070470020704700BF30B583B03A
:201340006946FFF7A5FF9DF800309DF801509DF802409DF803109DF804209DF80500023392
:201360002B4423440B441344184403B030BD00BF70B4437882780578C478DB00120102F0C4
:20138000100203F008031343027905F0070564012B4304F020049201234302F040021343FD
:2013A0000B7043798579467AC479027A03F001036D0043EA861305F00205A0002B4300F05B
:2013C0000C001201034302F03002134370BC4B70704700BFF0B583B00E4607466946FFF7B3
:2013E00057FF314607F11000FFF7C2FF9DF80030012B04BFBB7EB3709DF801300CBF03229B
:201400000222022B08D1BB8BB354531CB98BDBB2090A0232F154D2B29DF802304BB35D1EC5
:2014200013443D44DBB214460132D2B215F8011931559A42F7D19DF80320022A08D1FA8BA3
:20144000F2545A1CF98BD2B2090A0233B154DBB29DF8040078B1C41D18443C44C0B21A469D
:201460000133DBB214F80159B5549842F7D103B0F0BD1346DFE7184603B0F0BD30B40278FF
:20148000437802F00700C2F3C005C2F300140870C2F34010C2F380124D708C7003F00105DF
:2014A000C3F34004C8700A71C3F38100C3F301129B094D718C71C87130BC0A724B7270470B
:2014C000012943DD2DE9F04186B00F4603A914460546FFF7D3FF03AB03CB9DF811201B88F2
:2014E0002383206161616AB3AE1C03A802AA01A9FFF760FE9DF81380B8F1000F43D0029B37
:20150000002B31D1B8F1020FA38367D0B8F1030F4DD09DF81580B8F1000F2CD0019BBBB9C1
:20152000A38BE383B8F1020F4DD0B8F1030F31D0701B3B1A8742C4E90E6300DA002006B00D
:20154000BDE8F081AB78A376EE1CCEE700207047717816F8023B029A03EB01239BB2E3830E
:20156000002ADFD1A383DDE7727816F8023B03EB02239BB2C6E71E4904F1080000F090FA87
:20158000A4F81E80D4E71A49204600F089FAA4F81C80BEE706F10800034604F1080213F8EB
:2015A000011D02F8011BB342F9D10646C0E706F108000346621E13F8011D02F8011FB34245
:2015C000F9D10646A5E70A4904F1080000F068FA7378237216F8023B6372A9E704492046E4
:2015E00000F05EFA7378237016F8023B637090E7D064000030B591B001F048FE044601F0C4
:2016000059FE6A4601462046FFF75AFF00283ED0044601F01FFED0B39DF810100B2001F0E5
:20162000EBFE9DF81310072001F0E6FE9DF817308BB1BDF81C50FFF7B7FD854205D0BDF8D9
:201640001C204FF6FF739A4221D19DF817006946FFF762FEB0B102A90C2001F0DBFE9DF881
:2016600015303BB14FF6FF71062001F0C5FE204611B030BD9DF81A10062001F0BDFE20469F
:2016800011B030BD69460D2001F0C4FEE3E74FF0FF34ECE7F8B505460B2014460E46A8473E
:2016A00000232074A37496B3E37463750820A847002701232376A07567740620A847A076CE
:2016C000FFF772FDE0830920A84701280CBF3B4603236376FFF768FDA0830A20A8470128F6
:2016E0001AD066B90323E375637E022B0CD0E37DA3F10203B3FA83F35B092375F8BD022387
:20170000E375637E022BF2D101232375F8BD0720A8476675E074C9E7E775E5E730B591B0EC
:201720000546FFF741FD4FF6FF74A0423AD040220021684604F08CFC01F080FE6A46014673
:201740001A48FFF7A7FF01F079FE18B3ADF800400C2001F06BFE014602A800F0A1F901F081
:2017600095FD0E9001F0A6FD034668460F93FFF7E5FD044615B9204611B030BD01F03AFDE0
:2017800080B101F093FD01466846FFF723FE204611B030BD0D2001F049FE0146684600F02D
:2017A0007FF9D5E74FF0FF34E5E700BF093400000120FFF7B3BF00BF0020FFF7AFBF00BF30
:2017C0000649074A074B9B1A03DD043BC858D050FBDC03F085F9FEF787FD00009C6900003D
:2017E00000000020A8020020FEE7FEE7FEE7FEE7FEE7FEE7FEE7FEE7FEE7FEE700F01F03FB
:201800000121C0F34710994000F066B808B501F039F800B108BDBDE8084000F0E9BF00BF1C
:2018200030B583B01446022301F01F0100228DF8063014F00C0341EA4015ADF8042006D0F1
:20184000042B25D0082B27D00C2B02D103238DF8043014F0030304D0022B15D0012B02D162
:2018600003238DF805300E4A01A9284601F014F82306284603D401F00DF903B030BD0121F4
:2018800001F09CF803B030BD01238DF80530EAE701238DF80430DCE702238DF80430D8E737
:2018A000FD17000001F01F0141EA40101F28CABF054B4FF0A04300F01F00D3F8101521FA2C
:2018C00000F000F001007047000300500146014800F0FAB83404002070B505460C480E467B
:2018E00000F0F0F890B1044601E0246874B1237AAB42FAD1E36816EA0301F6D06368284650
:20190000002BF2D098472468002CF0D170BD00BF3404002008B5034800F0D0F8BDE8084091
:20192000FFF774BF34040020EFF3108072B6704780F31088704700BF032824D8124B00EBE5
:2019400040001A181B5C9178527803F01F0343EA421361B11F2BC6BF0C4903F01F034FF0AA
:20196000A041012202FA03F3C1F80C3570471F2BC6BF064903F01F034FF0A041012202FA4E
:2019800003F3C1F8083570478463000000030050032824D8124B00EB40001A181B5C917809
:2019A000527803F01F0343EA421361B11F2BC6BF0C4903F01F034FF0A041012202FA03F346
:2019C000C1F8083570471F2BC6BF064903F01F034FF0A041012202FA03F3C1F80C35704741
:2019E000846300000003005070B41A4A1A4D0023012440FA03F1C90712D59178B9B1117895
:201A0000567801F01F0141EA46111F29C6BF01F01F012E464FF0A04604FA01F1C6F8081523
:201A20000133042B02F10302E3D170BC70471178567801F01F0141EA46111F29C6BF01F00C
:201A40001F012E464FF0A04604FA01F1C6F80C15E6E700BF84630000000300500E4A30B4FC
:201A60000E4D02F10C0403201378517803F01F0343EA41131F2BC6BF03F01F0329464FF069
:201A8000A04103F5E0730332944241F82300EBD130BC0F20FFF7A8BF846300000003005045
:201AA0000B684A6842600360704700BF08B5082204F0B2FAB0FA80F0400908BD0023036051
:201AC000704700BF006870470368DBB110B4002400E0134699420FD01A681C46002AF8D1C8
:201AE00000230B600368CBB11A461B68002BFBD111605DF8044B70470A686CB12260002298
:201B00001A60EDE700230B6003684BB11A461B68002BFBD1116070470260F0E70160E8E717
:201B20000160704703689BB110B4002400E0134699421A6805D01C46002AF8D15DF8044B8A
:201B4000704734B1226000221A605DF8044B704770470260F7E700BF03682BB100201B68D0
:201B60000130002BFBD170471846704700B10068704700BFF0B170B50024104E054654B14A
:201B8000E3070DD5295D304601F0A6FC072C10D00134002CF4D12978304601F09DFCF7E732
:201BA0002E2001F00FFE295D304601F095FC072CEED170BD024801F08FBC00BFE8640000AB
:201BC000D864000008B501F071FE014B187008BDDE0F0020034B197806204A1C1A7001F020
:201BE0000BBC00BFDE0F0020F8B5FEF77FFD104E0746344600250C2001F018FC2146FFF75C
:201C000055FF103420B90135102DF4D10020F8BD062006EB051501F0F7FB2B7B8342F5D101
:201C2000A868381AB0F5206F8CBF00200120F8BD38040020F8B5174E0024374635460C2017
:201C400001F0F4FB2946FFF731FF1035F8B90134102CF4D10F2407EB0414254654F8100DD2
:201C60006168A268E368A6420FC5F6D1062001F0CBFB3873FEF73AFD0346BB600C2001F08E
:201C8000D5FBBDE8F84001460248FFF709BF002CE1D1EBE73804002040B120B40D461146CD
:201CA0001A46034628465DF8045B1847704700BF10B5044642884068002104F0C9F9238881
:201CC0006288A06802FB03F2BDE81040002104F0BFB900BF30B44588ADB14368002202E021
:201CE0000132AA420CD0194601330C78002CF7D101230B700588806802FB050030BC704725
:201D0000002030BC70472846F8E700BF30B44488826854B18A420CD00588002301E0914249
:201D200008D00133A3422A44F9D14FF0FF3030BC704700234268D15C0029F6D00020D0543C
:201D400030BC704783688B4208D84288008800FB023081422CBF002001207047002070474C
:201D6000054B10B51B689847044B5B689847044BBDE810405B681847546500008C640000EC
:201D800094650000034A04499079D37903EB00230B807047EC0F0020D40F0020064B074A48
:201DA00001211960D2F8503513F0FF03FAD1C2F8FC3F0120704700BF10100040001000402D
:201DC000A1B1192810D8DFE800F00D770F0F6E65605B453F0F3A0F0F0F36322E2A0F262290
:201DE0001E1A17130020704701207047022070477D230B60002070470020086070471023A5
:201E00000B60002070470A230B600020704720230B600020704703230B60002070470823F9
:201E20000B6000207047D8230B60002070471A230B60002070470B230B6000207047244BC5
:201E40001B780B6000207047224B93F900300B6000207047204B214A012082B01860136826
:201E6000002BFCD00020106012681D4B0192019AD3F8483503F07F035B420B6002B070479D
:201E8000184B5B790B6000207047164B5B780B6000207047134BDB7800200860002BA1D07E
:201EA00001230B6070470F4B1B7800200860002B98D004230B607047094B0B4AD3F80835DA
:201EC000A2FB03239B080A33DBB20B6000207047DF0F0020E00F0020141000401C110040A2
:201EE00000100040BC010020CDCCCCCC0120704770B582B0FFF718FDBFF35F8F1C4B1B78B0
:201F0000ABB11C4B1C4902224FF0FF34C1F80843C3F88021C3F88020BFF34F8FBFF36F8F08
:201F2000BFF35F8F02B0BDE87040FFF701BD134903F0FF020A600968114B019101991A6019
:201F40001A680D490B4B00924FF0FF3502224FF44054009EC1F80853C3F88021C1F8044345
:201F60001A60BFF35F8F02B0BDE87040FFF7E0BCBC01002000E100E000100040301100403F
:201F800034110040144BD3F8FC0F28B1D3F85035DBB2032B01D000207047104B1B7803F01A
:201FA000FF0073B10E4B1B78053B7A2BF3D80D4B1B68002BEFD10C4B1868B0FA80F0400962
:201FC0007047074A1378053B7A2BE5D892F8800080F00100704700BF00100040BC010020AE
:201FE0003805002030110040341100400D2801D001207047042A05D121B1034B1B680B608E
:202000000020704702207047BC05002070B51B4CD4F85055EDB2032D82B028D0184B194875
:20202000194AC4F804051949C3F8102501264FF00062C3F81415C3F80465C3F80425FFF77C
:2020400057FFD4F8003243F01003C4F80032D4F80032022D43F40023C4F8003209D00C4B53
:202060000C4A002119601B680193019B166002B070BD094B1E6002B070BD00BF00100040A8
:2020800000F0014038050020381100404C80004058110040041000400810004070B52F4D27
:2020A0002F49304A304B00242C6084B02D680095009D0C600968019101991460126802927D
:2020C0002A4D029A1C6029781B6803934B1F7A2B039A38D88C1E2246691C03F0ABFF2B1983
:2020E0005B783F2B2DD89B00DBB2214E214A3370D2F84835204A03F07F035B425BB299B2DE
:202100000420137001F078F93178032001F074F91A4B2A781A491A74D1F84C055860D1F8F9
:20212000481599605200DA605D68104881220021023D1D6003F08CFFFFF768FF204604B02B
:2021400070BDFF23D1E781222146284603F080FFFFF75CFF204604B070BD00BF38110040AE
:202160000C110040341100403011004038050020DF0F002000100040E00F0020BC05002051
:202180000080004010B5038804461BB340F2D332934224D1822901D0012010BD124A1378C5
:2021A000053B7A2B16D8114B1B6813B992F8803083B102F069FE01F0B1F801F067F880214F
:2021C000FFF76CFF002805DD80B201F059F8084BDB68984740F2D3332380012010BD0023BF
:2021E0000380032010BD00BF38050020301100408C6400007D2910B50C4609D801460A48A8
:20220000A31C00F8013B224603F014FF002010BD064A0749074801F05FF921467D220648E4
:2022200001F05AF9012010BDD0050020F064000000650000C46300000465000070B4164BA9
:202240001649174C0F22C3F810258A780A3A02EB8202C3F808250879CD798A794979120658
:2022600042EA0522024342EA0142C3F86C2640F2022600250B48C3F834657F2140F20122EF
:20228000C3F83845C3F83C55C3F81405C3F81815C3F8502670BC704700100040BC010020BD
:2022A000211001000800000608B5084BD3F8FC2F1AB1FFF7ABFE012008BD0122C3F8FC2F7F
:2022C000FFF7BCFFFFF7A2FE012008BD0010004030B585B0FFF7E8FF104A11491148124C1F
:2022E0000023136015680395039D0B600D680295029D03600368019301230198236001E0FA
:202300000B6813B91368002BFAD0044A044B10681B68B0FA80F0400905B030BD48110040D8
:20232000441100404C1100402C10004010B5072867D8DFE800F01A2A666648525A04364A7D
:202340003648C9B25171D0F8FC3F5BB11179D479937952791B0643EA04230B4343EA0243D0
:20236000C0F86C360024204610BD01294FD000294AD12B4A294B01211160D3F8504514F03F
:20238000FF04FAD1C3F8FC4FEDE7A1F10B030F2B3AD8214A214BC8B29070D3F8FC2F002A38
:2023A000E0D01F4A01201060D3F8504514F0FF04FAD10A3901EB8101C3F8FC4FC3F80815B2
:2023C000FFF772FFCFE731F007041DD1124BC1F380011970FFF78CFDC5E731F0010413D176
:2023E0000D4BC9B2D970204610BD0B4A0B4BC9B25170D3F8FC2F002AB4D0C3F80C15002403
:20240000B1E70124204610BD0224204610BDFFF74BFF0024A7E700BFBC0100200010004095
:202420001010004010B57D2884B04BD82C4CFFF73BFFE378002B3FD163782A4A2A49DBB2EE
:202440000120C2F80C350860D2F85035DBB2022BFAD12649264BC2F8043500230B60086853
:20246000019001980B66086E029002988B648B6C0393039BD2F8003223F01003C2F80032F7
:20248000D2F80032012143F48023C2F80032116001F08AFA6FF002031C1A01F085FAE04246
:2024A000FBD4104AD2F85035DBB20B2BFAD0FFF7ADFD002004B010BDFFF70AFF0028BBD123
:2024C0000220F7E70B4A0C4904460C4801F004F821460B4801F000F8012004B010BD00BFC3
:2024E000BC010020001000400C1000400C110040D0050020F064000000650000C463000021
:202500002065000010B50C46FFF774FE2046BDE81040FFF787BF00BF10B51A491A481B4A72
:202520001B4C00230B6003704B6023708B6082B0CB600B741360136800934FF08043012189
:20254000009819601368002BFCD0002414601368019321460F48019B01F06CF82146812298
:202560000D4803F075FD0D4B0122C3F8FC2FFFF765FE0B4A1378DBB21370FFF7B9FC2046E6
:2025800002B010BDBC050020DF0F002000010040E00F0020AC010020380500200010004003
:2025A000BC010020074A1378053B7A2B07D8064B1B6813B992F88000704701207047002045
:2025C000704700BF3805002030110040154B1B7803B1704700B503F0FF02134B196883B08E
:2025E00029B9124B1A6882B903B05DF804FB1A601B6800930E480F4B009A012283F88020C0
:2026000003B05DF804EB01F0CFB819601B68019381220848019B03F01BFD03B05DF804EB2A
:20262000FFF7F4BCBC0100203011004034110040AC0100203805002010B568B90E4CA3689C
:20264000012262703BB1D3E900230020A2609847A368002BF7D110BD0128FCD1064C23691A
:20266000A070002BF7D0D3E900230120226198472369002BF7D110BD5006002010B50B4C18
:20268000237882B013B1852002B010BD08486360A3602361E36000F03BF8019000F044F8C8
:2026A00001980123237002B010BD00BF500600203926000038B5154DAB78044673B110B116
:2026C0004368012098470020FDF772FEEB680133EB600020BDE83840FDF772BE03F0FF00A6
:2026E000FDF766FE64B12A6942B1944208D0134601E09C4204D01B68002BFAD122602C61C5
:20270000EB68002BE2D100F025F8DFE750060020044A137923B901211060918018467047D1
:202720008520704764060020084B1A68D20704D4C02283F8002301221A60054A4FF08041C1
:202740000123C1F818351370704700BF00E100E02F10002010B4094B094A0021196083B0FE
:202760001B680193019C4FF0804102200123C1F80403136003B05DF8044B704704010040D9
:202780000800004010B5174B1A6882B062B10021154A19601B68507900934FF08041012307
:2027A000009CC1F8083398B1104B1A68BAB100221A601B6801934FF0804202210A4B019833
:2027C000C2F808131B68012002B0BDE810401847116853718847054B1A68002AE7D102B008
:2027E00010BD00BF00010040640600200401004030B41F4C94F86A3082B0002B33D104F172
:202800002F03204604F15F01FF2203F8012F8B42FBD14FF0FF3222600123072B88BFE1185E
:2028200003F1010340F8042F88BF81F858200C2BF3D11049104B0020C0228880606683F803
:20284000062340221A600D4B0D4A18601B680193019D01214FF0004384F86A10C2F804330C
:2028600002B030BC7047082002B030BC704700BF6C060020D006002000E100E07C61004061
:2028800000600040034B93F86A00003818BF0120704700BF6C060020F0B4454F3B1893F906
:2028A0003030002B5DDA91F802C0CCF3400CBCF1000F0CBF0823002307EB8304A4F1040415
:2028C0000CBF0C26082602E001339E424CD954F8045F0135F8D13C1847F8232084F8303052
:2028E000BCF1000F4FD08A7854071AD4D5074ED41F284C7887BF2F4D00F01F0202464FF04F
:20290000A04502F5E072A40045F822402A4DC40800F0070C2E5D012202FA0CF232432A5564
:202920008A7812F0020222D09B0003F1804303F5C0430978D3F8104524F44F3424F4407448
:20294000C3F8104502020904D3F8100501F4403102F47C520A430243C3F810250020F0BCFE
:2029600070470820F0BC70470420F0BC7047083B1F44097897F8603043EA811387F8603078
:202980001046F0BC7047FA1882F85800ABE71F2887BF084A00F01F0404464FF0A04202EBBE
:2029A0008402D2F8004724F00204C2F80047ADE76C06002000030050D006002070B4324C54
:2029C000251883B095F93030072B22DD234493F858309B09032B46D0012B0CBF4FF400329A
:2029E0004FF440321F288ABF284B4FF0A04300F01F0003EB8000D0F8003723F44033C0F83F
:202A00000037D0F800371A43C0F8002703B070BC7047DAB2072AF9D8980000F1804000F5E2
:202A2000C04003F140029200D0F8106592B202F1804202F5C04246F00106C0F81065002015
:202A4000106012680192019A0029DFD095F9302054F82220002AD9D00D49012202FA03F3DC
:202A6000C1F80433D2E71F288ABF084A4FF0A04200F01F03D2F8102598BF0346DA4002F0ED
:202A8000010202321204ADE76C0600200003005000600040194B034493F93030072B13DD17
:202AA0001F288ABF164B4FF0A04300F01F0003EB8000D0F8003723F44033C0F80037D0F846
:202AC0000037C0F800377047DAB2072A14D810B49A0002F1804202F5C0420A4CD2F810052F
:202AE000012120F0010001FA03F3C2F81005C4F808335DF8044B7047704700BF6C06002089
:202B000000030050006000402DE9F04F002289B0CDE9022216461546704B714C714801222D
:202B200004E0043383424FEA420211D019680129F7D1D4F804131142F3D01D60196800915C
:202B40000433834246EA020600994FEA4202EDD1654B1A68012A07D016F0FF0F17D1002E0F
:202B600032DB09B0BDE8F08F00221A601B6801934FF0A042019BD2F810255C4B0292D3F8F6
:202B80001035039316F0FF0F1ED046F00046584F01250024A30003F180432E4203F5C04326
:202BA0004FEA45050BD0D3F8100557F82420D3F81015C0F30520C1F3014102B190470134C7
:202BC000082CE7D1002ECCDA4FF0FF33494D0DF1100ACDE906330022CAF804200492A5F1F3
:202BE0006408454C0027012614F9010B431C32D0C0F3C20E08AB03EB0E0C00F007031CF8C4
:202C0000081C06FA03F31942C2B200F03F0022D008EB0009910999F9309058F82990B9F10F
:202C2000000F4CD003294CD01F288BBFDFF8BCE04FF0A04E02F01F0202460EEB82021CF804
:202C400018ECD2F800C71EEA030FCCF3014C1BD1BCF1030F3CD0A542C6D1002F81D04FF0C5
:202C6000A0430299D3F81035204A9942D2F8102503D1039991423FF474AFDDE90401CDE968
:202C80000232CDE90601ACE7BCF1020FE3D1032904D0B9F1000FDED0C847DCE74FF4403C46
:202CA000D2F8003723F44033C2F80037D2F8003701374CEA0303FFB2C2F80037E9E7032985
:202CC000C9D11AF80EB04BEA030B0AF80EB0ABE70329DED14FF4003CE2E700BF0061004072
:202CE00000600040206100407C610040000300506C060020D0060020CC06002010B54FF085
:202D0000804386B0D3F80443620705D5D3F8082103F58473002A4ED1A30603D52A4B1A68C1
:202D2000002A3FD1600603D5284B1A68002A2FD1210602D5264B1A680ABBE20502D5254B18
:202D40001A6892B9A3050ED5234B1A685AB100221A601A68214B0592059A1B68022006B005
:202D6000BDE81040184706B010BD00221A601B4A1B68049301201368049A9847E2E700205F
:202D80001860164A1B6803931368039A9847D4E700221A60124A1B68029301201368029A48
:202DA0009847C5E7002018600D4A1B6801931368019A9847B6E700221A600A4A1B680093EA
:202DC0001368009A9847A7E714010040180100401C0100402001004024010040E00600209A
:202DE000DC060020D806002008B5FFF787FFBDE80840FFF7C7BC00BF074B0849084A002060
:202E0000186082B01B680193019BD1F808051368C0B202B0184700BF00D1004000D00040A1
:202E2000E406002070B443791E4C1F4E03EB430546F82320655D8DBB90F904308A78002B26
:202E400024DB03F1604303F561435201D2B283F8002390F90430002B07DB144D03F01F0688
:202E600001225B09B24045F8232003680A88C3F8082543790879C97803EB4303E2180125A2
:202E800050709170E554002070BC7047084D03F00F0352011D44D2B22A76DAE7082070BCEE
:202EA000704700BFE8060020EC06002000E100E0FCEC00E00368044A01211960437903EBF5
:202EC00043030221D1547047E806002010B403680022C3F8002183B0D3F800310268019345
:202EE0000123019CC2F8443311B10268C2F8043303B05DF8044B70472DE9F041274F284E82
:202F0000DFF8A08084B000244FF48035D7F804332B4211D056F824200023E0B262B1C7F8FD
:202F20004853C7F8085346F8243056F824300393D8F80030039A98470134032C4FEA4505AF
:202F4000E4D1164BD3F80423D10702D5D3F80021C2B9124BD3F80423920710D5D3F8042196
:202F60006AB10022C3F80421D3F804210D4B0192019A1B68052004B0BDE8F041184704B079
:202F8000BDE8F0810022C3F80021064AD3F80031029304201368029A9847DAE700B0004071
:202FA00040B10040EC06002010B5074C236882B03BB1064B1B689847002323602368019395
:202FC000019B02B010BD00BF00010140F006002070B5114B114A1D781160DDB9104E02786F
:202FE00001211970C6F80C25416804464FF47A720023C803490C02F093FEC6F80405237AEB
:20300000084A5B01DBB282F810334FF480331360284670BD082070BDE20F0020F006002038
:203020000000014000E100E0044B054901220220C3F804231A600870704700BF0000014021
:20304000E20F002010B504460020FDF7B1F90E4A1378072B11D80D492370581C1070D1F8EE
:203060000805012202FA03F30343C1F8083500240020FDF7A5F9204610BD04240020FDF7AD
:203080009FF9204610BD00BFE10F002000000140034B044A00F5C07043F82020704700BFA3
:2030A000000001403546526E014B00221A607047F406002010B5044600F030F90D4A0E4B03
:2030C0001188186800F03AF974B121460D2000F0A1F90A490C2000F09DF9094B00210846A9
:2030E0009B689847012010BD06490D2000F092F9EFE700BFFC0F0020F80F0020EC0F002007
:203100008C640000D064000030B50E4B1C6883B0B4B100F0BBF8054600F0CCF801460C201C
:20312000019100F083F900900D2000F07FF9DDE900210346A446284603B0BDE83040604775
:2031400003B030BDF4060020014B1860704700BFF4060020704700BF704700BF002070479E
:20316000002070470020704701207047704700BF0120704701207047704700BF0020704756
:20318000704700BF00207047704700BF704700BF0020704701207047012070470020704798
:2031A000704700BF2DE9F0410E4A0F4B16781F88F419802C03DD00242046BDE8F081DFF85B
:2031C000308032464146054602F034FF074B1B7833443A46A81958FA83F102F02BFF2046EB
:2031E000BDE8F081E30F0020D60F0020D80F0020F806002070B4134B134D144A2C781B7806
:203200001288234452FA83F39BB21A18802A15DC013B1BB2002B0CDB0D4A591C1E1811445F
:203220003244013B11F8016D02F801691BB25E1CF7D120442870012070BC7047002070BCA6
:20324000704700BFD80F0020E30F0020D60F0020F8060020084A138883420BDB10B4074910
:203260000C8880B21B1A20440880138001205DF8044B704700207047D60F0020D80F002075
:20328000014B1880704700BFD60F0020044A054B12781B780448134450FA83F0704700BF3E
:2032A000D80F0020E30F0020F806002000487047F8060020014B1888704700BFD60F002053
:2032C0000549064A064B127808781B88104453FA80F080B2704700BFE30F0020D80F002080
:2032E000D60F002010B50A4B0A4C0B49002220461A605A609A60DA601A615A61FEF7D0FB1F
:2033000004F108000449BDE81040FEF7C9BB00BF1010002000100020D064000004480549F8
:20332000054A002303800B801370FFF7DBBF00BFD80F0020D60F0020E30F002070B580294F
:2033400082B00B4A0B4D0C4E01900C464FF0000328BF8024137033802B80FFF7C3FF019951
:203360000648224602F066FE20462C8002B070BDE30F0020D60F0020D80F0020F806002014
:20338000F0B40C4B0C4A1C685D689F68DE68C6600460456087601C695D694561046154681E
:2033A0009068D36812680A604C608860F0BCCB60704700BF101000200010002070B40C4B2A
:2033C000026844688568C668DE601A605C609D60026944695C611A61064B0C6848688A6894
:2033E000C968D9601C6058609A6070BC704700BF1010002000100020024B23F8101001207A
:20340000704700BF10100020014B33F8100070471010002008B5044B0C3803EBC000FEF785
:203420003FFB012008BD00BF00100020024B0C3803EBC000704700BF001000200149024804
:20344000FEF734BBD06400000810002008B5FEF761FABDE80840FEF701BB00BF08B5FDF701
:2034600099F8002000F028FA01F08AFC00F002FC4FF08052064BD2F8A800D2F8A4205A6008
:203480004CF6F4613622D87019809A7008BD00BFEC0F00200148002100F0CCB8F0010020C4
:2034A00010B5FEF741FA0446BFF35F8F00F050F900B930BFBFF35F8F2046BDE81040FEF75C
:2034C00037BA00BF0AB90020704708B508461146FDF750FD002008BD0FB400B583B004AAC1
:2034E000054852F8041B019200F0CCFD03B05DF804EB04B0704700BFD00100202DE9F84367
:20350000DFF8A880D8F80040844205460F4645D0002C36D0234601E0002B32D01B689D4216
:20352000FAD173B3204EAB7BD6F80090F3B10023AB73002C34D0A54209D0A37B13F0010FA2
:2035400020462A464FF0870101D000F031F82468002CF0D1AB683BB1BD4205D035600022E1
:20356000832105F10C009847D8F80040A5420AD02CB12368AB420CD01C46002CF9D1C6F8AE
:203580000090BDE8F8832B68C8F80030C6F80090F7E72B682360C6F80090F2E72346C0E77F
:2035A000AB68002BD8D1EAE7F8080020FC0800208368BBB170B504460B4E0220A073346027
:2035C00004F10C000D4698470238012804D9832D02D00123A37370BD21462046BDE870406D
:2035E000FFF78CBF704700BFF808002038B50B4A0B4B146800221A707CB1012501E0246874
:203600005CB1E37B002BFAD0E581204600228221FFF7CEFF2468002CF3D138BDFC08002061
:20362000E70F0020024B1878421C1A70704700BFE50F002070B50E4D2C68844207D00A4624
:2036400034B1234600E01BB11B689842FBD170BD0028FCD0074E0460012100233468817398
:20366000838181212860FFF7A3FF346070BD00BFFC080020F808002030B4074B07480849EA
:20368000084A094C8A251D70002303700B601360237030BC704700BFE50F0020E60F0020B5
:2036A000FC080020F8080020E40F00202DE9F041224D2B78FBB9224E3378C3B12148224C40
:2036C000027802EB420704EB8701013202F01F02013B0270886814F82770D1F80480DBB262
:2036E000337058B1812F1ED0827BD2071DD428781844BDE8F081FFF779FFDCE7134A14689D
:203700005CB9F4E7A37B13F0010F20464246394601D0FFF74DFF24685CB12B78002BF1D0E0
:20372000FFF764FFEEE70123837342463946FFF73FFF337828781844BDE8F081E70F002033
:20374000E60F0020E40F002078070020FC080020024A034B10781B7818447047E60F0020A1
:20376000E70F002070B40D4D2C78202C12D00C4B0C4E1B78234403F01F0303EB43030134BA
:203780002C7006EB8304C4E9012006F82310002070BC7047012070BC704700BFE60F00203B
:2037A000E40F00207807002018B1837B013B012B00D97047024A01231370C373704700BFF9
:2037C000E70F0020FDF7CEBB10B5044602F048FC01462046FDF7CEFBBDE810400A20FDF794
:2037E000C1BB00BF08B50448FEF762FABDE808400248FEF75DBA00BFE4010020D801002034
:2038000038B50E48FEF766FA044678B10C48FEF761FA0546206058B1FFF7C4FC05F19A01DE
:20382000A5F8800005F18200FFF7AAFD204638BD214602482C46FEF769FAF7E7D8010020A9
:20384000E4010020006800F19A018230FFF798BD10B5014604460748FEF774FA00B910BDE4
:2038600021680548FEF752FA21460248BDE81040FEF74CBAD8010020E401002010B5014686
:2038800004460948FEF75EFA00B910BD2468B4F880102046FFF752FD04F19A0104F1820040
:2038A000BDE81040FFF78ABDD801002008B501F05DFB80B208BD00BF0F4B0121002219600A
:2038C0001946C3F80021D1F80031002BFBD0D1F80805094A0023C0B2C1F80031D2F800311A
:2038E000002BFBD0D2F80815012340EA012080B2536001F00DBB00BF00D000400023013AB1
:203900000271016043718371704700BF10B4817942790479521A224208D003464A1C006800
:203920002240405C9A715DF8044B70474FF0FF30F9E700BF10B4164A164B174900201060A1
:2039400083B012680192019AD3F8102522F00F0242F00802C3F81025D3F8082542F003020E
:20396000C3F80825D3F804254FF4803422F003024FF48070C3F80425C3F80443C1F880010A
:20398000086001221A6003B05DF8044B704700BF408100400080004000E100E0014BC3F8CC
:2039A0004005704700800040034A044B01211160D3F84405704700BF4480004000800040CE
:2039C000064B1A6802B97047002282B01A601B680193019B02B000F005B800BF4081004002
:2039E000FFF7A8BF10B5084C206858B1D0E90131002222609847236823B1BDE8104018687E
:203A0000FFF7CCBF10BD00BF800E002010B4174B83B000220124ADF8042000921946C3F8D6
:203A20002CD61C60D1F80031002BFBD0002401230E4AC1F800414B60D2F80431002BFBD0DE
:203A4000002401230949C2F804419360D1F81431002BFBD002AB03EB40000023C1F81431DA
:203A600030F9080C03B05DF8044B70470070004001207047802801D00120704730B4144BDF
:203A800014490120C3F8000500224FF4003509240720C3F81855C3F810450825C3F81425A1
:203AA0000224C3F82815C3F820050320C3F82425C3F83815C3F83055C3F83425C3F8F04595
:203AC000C3F8F425C3F8300630BC0120704700BF00700040001202002DE9F0410488752C66
:203AE000064607D07C2C37D0A4B1002303800320BDE8F081DFF8D0802E4D98F800202E4FF1
:203B000000233B602B6012B32C4CE256002A41DB2B6832E02A4F274DFFF784FD294B3A6882
:203B200018702C60002A43D02346244C984604F8038000219368802098472B6801332B6011
:203B400057F82320002AF2D1DBB21F4A1370752333800120BDE8F0811A4B1B788B4216D13F
:203B6000144D164CDFF86080134F2B683A68E15C01F07F010132E1543A6098F800200133A0
:203B800093422B60C1DB3B68002BB9D1DFE70120BDE8F0810A4A0B4952F8232009780020FE
:203BA000FFF7E0FD0028E0D17C23338001209FE71346CAE7880E0020840E0020F40F0020CB
:203BC000C401002030100020E80F002070B50488672C06461BD0792C33D05CB300230380B1
:203BE000032070BD1E4C1F4923681F4A0978581C002520602846D554FFF7B4FD1B4B2A4601
:203C000018688521FFF7AEFD30B300232360184C134D06E00A28E5D00D28E3D02B687E2B9F
:203C200015DD2046FFF772FE431CF3D167233380012070BDFFF7F6FC0A4A094B10701C608C
:203C4000E5E7852901D0012070BD054CDDE706495A1CC8542A60E4E779233380012070BDE3
:203C60000C0F0020311000208C0E0020F8080020100F002008B5054905488022FFF73EFE63
:203C8000BDE8084003480021FFF7D4BC180F0020100F00200002002070B5038804463BB1B7
:203CA000942B13D12548FDF747FA98B9012070BD234B0C21DB6A012098472248FFF744FAA2
:203CC000214B1A884FF229239A422DD000232380032070BD1D4D0020FDF72EFE284601231E
:203CE00000F8023B1A49FDF7DBFE1A491A4A0D601A4B64210026A9810E21DB681180AE72CE
:203D000030469847164A17491748FFF7E5FB1748FFF75AFD3046FDF73BFE0848FDF702FACA
:203D200094232380012070BD114B044801224FF420711A80FDF7ECF9F2E700BFA80F00205A
:203D400054650000753D0000D40F0020980F0020EC0F0020F80F0020FC0F002094650000C8
:203D600034660000BC630000C46300003C660000DA0F00202DE9F04F0446B3B00D46012042
:203D80001746FDF7D9FD2678002D7CD0012E1AD0022E0CD1FFF77AFA0378022B044600F073
:203DA0008E800120FDF7F4FD33B0BDE8F08F4A4A4A494B48FFF790FB31464A48FFF78CFB27
:203DC00033B0BDE8F08F3046FDF7B6FD0E2D69D1DFF834810420FFF717FBB8F80030A28987
:203DE0009A4284464BD9FB793B4A3F493C4897F806B003934FFA8CF7FFF76EFB039B0097B9
:203E000043EA0B21A289A37A3848DFF800A1DFF80091FFF761FBA37A354AA9F8005001338E
:203E2000D2F80CB0A372CAF80040A389A8F800300020D84702232F4994F80A808DF814302E
:203E40000DF11600FDF72CFE237A657A224A264923488DF81E8045EA0325FFF73DFB264A56
:203E600000971288254843462946FFF735FB05AAB223A01CCAF80020A9F80030D8473046FE
:203E8000FDF786FD8DE7144A14491548FFF724FB31461448FFF720FB0120FDF779FD33B0B8
:203EA000BDE8F08F0C4A0D490D48FFF715FB29461348FFF711FB3046FDF76AFD71E7064A92
:203EC00009490748FFF708FB0B4BA27A19880D48FFF702FB65E700BF34660000586600008A
:203EE000C463000060660000BC6300009466000094650000EC0F0020D40F0020C866000077
:203F00007C66000000670000DA0F0020F80F0020FC0F0020074B82B001AA9A42019304D981
:203F2000CD2103F8011B9342FBD10348002102B0FFF780BB401000202002002038B5124C8F
:203F4000124D00F0A1FF2378CD2B08D0AC4202D30EE0AC4212D014F8013FCD2BF9D1AC428A
:203F600002D30BE0AC4209D014F8013FCD2BF9D000F08AFFAC4203D2281B38BD00F084FFC6
:203F80004FF0FF3038BD00BF401000200000042070B5038804463BB1922B0ED11F48FDF78E
:203FA000CBF870B9012070BD1C484FF4A061FDF7AFF892232380012070BD00230380032015
:203FC00070BDFFF7BBFF164E164B051EA6EB030615DB002E13DBB5420DDD134B1B68002B89
:203FE00009DD124A12491348FFF776FA124832462946FFF771FA0948FDF794F8D9E70A4BDB
:204000001B68002BF7DD094A09490A48FFF764FA324629460948FFF75FFAECE7B80F002092
:204020000000042040100020A80100203C67000000650000C4630000706700004467000072
:20404000102A2DE9F041144606460D460DD90C4F01E0102C0CD93368286810223946103C7B
:2040600098470028F5D0BDE8F0811046002AFAD03368286802492246BDE8F041184700BF42
:20408000E06700000B78002B00F0DF842DE9F04F91B0904600228A468146009204E01AF82B
:2040A000013F002B00F0D680252BF8D1514500F00381AAEB0104D9E9003022469847002831
:2040C00040F05881009A9AF8003022440092002B00F0C3809AF801300AF10104002B00F047
:2040E000BC800021A3F12002102A0AD8DFE802F0AF0909AC09090909090909A909A60909C2
:20410000A100A3F13102082A40F2BD802A2B00F0C88000262E2B00F0AB804FF0FF3B6C2B5F
:2041200000F09F80682B00F0CA807A2B03D1637841F060010134782B00F2EA80DFE813F0BF
:204140008D00E800E800E800E800E800E800E800E800E800E800E800E800E800E800E8003A
:20416000E800E800E800E800E800E800E800E800E800E800E800E800E800E800E800E800BF
:20418000E800E800E800E800E800C401E800E800E800E800E800E800E800E800E800E800C2
:2041A000E800E800E800E800E800E800E800E800E800E800E800E800E800E800E800E8007F
:2041C000E800BD01E800E800E800B601AF01A801E800E800E800E800E800E800E800E80031
:2041E000E800E800E800E800E800E800E800E800A101E800E800E800E800E800E800E80085
:20420000E8009A01E80093011F015B0169016201E8001F01E800E800E800E80085017E01A9
:204220007701E800E8007001E8005401E800E8004D0141F0100114F8013F53E741F001016F
:20424000F9E741F00601F6E741F00801F3E741F00201F0E78A457FF42CAF009811B0BDE82F
:20426000F08F63786C2B31D0013441F0600162E76378A3F13000092804F101022BD92A2B1B
:204280003AD0144649E7002606EB860603EB460614F8013FA3F13002092AA6F13006F3D9CF
:2042A00038E7D8F800606378002E08F10408B8BF41F0010101342DE79AF8003007E7637823
:2042C000682B20D0013441F0400134E7A37841F0800102342FE74FF0000B0BEB8B0B03EBBC
:2042E0004B0B12F8013F2F2BABF1300B40F29282392BF2D9144612E7A378D8F800B0023454
:2043000008F104080BE7A37841F02001023412E701F4E0630F46B3F5A06F04F1010A39D0BD
:2043200000F29181B3F5407F00F09C81B3F5806F40F0D180D8F80050019508F10408002D05
:2043400040F02082C44B01930625BBF1000F02DB5D4528BF5D46AE428CBF761B0026F80708
:2043600040F12382D9E9003001992A469847002800F0B9814FF0FF3011B0BDE8F08F01F4F2
:20438000E06343F48073B3F5A06F41F4245704F1010AC5D1012ED8F800308DF8283035462C
:2043A00038BF0125FA0705F1FF3508F1040840F11C82D9E9003001220AA998470028D9D168
:2043C0002A4609F104014846FFF73AFE009B01330028CFD1EB1800933FE001F4E06343F4F7
:2043E000807341F4C85796E701F4E06343F4807341F410678FE701F4E06343F4007341F45E
:20440000024788E701F4E06343F4007341F4813781E701F4E06343F4007341F400777AE7BE
:2044200001F4E06343F4806341F4806773E701F4E06343F4407341F440776CE701F4E0631B
:2044400043F4807341F4885765E704F1010AD8F80030009A1A6008F104086378002B3FF480
:20446000FCAE514620E601F4E06343F4A06341F4A06750E701F4E06343F4007341F4C13701
:2044800049E701F4E06343F4807341F4B24742E701F4E06343F4007341F4A1373BE701F42D
:2044A000E06343F4007341F4844734E701F4E06343F4007341F442472DE701F4E06343F4D1
:2044C000007341F4E13726E701F4E06343F4C06341F4C0671FE7B3F5807FBED1BBF1000F2A
:2044E000ABBF27F010070123CDF804B0019317F40053069307F0E00300F01D81402B00F039
:204500007C8200F20B81002B00F05A82202B40F09E8298F9002008F10408D317002A73F15F
:204520000001C0F21D82CDE9022307F4C053B3F5805F00F08C81B3F5C05F00F0E781B3F5F5
:20454000006F00F0AD81002305939B460DF13E030493019B9B4534BFA3EB0B03002341F6F7
:204560000802019307EA020141F208039942019B00F0138191425B4404D1DDE902120A4302
:2045800040F0588100250795069A7AB1059A002A40F04C8107F00602022A00F054812F4958
:2045A000062A079A04BF0A46012507922B449E428CBFF31A0023029317F00103059307D17E
:2045C000FE0640F1F381DDE901210A44CDE901233DB1D9E9003007992A46984700287FF4B8
:2045E000C9AE009B019F5B44102F009340F2B2811B4ED9E9003010223146103F98470028D9
:204600007FF4B8AE102FF4D8D9F800301449D9F804003A46984700287FF4ACAED9E900303D
:2046200004995A469847009B1D4400287FF4A2AE019B2B449B46059B002B40F0ED80029B86
:204640005B44009309E7B3F5C06F5BD0B3F5E06F3FF4FDAE01E700BFD4670000CC6700004C
:20466000F0670000D8F80010C948CA4D17F4804F08F104080A464FF0000314BF8346AB46DD
:2046800000296AD00DF13B0E7146100902F00F0C40EA03701D0902462B461BF80C0001F8FF
:2046A000010D52EA0300F0D1BEEB010557D003357823AE4201F8013C4FF030024FF0230347
:2046C00001F8022C01F8033CA1F1030B8CBF761B0026F9077ED5D9E9003059462A469847A6
:2046E00000287FF447AE324609F104014846FFF7A7FC009B2B441D4600287FF43BAE73190F
:204700000093AAE6D9E90030A3490122984700287FF430AE009B013300939EE6602B00F0BC
:204720004F81802B40F0938108F1070828F00708F8E80223F2E6402B00F0578115D8002B63
:2047400000F04481202B40F0998198F800200023CDE9022308F10408E7E60DF13B01302302
:2047600001F8013C04250139A2E7602B00F02E81802B40F0838108F1070828F00708F8E8FF
:204780000223D0E62B78002B00F0488115F8013F002BFBD1019BED1AD7E5012B38BF0123CD
:2047A0000025019307955B44EEE6324609F104014846FFF745FC00287FF4DCAD0199D9E975
:2047C00000302A46984700287FF4D4AD009B2B441D4694E7324609F104014846FFF730FC2F
:2047E00000287FF4C7AD5946E9E72A4609F104014846FFF725FC00287FF4BCADD9E9003031
:2048000001220AA99847009B013300287FF4B2AD2B44DFE514468EE4029A09F104014846F2
:20482000FFF70EFC00283FF40AAFA3E55B4A07920125BBE65A495B4A17F4804F18BF0A468E
:2048400007920225A0E6584A07920125AEE6DDE9022313433FF477AEDDE902231846002318
:2048600015460593DDE902230DF13E0107918C464FEAD20B4BEA437B02F007014FEAD30E96
:2048800030315A4673460CF8011D52EA0301EFD1079BCDF810C0CDE90250A3EB0C0B58E61A
:2048A000DDE90223134300F0C88000230593DDE902120DF13E03CDE9086407938B461546C3
:2048C00004971C46584629460A22002301F028FA303204F8012D584629460A22002301F093
:2048E0001FFA2F465E46002F08BF0A2E83460D46E8D2079B049F089E04942246A3EB020BFC
:20490000099C26E600220023CDE9022317F4804365D10593DDE902231E4DDDE902010143C7
:2049200000F085800DF13E000790110902F00F0E41EA03714FEA131C0A46634615F80E105B
:2049400000F8011D52EA0301EFD1079B0490A3EB000BFEE5019B002B3FF460AE1F4653E6E9
:20496000524207F4C05163EB4303B1F5805FCDE9022355D0B1F5C05F45D00123B1F5006F6B
:20498000059394D00DF13E0304934FF0000BE0E5AC67000098670000DC670000C8670000B2
:2049A000C0670000C4670000D0670000029A09F104014846FFF744FB00283FF409AED9E441
:2049C000D8F8002008F10408D317A7E5D8F8003000221946CDE9021208F10408A5E5002171
:2049E000DDE90223324D059197E7B8F800200023CDE9022308F1040897E5B8F9002008F120
:204A00000408D3178AE57B0405D50121DDE90223274D059186E7012305937BE7019DB9E6F9
:204A2000DDE9022318460123154605931AE70DF13E034FF0000B04938BE54FF0000B0DF13D
:204A40003E03CDF814B0049383E51846704707F4C053B3F5805F06D0B3F5C05F3FF452AF12
:204A6000B3F5006F13D0002305939B4600230022CDE902230DF13E0304936AE507F4C0534D
:204A8000B3F5805F08D0069B05939B46EEE74FF0000BCDF814B0E9E70699059100230022AB
:204AA000CDE902230DF13E038B46049351E500BFAC670000074A084913681844884202D84F
:204AC000106018467047054B0C221A604FF0FF331846704730020020000004202810002005
:204AE00010B44FF080414FF080520020C1F80C015E4BC1F81001C1F83805D2F80414C3F8F5
:204B00002015D2F80814C3F82415D2F80C14C3F82815D2F81014C3F82C15D2F81414C3F80D
:204B20003015D2F81814C3F83415D2F81C14C3F84015D2F82014C3F84415D2F82414C3F85D
:204B40004815D2F82814C3F84C15D2F82C14C3F85015D2F83014C3F85415D2F83414C3F8AD
:204B60006015D2F83814C3F86415D2F83C04C3F86805D2F840043E49C3F86C050968D2F848
:204B80004424C3F87025082924D04FF08043D3F80024D20744BF6FF00102C3F80024354AAB
:204BA000D2F8883043F47003C2F88830BFF34F8FBFF36F8F4FF01023D3F80022002A23DB90
:204BC000D3F80432002B1FDB2B4B2C4A1A605DF8044B70472A4B1B68002BD6D129482A4A3F
:204BE0002A4C04602A492B4BFB20C2F818050A681B68294822F00F0203F00F0313434FF4D9
:204C000000720B600260C0E7244A0123C2F80435D2F80034002BFBD04FF0102312211F4A27
:204C2000C3F80012D2F80034002BFBD04FF0102312211A4AC3F80412D2F80034002BFBD0E5
:204C400000231649C2F80435D1F80034002BFBD0BFF34F8F0749124BCA6802F4E0621343EF
:204C6000CB60BFF34F8F00BFFDE700BF00C000403001001000ED00E0340200200090D00350
:204C8000340100108C56004000F0004048810300E40E0040580200104096024000E00140DC
:204CA0000400FA05802802D1024B00221A600120704700BF04C500400120704730B5134CD1
:204CC0000123236083B0FEF76FFE6FF003031D1A03E0FEF769FEC54203D5D4F80031002BB6
:204CE000F7D00A4B0022C3F80021D3F80825D3F80835920544BF6FEA83536FEA9353034A45
:204D0000019301235360019803B030BD00C0004010B541600446FBF7E9FC206010BD00BF5C
:204D200010B50446FBF7E2FCD4E90021C2F101031844884284BF5218226010BD10B50446CE
:204D4000FBF7D4FCD4E90032C3F10103184482422CBF0020012010BD074B084AC3F81C0551
:204D600082B01368002BFCD00023136013680193019B02B0704700BF002000401C21004049
:204D800030B4144B1448154D4FF0A04100220324C3F80025C1F818474024C1F80845C1F88E
:204DA000202708240621C3F8245582B0C3F86C25C3F81445C3F80C15026001680191019CBD
:204DC000074A04200121C3F80005116002B030BC704700BF002000401C21004000E0D70162
:204DE00008200040074B0849084A0020186082B01B680193019BD1F818051368C0B202B054
:204E0000184700BF0821004000200040C80F00204FF0A0434FF4F0310022C3F80815C3F879
:204E20000C25704700B5104B93E8070085B001AB83E807000D491846FEF7CAF848B90C48E5
:204E4000FEF700F960B90B4B01221A7005B05DF804FBFBF783FA0648FEF7F4F80028F2D0B7
:204E6000FBF77CFAEFE700BF1C680000114E0000E90F0020EA0F0020024B1B7803B97047CE
:204E8000FEF7D2B8EA0F0020034B1B7803B97047024B1878FEF7FCB8EA0F0020E90F00206F
:204EA00008B5074B044613B10021AFF30080054B1868836A03B19847204600F02FFF00BFFF
:204EC000000000002868000070B50D4D0D4C641BA4100026A64209D10B4D0C4C01F02EFA86
:204EE000641BA4100026A64205D170BD55F8043B98470136EEE755F8043B98470136F2E77C
:204F0000A0020020A0020020A0020020A402002038B5104B1D68AB6B0446B3B9182000F0C4
:204F200095F80246A86320B90B4B0C48422100F05DF80B490B4BC0E900130B4B83600B2399
:204F4000838100210120C2E90401AB6B00221C615A6138BD380200208C680000A36800009D
:204F60000E33CDAB34126DE6ECDE0500174B10B51C68A36BB3B9182000F068F8A06328B97F
:204F80000246134B13484E2100F030F8124A134BC0E90023124B83600B238381012200234B
:204FA000C0E90423A16B0F480A694B690E4C504304FB0300A2FB04345A1C044444F10000E0
:204FC000C1E9042020F0004010BD00BF380200208C680000A36800000E33CDAB34126DE67C
:204FE000ECDE05002DF451582D7F954C1FB514461A46094B1B680546D8684CB1074B0091BB
:20500000CDE9013406492B4600F00EF801F0C6F8044B1C46F3E700BF380200201F69000014
:205020002C6900005A6900000EB403B5014603AB054853F8042B0068019300F0B9F802B093
:205040005DF804EB03B0704738020020024B0146186800F053B800BF3802002037B500290B
:2050600048D051F8043C0190002BA1F10404B8BFE41800F085FD204A01981368154633B98F
:205080006360146003B0BDE8304000F07FBDA3420BD921686218934204BF1A685B68636079
:2050A00004BF521822602C60ECE71A465B680BB1A342FAD911685518A5420BD124682144B1
:2050C0005418A3421160DDD11C685B68536021441160D7E702D90C230360D3E725686119A4
:2050E0008B4204BF19685B68636004BF491921605460C7E703B030BDCC0F0020F8B5CD1CE0
:2051000025F0030508350C2D38BF0C25002D064601DBA94203D90C2333600020F8BD00F031
:205120002FFD21490A6814469CB9204F3B6823B92146304600F092FA38602946304600F004
:205140008DFA431C23D10C233360304600F01EFDE3E723685B1B17D40B2B03D923601C4487
:20516000256004E06368A2420CBF0B605360304600F00CFD04F10B00231D20F00700C21A8C
:20518000CCD01B1AA350C9E722466468CCE7C41C24F00304A042E3D0211A304600F05EFA2B
:2051A0000130DDD1CFE700BFCC0F0020D00F00202DE9F04F0D469DB014469846064618B15F
:2051C00083690BB900F01EFC894B9D421BD175686B6ED90705D4AB899A0502D4A86D01F058
:2051E0001AF8AB891B0701D52B69EBB92946304600F096FAC0B16B6EDC070ED54FF0FF3056
:205200001DB0BDE8F08F7B4B9D4201D1B568DFE7794B9D4208BFF568DAE7AB899805EDD429
:20522000A86D00F0F9FFE9E70023099320238DF82930CDF80C803023DFF8C0818DF82A3026
:205240004FF0010923469A4613F8012B0AB1252AF9D1BAEB040B0BD05B4622462946304634
:2052600000F01DFF013000F0AA80099A5A4409929AF80030002B00F0A28000234FF0FF3269
:20528000CDE905230AF1010A049307938DF853301A935446052214F8011B5848FAF7B0FF1B
:2052A000049AD8B9D10644BF20238DF85330130744BF2B238DF853309AF800302A2B15D02B
:2052C000079A544600204FF00A0C214611F8013B303B092B4ED9B0B1079214E0A0EB080328
:2052E00009FA03F313430493A246D2E7039B191D1B680391002BBBBF5B4242F0020207932A
:205300000793B8BF049223782E2B0CD163782A2B35D1039B1A1D1B680392002BB8BF4FF011
:20532000FF3302340593DFF8E4A0217803225046FAF766FF40B14023A0EB0A0003FA00F092
:20534000049B03430134049314F8011B2C488DF828100622FAF754FF00283FD0294B1BBB56
:20536000039B073323F0070308330393099B3B44099367E70CFB02320C460120A5E70023FD
:205380000134059319464FF00A0C204610F8012B303A092A03D9002BC5D00591C3E70CFB72
:2053A000012104460123F0E703AB00932A46164B04A93046AFF300800746781CD6D16B6ECE
:2053C000D90705D4AB899A0502D4A86D00F024FFAB895B063FF512AF099811E703AB0093DF
:2053E0002A46094B04A9304600F012F8E4E700BF4C6800006C6800002C6800005B69000062
:2054000065690000000000009F600000616900002DE9FF470C469146277E0C99782F8046B9
:205420009A4604F1430207D8622F0AD8002F00F0D880582F00F0A38004F1420684F8427084
:205440003AE0A7F16303152BF6D801A050F823F0A9540000BD540000395400003954000002
:205460003954000039540000BD54000039540000395400003954000039540000C9550000AF
:20548000ED540000AB5500003954000039540000EB55000039540000ED5400003954000016
:2054A00039540000B35500000B681A1D1B680A6004F1420684F842300123A3E025680868F1
:2054C0002E0600F104030AD505680B60002D03DA2D236D4284F843305E480A2319E015F020
:2054E000400F05680B6018BF2DB2EFE70B682568181D0860280601D51D6802E06906FBD5B2
:205500001D8854486F2F0CBF08230A23002184F843106668A660002EA2BF216821F0040197
:2055200021600DB9002E4DD01646B5FBF3F103FB1157C75D06F8017D2F46BB420D46F4D951
:20554000082B0BD12368DF0708D5236961689942DEBF302306F8013C06F1FF36921B226137
:20556000CDF800A04B4603AA2146404600F0A9FD01304CD14FF0FF3004B0BDE8F0873548FC
:2055800084F8457023680E681F0656F8045B0E6014D5D90744BF43F0200323601DB9236893
:2055A00023F0200323601023B0E7236843F0200323607823284884F84530E3E75E0648BFD3
:2055C000ADB2E6E71646BBE70B68266860691D1D0D6035061B6801D5186002E07106FBD5FB
:2055E0001880002323611646BAE70B681A1D0A601E68626800213046FAF702FE08B1801B2F
:20560000606063682361002384F84330A8E72369324649464046D0470130ABD023689B07D1
:2056200013D4E068039B9842B8BF1846A4E70123324649464046D04701309BD00135E3687E
:2056400003995B1AAB42F2DCEBE7002504F11906F5E700BF6C6900007D69000038B5064DDD
:205660000023044608462B60FFF724FA431C02D12B6803B1236038BD28100020F8B50E4686
:205680001446054618B183690BB900F0BBF9214B9C422BD16C68A369A360A3891A072FD5CE
:2056A00023696BB323692068C01A6369F6B28342374604DC2146284600F026F930BBA368E2
:2056C000013BA36023685A1C22601E7063690130834204D0A389DB0706D50A2E04D1214687
:2056E000284600F011F988B93846F8BD0A4B9C4201D1AC68CFE7094B9C4208BFEC68CAE701
:205700002146284600F00CF80028CBD04FF0FF37EAE700BF4C6800006C6800002C680000DC
:20572000324B70B51D6806460C4625B1AB6913B9284600F067F92E4B9C420FD16C68A389F9
:20574000B4F90C2019072CD4DD0611D40923336042F04003A3814FF0FF303EE0254B9C4256
:2057600001D1AC68EBE7244B9C4208BFEC68E6E7580712D5616B41B104F14403994202D04F
:205780003046FFF76BFC00236363A38923F02403A3810023636023692360A38943F0080364
:2057A000A38123694BB9A38903F42073B3F5007F03D02146304600F0A3F9A089B4F90C201A
:2057C00010F001030AD00023A36063695B42A361236943B910F08000BAD170BD810758BFF9
:2057E0006369A360F4E70020F7E700BF380200204C6800006C6800002C6800008A892DE9A3
:20580000F041054610070C4658D44B68002B05DC0B6C002B02DC0020BDE8F081E66A002E84
:20582000F9D0002312F480522F682B6032D0606DA3895A0705D56368C01A636B0BB1236C8E
:20584000C01A00230246E66A216A2846B047431CA38906D129681D292CD82A4ACA40D6072B
:2058600028D500226260D9042269226004D5421C01D12B6803B96065616B2F600029CAD022
:2058800004F14403994202D02846FFF7E7FB00206063C1E7216A01232846B047411CC7D145
:2058A0002B68002BC4D01D2B01D0162B01D12F60B1E7A38943F04003A381ADE70F69002F42
:2058C000A9D093070E6808BF4B690F6018BF0023A6EB07088B60B8F1000F9CDD216AA66A04
:2058E00043463A462846B047002806DCA38943F04003A3814FF0FF308EE70744A8EB0008A1
:20590000E9E700BF0100402038B50B6905460C4613B90025284638BD18B183690BB900F0DC
:2059200071F8144B9C421BD16C68B4F90C30002BEFD0626ED00704D4990502D4A06D00F03E
:205940006AFC28462146FFF759FF636EDA070546E0D4A3899B05DDD4A06D00F05DFCD9E77A
:20596000054B9C4201D1AC68DFE7044B9C4208BFEC68DAE74C6800006C6800002C68000028
:20598000002310B50446C0E90033C0E90433836081814366C2818361194608225C3000F05F
:2059A00057FB054B6362054BA362054BE362054B2462236310BD00BFB7620000D96200005A
:2059C0001163000035630000014900F004BC00BF09590000014800F01EBC00BF3A10002064
:2059E000014800F019BC00BF3A100020014800F012BC00BF35100020014800F00DBC00BF84
:205A00003510002010B50446FFF7F0FFA3691BB1BDE81040FFF7F0BFC4E912332365134BE3
:205A2000134A1B68A262A34204BF0123A361204600F020F86060204600F01CF8A0602046B4
:205A400000F018F80022E06004216068FFF798FFA06801220921FFF793FFE06802221221EE
:205A6000FFF78EFF0123A361D2E700BF28680000C9590000F8B50746FFF7ACFF1E4B1E68C7
:205A8000B36913B93046FFF7BDFF4836D6E90134013B03D533680BB33668F7E7B4F90C5092
:205AA000D5B9164BE36004F15800656600F0B2FBFFF796FFC4E90155C4E904552560A561E0
:205AC0000822294604F15C0000F0C2FAC4E90D55C4E912552046F8BD6834D9E704213846F3
:205AE00000F063FB044630600028D5D1FFF778FF0C233B60EEE700BF286800000100FFFF56
:205B00008B8973B59D0706460C4607D504F14703236023610123636102B070BD01AB6A46C2
:205B200000F07BFB009905463046FFF7E7FA48B9B4F90C309A05EFD423F0030343F0020331
:205B4000A381E3E70D4BB362A389206043F08003A381009B6361019B20615BB1B4F90E1011
:205B6000304600F067F828B1A38923F0030343F00103A381A0890543A581CDE7C95900007A
:205B8000014800F048BB00BF36100020014800F043BB00BF36100020024B0146186800F044
:205BA00060BB00BF3802002038B5074D00230446084611462B6000F091F8431C02D12B6895
:205BC00003B1236038BD00BF2810002038B5074D04460846114600222A601A4600F096F8C8
:205BE000431C02D12B6803B1236038BD2810002038B5064D0023044608462B6000F04EF8A0
:205C0000431C02D12B6803B1236038BD2810002038B5074D00230446084611462B6000F06D
:205C200045F8431C02D12B6803B1236038BD00BF2810002038B5064D0023044608462B6099
:205C400000F044F8431C02D12B6803B1236038BD2810002038B5074D04460846114600227D
:205C60002A601A4600F042F8431C02D12B6803B1236038BD2810002038B5074D04460846EE
:205C8000114600222A601A4600F038F8431C02D12B6803B1236038BD28100020024B582271
:205CA0001A604FF0FF30704728100020024B58221A604FF0FF30704728100020024B582268
:205CC0001A604FF0FF30704728100020024B58221A600020704700BF28100020024B5822D7
:205CE0001A604FF0FF30704728100020024B58221A604FF0FF30704728100020024B582228
:205D00001A604FF0FF30704728100020024B58221A604FF0FF30704728100020FEE700BF2A
:205D200053B94AB9002908BF00281CBF4FF0FF314FF0FF3000F06EB9ADF1080C6DE904CE93
:205D400000F006F8DDF804E0DDE9022304B070472DE9F047089D04468C46002B40F08380DA
:205D60008A42174647D9B2FA82F242B1C2F1200024FA00F09140974040EA010C94404FEAFA
:205D80001748230CBCFBF8F61FFA87FE08FB16C143EA014306FB0EF1994209D9FB1806F120
:205DA000FF3080F01981994240F21681023E3B445B1AA4B2B3FBF8F008FB103344EA03442B
:205DC00000FB0EFEA64509D93C1900F1FF3380F00581A64540F2028102383C4440EA0640B7
:205DE000A4EB0E0400261DB1D4400023C5E900433146BDE8F08702B9FFDEB2FA82F2002A71
:205E000050D1CB1B4FEA174E1FFA87F80126B3FBFEFC210C0EFB1C3341EA034108FB0CF380
:205E20008B4207D979180CF1FF3002D28B4200F2E9808446C91AA3B2B1FBFEF00EFB101136
:205E400043EA014408FB00F8A04507D93C1900F1FF3302D2A04500F2D9801846A4EB08049B
:205E600040EA0C40BFE78B4209D9002D00F0B1800026C5E9000130463146BDE8F087B3FA7E
:205E800083F6002E4AD18B4202D3824200F2B880841A61EB030101208C46002DA8D0C5E97C
:205EA000004CA5E7C2F1200320FA03F6974001FA02F04FEA174ED9403043030CB1FBFEF684
:205EC0001FFA87F80EFB161143EA014306FB08F1994204FA02F409D9FB1806F1FF3C80F029
:205EE0008D80994240F28A80023E3B445B1A81B2B3FBFEF00EFB103341EA034100FB08F3CA
:205F00008B4207D9791800F1FF3C73D28B4271D902383944CB1A40EA064678E7C6F1200C67
:205F200003FA06F422FA0CF31C4320FA0CF701FA06F34FEA144E21FA0CF11F433B0CB1FBD7
:205F4000FEF91FFA84F80EFB191143EA014109FB08FA8A4502FA06F200FA06F308D96118FD
:205F600009F1FF3048D28A4546D9A9F102092144A1EB0A01BFB2B1FBFEF00EFB101147EAE9
:205F8000014700FB08F8B84507D9E71900F1FF312ED2B8452CD90238274440EA0940A7EB14
:205FA0000807A0FB02894F45C64649461AD317D05DB1B3EB0E0267EB010707FA0CFCF24058
:205FC0004CEA0202F740C5E9002700263146BDE8F0872E4628460BE70646E9E61846FDE692
:205FE0004345E5D2B8EB020E69EB04010138DFE70846D2E760468DE78146B9E7664675E7C7
:2060000030464AE7ACF1020C394413E702383C4424E700BF704700BF30B501390024A24296
:2060200001D1002005E0035D01340D5DAB42F6D0581B30BD0A44914200F1FF3300D17047AB
:2060400010B511F8014B03F8014F9142F9D110BD02440346934200D1704703F8011BF9E78E
:20606000034613F8012B002AFBD1181A013870479368013B002B10B4936008DA9469A342AB
:2060800001DB0A2903D15DF8044BFFF7F7BA1368581C1060197008465DF8044B7047F8B594
:2060A00006460F461446D518AC4201D1002007E014F8011B3A463046FFF7DAFF431CF3D121
:2060C000F8BD2DE9F047164699468A680B69DDF820809342B8BF1346336091F84320074637
:2060E0000C460AB1013333602368990642BF336802333360256815F0060506D104F1190AB2
:20610000E36832689B1AAB4226DC94F84320131E226818BF012392062BD404F143024946F1
:206120003846C04701301ED02368E568326803F00603042B08BFAD1AA36822690CBF25EA20
:20614000E57500259342C4BF9B1AED1800261A34B5421AD1002008E0012352464946384687
:20616000C047013003D14FF0FF30BDE8F0870135C6E7E1185A1C302081F84300224494F839
:20618000451082F843100233C7E70123224649463846C0470130E6D00136D9E708B5062099
:2061A000FFF7FAFC0120FFF7B9FD70B54A1E682555430E4605F17401FEF7A0FF044640B1E6
:2061C0000021C0E900160C30A06005F16802FFF73FFF204670BD2DE9F8430646884600F120
:2061E00048040027D4E90195B9F1010905D52468002CF7D13846BDE8F883AB89012B07D9ED
:20620000B5F90E30013303D029463046C04707436835E9E770477047704770B50E46B1F9A0
:206220000E10002996B014461D4607DA00232B60B3891A0610D44FF480630EE06A46FFF78B
:20624000E7FC0028F2DB019A02F47042A2F500535A425A412A60EEE740230020236016B0D7
:2062600070BD1F2938B504460D4604D9162303604FF0FF3038BD426C12B152F821304BB933
:20628000204600F016F82A4601462046BDE83840FFF78ABC012B0AD0591C03D11623036039
:2062A0000120E7E7002442F82540284698470020E0E7FFF703BD10B50C46B1F90E10FFF76D
:2062C000DBFC0028ABBF636DA3891B1823F48053ACBF6365A38110BD2DE9F0411F468B8958
:2062E000DB0505460C46164605D5B1F90E1002230022FFF7AFFCA389B4F90E1023F480535A
:20630000A38132463B462846BDE8F041FFF75EBC10B50C46B1F90E10FFF79CFC431CA38914
:2063200015BF606523F4805343F48053A38118BFA38110BDB1F90E10FFF75ABCF8B500BFA4
:20634000F8BC08BC9E467047F8B500BFF8BC08BC9E467047427574746F6E203400000000DB
:20636000427574746F6E203300000000427574746F6E203200000000427574746F6E2031B3
:20638000000000000D00010E00010F0001100001427574746F6E2048414C2070726F636515
:2063A00073730000FF0006000000000000B000400B0003004D61696E00000000494E464F43
:2063C000000000005B252D34733A20252D3130735D2000005374617274696E6720436F6EE0
:2063E00074696B692D4E472D3037626435643235632D6469727479002D20526F7574696E46
:20640000673A2025730A00002D204E65743A2025730A00002D204D41433A2025730A00008F
:206420002D203830322E31352E342050414E49443A203078253034780A0000002D20383031
:20644000322E31352E342044656661756C74206368616E6E656C3A2025750A004E6F6465B2
:206460002049443A2025750A000000004C696E6B2D6C6179657220616464726573733A2039
:206480000000000043534D410000000084640000990D0000E90C0000ED0C0000910C0000BF
:2064A0009D0C0000A90C00004374696D65722070726F6365737300004576656E74207469FC
:2064C0006D657200B9170000B1170000F51500000000000000000000284E554C4C204C4CBB
:2064E000206164647229000025303278000000006E52463532383430204945454500000078
:2065000045525200546F6F206C6F6E673A2025752062797465732C206D61782025750A00FF
:2065200054583A20746F6F206C6F6E6720282575206279746573290A000000006E5246359C
:20654000323834302049454545205246206472697665720019250000F52100002524000034
:20656000052500009D200000D1220000851F0000A5250000A92200009D1D0000C11D000070
:206580002D230000ED1F0000ED1E00006E756C6C6E6574008C650000A9300000093100008E
:2065A000B53000006E756C6C726F7574696E6700A465000055310000593100005D3100008C
:2065C000913100006131000065310000A131000069310000953100006D310000813100004F
:2065E0007131000099310000753100009D3100008531000079310000893100008D310000E3
:206600007D3100005361616463000000046600000D3A0000753A0000713A000053656E734C
:206620006F72730053657269616C206472697665720000004C454143480000004D41535468
:2066400045522062726F61646361737465642048454C4C4F000000005741524E000000003B
:20666000556E6B6E6F776E207061636B657420747970653A2025640A00000000496E766135
:206680006C6964207061636B65742073697A652025750A0048454C4C4F2066726F6D206EB4
:2066A0006F6465206964202569207C20736571202575207C20686F70202575207C207273EA
:2066C00073692569000000005B53454E445D205245504C5920746F206964202569207C2068
:2066E0006D792069643A2569207C20686F703D2564207C20727373693D25640A00000000E9
:206700005245504C592066726F6D206964202569207C20686F703D256400000048454C4C90
:206720004F20466C6F6F64696E672050726F636573730000100200200000000053746163FC
:206740006B000000436865636B20696E20696E636F6E73697374656E742073746174653A3D
:2067600020256C642076732E20256C640A000000436865636B206661696C65643A20256C60
:20678000642076732E20256C640A0000537461636B20636865636B0030313233343536378F
:2067A000383961626364656600000000303132333435363738394142434445460000000071
:2067C00030580000307800002D0000002B00000020000000286E756C6C29000025000000E0
:2067E000202020202020202020202020202020203030303030303030303030303030303099
:2068000054656D70657261747572650000680000BD4C0000A54C0000B94C00000100000082
:20682000D0070000060000003C02002000000000000000000000000000000000000000001D
:20684000000000000000000000000000000000000000000000000000000000000000000038
:20686000000000000000000000000000000000000000000000000000000000000000000018
:206880000000000000000000000000005245454E54206D616C6C6F632073756363656564E6
:2068A0006564002F6D6E742F776F726B73706163652F776F726B73706163652F4743432D6C
:2068C000392D706970656C696E652F6A656E6B696E732D4743432D392D706970656C696E5D
:2068E000652D3230305F32303230303532315F313539303035333337342F7372632F6E65AC
:20690000776C69622F6E65776C69622F6C6962632F7374646C69622F72616E642E63002C0E
