:020000040000FA
:200000000000042095180000BD180000BF180000C1180000C3180000C518000000000000D2
:20002000000000000000000000000000C7180000C918000000000000CB180000CD18000038
:20004000493F00002D370000356E0000CF180000CF180000CF180000693C0000CF180000D0
:20006000214B0000CF180000CF18000059400000CF180000593F0000CF180000CF18000060
:2000800009410000CF180000CF180000CF180000CF180000CF180000CF180000CF180000C5
:2000A000CF180000CF180000CF180000CF180000CF180000CF1800000000000000000000D6
:2000C000CF180000CF180000CF180000CF180000CF180000CF180000CF180000CF180000E8
:2000E000CF180000CF180000CF1800000000000000000000CF18000000000000CF1800007D
:200100000000000000000000000000000000000000000000000000000000000000000000DF
:200120000000000000000000000000000000000000000000000000000000000000000000BF
:2001400000000000000000000000000000000000000000000000000000000000000000009F
:2001600000000000000000000000000000000000000000000000000000000000000000007F
:2001800000000000000000000000000000000000000000000000000000000000000000005F
:2001A00000000000000000000000000000000000000000000000000000000000000000003F
:2001C00000000000000000000000000000000000000000000000000000000000000000001F
:2001E0000000000000000000000000000000000000000000000000000000000000000000FF
:2002000001F0FF01102A2BDB10F0070F08D010F8013B013A8B422DD010F0070F42B3F6D1A4
:20022000F0B441EA012141EA014122F007047FF000070023F0E80256083C85EA010586EA51
:20024000010685FA47F5A3FA87F586FA47F6A5FA87F68EB9EED1F0BC01F0FF0102F007024C
:2002600032B110F8013B013A83EA010313B1F8D10020704701387047002D06BF35460338AF
:20028000073815F0010F07D1013015F4807F02BF013015F4C03F0130F0BC0138704700BF73
:2002A00007EE900AFAEECA7A08B517EE900A07F0C3FE0FA3D3E9002307F016FF08F026F9BB
:2002C00007F0BAFE0CA3D3E9002307F00DFF0CA3D3E9002307F052FD08F018F907EE900A72
:2002E000FDEEE77A17EE900A08BD00BFAFF30080CDCCCCCCCCCC0C409A9999999911794090
:200300008D976E128370454007EE900AFAEECA7A08B517EE900A07F08FFE0BA3D3E9002399
:2003200007F02AFD02460B4609A1D1E9000108F005F808F0EBF807EE900AFDEEE77A17EEF1
:20034000900A08BDAFF300807B14AE47E17A943F333333333333134010B5054C237833B948
:20036000044B13B10448AFF300800123237010BD24030020000000000498000008B5034B8A
:200380001BB103490348AFF3008008BD000000002803002004980000A3F5803A704700BF64
:2003A000174B002B08BF134B9D46FFF7F5FF00218B460F461348144A121A08F08FFA0E4BB8
:2003C000002B00D098470D4B002B00D098470020002104000D000D48002802D00C48AFF37A
:2003E000008006F099FD2000290000F005FA06F07FFD00BF00000800000000000000000080
:20040000000004202403002044140020000000000000000000B585B00346002101AA44F2C4
:200420000100CDE90111039300F004F805B05DF804FB00BF72B6094B1B68DB0700D500BE35
:20044000BFF34F8F0649074BCA6802F4E0621343CB60BFF34F8F00BFFDE700BFF0ED00E0D1
:2004600000ED00E00400FA0572B6024A136801331360704740030020034A1368013B136085
:2004800003B962B6704700BF4003002010B50446006830B1002104F07DF954F8040F002845
:2004A000F8D110BD10B590F84C10094A013180F84C10044603468021203000F079FD054B6A
:2004C00022461978BDE81040002004F0FBB900BFA5040000351400202DE9F0410388044679
:2004E0003BB1B3F5867F0AD182290DD00120BDE8F0814FF4867323800120BDE8F081002390
:2005000003800320BDE8F08101F078FABFF35F8F1649174B0E6800220A601F781A70FFB287
:20052000BFF35F8F134D01F06DFA28680028E0D0DFF8448003E055F8040F0028D9D090F8C4
:20054000463026FA03F3DA07F5D590F8453047FA03F3DB07EFD500F051FD0028EBD02B68D6
:2005600042461846022100F023FDE4E754030020E013002040010020D905000010B4094AB7
:20058000094C13681943116021780346012202FA03F30B43DBB2237004485DF8044B04F075
:2005A000B3B900BF54030020E01300205401002010B5044690F8461090F8450001F0DCF991
:2005C00010B994F8440010BD01280ABF94F84400002080F0010010BD70B5044600F00EFD2B
:2005E00000B970BD04F12006304600F007FD05462046FFF7DDFF01280ED00028F1D1002DEF
:20060000EFD1304600F0E0FC0D4B224628461978BDE8704004F056B9002DE2D00025304647
:200620002346084A84F84C507E2100F0C1FC064B284622461978BDE8704004F043B900BFDF
:2006400034140020A504000036140020F8B504F099F8304B304C187004F094F82F4B304FF5
:20066000187004F08FF82F4922682F4B08700025FF2139727B60FD60002A42D02B4E09E0BD
:2006800091F84600F9683A72834054F8042F0B43FB60B2B392F8463092F84510926C03F05E
:2006A0001F0343EA41131F2BC6BF03F01F0331464FF0A04103F5E07342F08C0241F8235065
:2006C000236893F8461093F8450001F013F9226892F8463092F8450003F01F0343EA4010F6
:2006E000012103F01BFA2168387A91F8452082424FF00103C4D0FF28C2D054F8042F002AAA
:20070000C8D10B48002104F045F8BDE8F840044801F046B93614002040010020341400204F
:2007200044030020351400207D050000000300505401002030B5174B83B000221A6003F096
:200740004DF800BB002003F065F8134B134A93E80300FF250090ADF80410062400231048DE
:20076000ADF8005069468DF802408DF8043003F009FC58B901210A4803F058FC084803F04E
:2007800049FC03B030BDFFF745FEDBE7FFF742FEF0E700BF58030020308C0000D10700009E
:2007A000388C0000014B1868704700BF5803002008B5064A13680133136000F02DFD00B9B6
:2007C00008BDBDE8084000F007BD00BF58030020042800D07047FFF7EBBF00BF054A11689F
:2007E00013685B1A984204D920BF13685B1A8342FAD370475803002010B54F4C03F0D6FE98
:20080000FFF798FF04F09CF903F0E6FF4B48002103F0C0FF00F092FB06F02CFB00F028FCD6
:2008200005F0A0FB03F0CAFE04F08CF802F048FB02F058FB2368022B11DC03F0DBFE404882
:20084000FFF724FE06F040FB03F0E0FF044606F043FB14F0FF0FF7D103F0D2FEF4E7394A04
:2008600039493A4803F0E8FE394804F05DF82368022BE2DD334A3449344803F0DDFE354B96
:200880003548196803F0D8FE2368022BD5DD2D4A2D492E4803F0D0FE304B3148196803F09B
:2008A000CBFE2368022BC8DD264A2749274803F0C3FE2C4B2C48196803F0BEFE2368022B3C
:2008C000BBDD204A2049214803F0B6FE27484AF6CD3103F0B1FE2368022BAEDD194A1A4945
:2008E0001A4803F0A9FE22481A2103F0A5FE2368022BA2DD134A1449144803F09DFE1D4B7E
:200900001D48198803F098FE2368022B95DD0D4A0D490E4803F090FE184803F08DFE236831
:20092000022B8ADD164801F08FF92368022B84DD0A2003F0F7FF80E7A80100209801002037
:2009400088950000408C0000488C0000508C0000608C0000B48E0000808C0000988E00009E
:20096000908C0000148D00009C8C0000A88C0000C48C0000D8130020E48C0000F48C000013
:20098000F413002070B590F82D50012D04460FD91F2504F03BF80246B0FBF5F1234601FBFD
:2009A000152104F10C00054ABDE8704000F000BBE91C01258D40013DEBE700BF4D0A000093
:2009C0002DE9F04714460D468A6894F82C900646606BD2E9007801F00FF9686803F0E8FFF6
:2009E000A968164801F0FCF91548294601F0F8F9606B01F0D1F860B10023A3852046FFF7B7
:200A0000C1FF4B46324641463846BDE8F04701F0ADB904F10C0000F0D7FA2146094801F06A
:200A2000EBF82146084801F0DBF94B46324641463846BDE8F04701F099B900BF64010020E6
:200A40007C010020C40300207001002008B32DE9F047044682B0406B01F09EF80546A8B127
:200A6000406803F0BBFF63490C2003F083FD0121072003F071FD00F063F900280ADAAB68C1
:200A800023B1052022462946FFF79AFF02B0BDE8F087704703F0BAFCDFF85C8190F80290FB
:200AA000D8F8047003F0B2FC064603F0B9FC01463046B84703F072FDD8F818600746B047B3
:200AC00070BB002F4AD1D8F81CA0D04740BBD8F8087003F0A5FCB84700285DD002281FD0BA
:200AE000AB68002BD2D00420CCE704F00DF86FF028031E1A03E004F007F8C64202D5D047B8
:200B00000028F8D0D04700285ED0D8F81030032101A89847032803D19DF806304B4524D06E
:200B2000AA68002AB2D094F82D300133DBB2052B84F82D3094F82C3008D8127A9A4224D818
:200B4000224629460120FFF73BFF9FE70133DBB2002184F82C3084F82D10EEE7D8F8086067
:200B600003F05EFCB0470028B8D1AB68002B8DD094F82C3000200133294684F82C3084F8E6
:200B80002D002246FFF71CFF80E72046FFF7FAFE686803F007FF79E703F0B6FF6FF01807A5
:200BA0003F1A03E003F0B0FFC74202D5D0470028F8D0B047002898D1D047002895D1D8F873
:200BC00014309847002890D0A96800293FF45EAF94F82C300133DBB2002284F82C3084F8D1
:200BE0002D200A7A9A42D0D8224629460220FFF7E7FE4BE7F4130020588E00002DE9F04146
:200C000006460D200F4603F0C1FC054601F04CF801210B2003F0A0FC3C4800F0BDFFD0B149
:200C2000044603E001F00CF80446A0B12946201D00F0A6FF03462046002BF3D0606B00F05E
:200C4000F5FF07281EDD394630460123BDE8F041062201F08BB82E4801F0A6F804460028B4
:200C6000F1D02946201D00F085FF002304F13000C4E90C30A38500F08BFF2448214600F0FD
:200C80008DFFDBE7234801F08FF8054650B3224801F08AF8A86008B303F062FE6860C8B1A1
:200CA0000520D5F8088003F05FFCC8E9006710F0FF000ABF082388F8080088F80830606B56
:200CC000294600F06BFF606B00F066FF854217D0BDE8F081A968104801F082F80D482946CF
:200CE00001F07EF8606B00F0A1FF0028ABD12146064800F081FF2146054801F071F8A2E7D2
:200D00002046BDE8F041FFF73DBE00BFC4030020700100207C0100206401002008B5054843
:200D200001F030F8044801F02DF8BDE80840034801F028B87C01002064010020700100207C
:200D400010B501210B2003F007FC024BBDE810405B6818474C8D0000014B9B68184700BFE1
:200D60004C8D0000014B1B6A184700BF588E0000014B5B6A184700BF588E000010B50D4B93
:200D800082B01B6898470C4B04469B6A01A91920984701280BD0002C0198B8BF1524802836
:200DA000D4BFC4EB0000C4F1800002B010BD002002B010BD4C8D0000588E0000FFF71EBF0C
:200DC00000B583B003F026FB032802D103B05DF804FBFFF7C1FF0028F8DB0D2003F0D6FB70
:200DE0001F4900F0CDFEE8B10C2003F0CFFB1C4900F0C6FE0028E9D100F060FFB8B1072074
:200E000003F0B2FB0028E1D00223ADF8043003F0FDFA144B8278DB688DF80620032101A85D
:200E20009847D3E703F0BAFB0028DDD1CEE700F06BFF072003F098FB18B90B4B9B689847D6
:200E4000C4E70223ADF8043003F0E0FA054B8278DB688DF80620032101A89847EDE700BFA5
:200E6000F4130020588E0000988E000030B50D4C83B0A56A69461920A84748B901A9042019
:200E8000A84738B100F008FFFFF748FF236A984703B030BD0199E36A21F002010191042089
:200EA0009847EFE7588E0000F0B5038883B0054633B14A2B18D188291BD0012003B0F0BD8A
:200EC0001B4800F069FE044630B1A168201D00F089F92468002CF8D1164B01221A704A2379
:200EE00001202B8003B0F0BD00230380032003B0F0BD0F48019200F04FFE04460028EED046
:200F0000019A031D9A4205D02468231D002CE6D09A42F9D10648084E214600F06DFED4E9EE
:200F20000523376832600BB1E06998473760D6E7A4040020E11300207409002010B5064B91
:200F4000064800241C7000F023FE21460448BDE8104003F01FBC00BFE1130020A404002071
:200F60008801002070B50E4C049E25784661C0E90623044635B9A1600A482146BDE870404A
:200F800000F00CBE084D094B2E682B60043000F029F92E6021460348BDE8704000F0FEBD47
:200FA000E1130020A4040020740900208801002010B5044C82B024680094FFF7D3FF02B02E
:200FC00010BD00BF7409002010B50A4B1B7804463BB9C0E9033321460748BDE8104000F083
:200FE0000BBE043000F020F921460348BDE8104000F002BEE1130020A404002038B50C4B74
:201000001D7804466DB90B4800F0C6FD38B1A04202D10BE0844209D000680028FAD1012021
:2010200038BDBDE83840043000F0F0B8002038BDE1130020A404002010B50446C0B205F06B
:20104000B3FE204610BD00BF70B570B10E46451E002404E0A64206D005F0A6FE013415F84F
:20106000010F0028F6D1204670BD0446FBE700BF704700BF10B5FFF795FB0B4B1A68D2E99F
:20108000003192680B44191A52B1D2E9003423441B1A9268994228BF1946002AF5D14318AF
:2010A000024A136010BD00BFAC040020A80400202DE9F843038805465BB3592B2CD18729E3
:2010C0002FD0822920D12C4FDFF8B4803C684FF00009CCB1002603E0A3682646A3B11C4650
:2010E000204605F053FE0028F6D0E0682246882103F0E8FB03464046002B2AD003F004FC40
:20110000A3682646002BEAD159232B800120BDE8F883194A1360F7E7002303800320BDE8E8
:20112000F883154F3968002019B9EDE789680120D9B1CB689342F9D000B139608B68002B94
:20114000E2D0D868904207BF9B688B6019469B68F5E7E360A3686EB1B3603B68C4F8089062
:201160002BB1FFF787FF3C68B3E73960CCE7034A1360C9E73B60F1E7AC040020A80400200E
:201180009801002010B50446104803F0BDFB1049E3680A684BB142B194420FD0134601E090
:2011A0009C420BD09B68002BFAD10A4BA2601B68E3600C60BDE81040FFF75CBF054B1B681B
:2011C000E360BDE81040FFF755BF00BF98010020AC04002074090020014803F095BB00BF9D
:2011E0009801002010B5044605F0BAFD2046BDE81040FFF7C7BF00BF10B5044605F0B8FD2C
:201200002046BDE81040FFF7BDBF00BFC068B0FA80F04009704700BF024B1868003818BF65
:2012200001207047AC04002010B5124B19688142044614D00B462BB19A68A24206D0134630
:20124000002BF9D10023C4E9023310BDA2689A6049B1FFF70FFF0023C4E9023310BD826809
:201260001A60002AF5D1044B00221A600023C4E9023310BDAC040020A8040020014B1888BF
:20128000704700BF1803002000283ED0037A022B30B410D00378022B15D00379B3B1002468
:2012A000C37913F0030318BF012301B10C6002B1136030BC7047C579447A037965B90CB9AC
:2012C000012BF2D0DBB100231C46EEE7447A14F0030418BF0124E3E7C4B1032D37D1032CCF
:2012E0002ED0022C24D143BB022D2DD00123032D24D1A4F10204B4FA84F46409D5E7023C32
:20130000012C8CBF00240124CFE770474BB9022D08BF0123EAD1A4F10304B4FA84F4640997
:20132000C3E7032D01D0022D02D123461C46BCE7002BC8D1022DDAD1EDE701230024B4E73D
:20134000002BC0D10123D4E701231C46ADE7022DC7D1002BF1D1022C4FF00103DBD11C46A5
:20136000A3E700BF30B500230B608B80437D0D46D9075CBF01232B70037E012B83B00446AF
:2013800023D901AA694604F11000FFF77DFF009B0BB10223EB70019B0BB102236B70E37DF1
:2013A00003F00303022B03D0032B14BF00230823AB70637E03F00303022B03D0032B14BFEF
:2013C000002308232B7103B030BDC37D9A0706D0437E9B0703D0C28B838B9A4202D000236A
:2013E0002375CEE701230375CBE700BF02280CBF012307230B441A78FF2A184603F1FF33C2
:2014000003D18142F7D1012070470020704700BF30B583B06946FFF7A5FF9DF800309DF844
:2014200001509DF802409DF803109DF804209DF8050002332B4423440B441344184403B0C9
:2014400030BD00BF70B4437882780578C478DB00120102F0100203F008031343027905F098
:20146000070564012B4304F020049201234302F0400213430B7043798579467AC479027A44
:2014800003F001036D0043EA861305F00205A0002B4300F00C001201034302F03002134349
:2014A00070BC4B70704700BFF0B583B00E4607466946FFF757FF314607F11000FFF7C2FF25
:2014C0009DF80030012B04BFBB7EB3709DF801300CBF03220222022B08D1BB8BB354531C60
:2014E000B98BDBB2090A0232F154D2B29DF802304BB35D1E13443D44DBB214460132D2B255
:2015000015F8011931559A42F7D19DF80320022A08D1FA8BF2545A1CF98BD2B2090A02332C
:20152000B154DBB29DF8040078B1C41D18443C44C0B21A460133DBB214F80159B5549842BE
:20154000F7D103B0F0BD1346DFE7184603B0F0BD30B40278437802F00700C2F3C005C2F345
:2015600000140870C2F34010C2F380124D708C7003F00105C3F34004C8700A71C3F38100FD
:20158000C3F301129B094D718C71C87130BC0A724B727047012943DD2DE9F04186B00F46F2
:2015A00003A914460546FFF7D3FF03AB03CB9DF811201B882383206161616AB3AE1C03A8B2
:2015C00002AA01A9FFF760FE9DF81380B8F1000F43D0029B002B31D1B8F1020FA38367D08D
:2015E000B8F1030F4DD09DF81580B8F1000F2CD0019BBBB9A38BE383B8F1020F4DD0B8F111
:20160000030F31D0701B3B1A8742C4E90E6300DA002006B0BDE8F081AB78A376EE1CCEE72F
:2016200000207047717816F8023B029A03EB01239BB2E383002ADFD1A383DDE7727816F882
:20164000023B03EB02239BB2C6E71E4904F1080000F090FAA4F81E80D4E71A49204600F0B4
:2016600089FAA4F81C80BEE706F10800034604F1080213F8011D02F8011BB342F9D1064679
:20168000C0E706F108000346621E13F8011D02F8011FB342F9D10646A5E70A4904F10800B1
:2016A00000F068FA7378237216F8023B6372A9E70449204600F05EFA7378237016F8023BE4
:2016C000637090E7588D000030B591B002F08EFE044602F09FFE6A4601462046FFF75AFFB2
:2016E00000283ED0044602F065FED0B39DF810100B2002F031FF9DF81310072002F02CFF94
:201700009DF817308BB1BDF81C50FFF7B7FD854205D0BDF81C204FF6FF739A4221D19DF83F
:2017200017006946FFF762FEB0B102A90C2002F021FF9DF815303BB14FF6FF71062002F0B0
:201740000BFF204611B030BD9DF81A10062002F003FF204611B030BD69460D2002F00AFFA7
:20176000E3E74FF0FF34ECE7F8B505460B2014460E46A84700232074A37496B3E374637554
:201780000820A847002701232376A07567740620A847A076FFF772FDE0830920A84701282A
:2017A0000CBF3B4603236376FFF768FDA0830A20A84701281AD066B90323E375637E022B89
:2017C0000CD0E37DA3F10203B3FA83F35B092375F8BD0223E375637E022BF2D10123237556
:2017E000F8BD0720A8476675E074C9E7E775E5E730B591B00546FFF741FD4FF6FF74A042D8
:201800003AD040220021684607F068F802F0C6FE6A4601461A48FFF7A7FF02F0BFFE18B311
:20182000ADF800400C2002F0B1FE014602A800F0A1F902F0DBFD0E9002F0ECFD0346684641
:201840000F93FFF7E5FD044615B9204611B030BD02F080FD80B102F0D9FD01466846FFF78F
:2018600023FE204611B030BD0D2002F08FFE0146684600F07FF9D5E74FF0FF34E5E700BF71
:20188000694500000120FFF7B3BF00BF0020FFF7AFBF00BF0649074A074B9B1A03DD043B49
:2018A000C858D050FBDC05F043F9FEF779FD0000109800000000002024030020FEE7FEE79C
:2018C000FEE7FEE7FEE7FEE7FEE7FEE7FEE7FEE700F01F030121C0F34710994000F066B8BB
:2018E00008B502F07FF800B108BDBDE8084002F02FB800BF30B583B01446022301F01F011F
:2019000000228DF8063014F00C0341EA4015ADF8042006D0042B25D0082B27D00C2B02D160
:2019200003238DF8043014F0030304D0022B15D0012B02D103238DF805300E4A01A9284689
:2019400002F05AF82306284603D402F053F903B030BD012102F0E2F803B030BD01238DF8C0
:201960000530EAE701238DF80430DCE702238DF80430D8E7D118000001F01F0141EA4010AF
:201980001F28CABF054B4FF0A04300F01F00D3F8101521FA00F000F0010070470003005000
:2019A0000146014800F0FAB8B004002070B505460C480E4600F0F0F890B1044601E0246839
:2019C00074B1237AAB42FAD1E36816EA0301F6D063682846002BF2D098472468002CF0D1FA
:2019E00070BD00BFB004002008B5034800F0D0F8BDE80840FFF774BFB0040020EFF310800B
:201A000072B6704780F31088704700BF032824D8124B00EB40001A181B5C9178527803F048
:201A20001F0343EA421361B11F2BC6BF0C4903F01F034FF0A041012202FA03F3C1F80C3588
:201A400070471F2BC6BF064903F01F034FF0A041012202FA03F3C1F808357047108C00001E
:201A600000030050032824D8124B00EB40001A181B5C9178527803F01F0343EA421361B13F
:201A80001F2BC6BF0C4903F01F034FF0A041012202FA03F3C1F8083570471F2BC6BF06490D
:201AA00003F01F034FF0A041012202FA03F3C1F80C357047108C00000003005070B41A4AB4
:201AC0001A4D0023012440FA03F1C90712D59178B9B11178567801F01F0141EA46111F29CD
:201AE000C6BF01F01F012E464FF0A04604FA01F1C6F808150133042B02F10302E3D170BCB1
:201B000070471178567801F01F0141EA46111F29C6BF01F01F012E464FF0A04604FA01F1BD
:201B2000C6F80C15E6E700BF108C0000000300500E4A30B40E4D02F10C040320137851783A
:201B400003F01F0343EA41131F2BC6BF03F01F0329464FF0A04103F5E0730332944241F8ED
:201B60002300EBD130BC0F20FFF7A8BF108C0000000300500B684A6842600360704700BF7F
:201B800008B5082206F08EFEB0FA80F0400908BD00230360704700BF006870470368DBB1A2
:201BA00010B4002400E0134699420FD01A681C46002AF8D100230B600368CBB11A461B681B
:201BC000002BFBD111605DF8044B70470A686CB1226000221A60EDE700230B6003684BB1CC
:201BE0001A461B68002BFBD1116070470260F0E70160E8E70160704703689BB110B40024C3
:201C000000E0134699421A6805D01C46002AF8D15DF8044B704734B1226000221A605DF851
:201C2000044B704770470260F7E700BF03682BB100201B680130002BFBD17047184670470A
:201C400000B10068704700BFF0B170B50024104E054654B1E3070DD5295D304602F0ECFCBB
:201C6000072C10D00134002CF4D12978304602F0E3FCF7E72E2002F055FE295D304602F0E4
:201C8000DBFC072CEED170BD024802F0D5BC00BF708D0000608D000008B502F0B7FE014B28
:201CA000187008BDE2130020034B197806204A1C1A7002F051BC00BFE2130020F8B5FEF758
:201CC00071FD104E0746344600250C2002F05EFC2146FFF755FF103420B90135102DF4D1CE
:201CE0000020F8BD062006EB051502F03DFC2B7B8342F5D1A868381AB0F5206F8CBF002081
:201D00000120F8BDB4040020F8B5174E0024374635460C2002F03AFC2946FFF731FF1035B9
:201D2000F8B90134102CF4D10F2407EB0414254654F8100D6168A268E368A6420FC5F6D10A
:201D4000062002F011FC3873FEF72CFD0346BB600C2002F01BFCBDE8F84001460248FFF798
:201D600009BF002CE1D1EBE7B404002040B120B40D4611461A46034628465DF8045B18477A
:201D8000704700BF10B5044642884068002106F0A5FD23886288A06802FB03F2BDE810400F
:201DA000002106F09BBD00BF30B44588ADB14368002202E00132AA420CD0194601330C7825
:201DC000002CF7D101230B700588806802FB050030BC7047002030BC70472846F8E700BF87
:201DE00030B44488826854B18A420CD00588002301E0914208D00133A3422A44F9D14FF0D0
:201E0000FF3030BC704700234268D15C0029F6D00020D05430BC704783688B4208D84288BE
:201E2000008800FB023081422CBF00200120704700207047BAB1F0B4541E002501F1FF3C9D
:201E40000444471E2E467B190CEB050113F8010F01F8010FA342F9D101369642154414443D
:201E6000F1D1F0BC704770472DE9F04F87B012FB02F400AF0734E408BB606B46A3EBC40300
:201E80009D46BAB102F1FF3AEA444FF0000954464D460DF1FF36EC46334603F8015FA34207
:201EA000FBD109F1010E7245164403EB020405D0F146F1E71C37BD46BDE8F08F00F1FF3BBF
:201EC0000BEB020300200CF1FF34C7F804A07B61FC609C4638618246FB684FF0000E03EB3B
:201EE0000A0818F8013F01EB0E055C4614F8016F2878644506FB0033DBB21544F6D1F14503
:201F000088F800300EF1010301D09E46E9E73869D7F814B08145924404EB020C00F10103C7
:201F200004D03B617B6913447B61D5E7BB68D7F804A0D7F80CC000245E1E25460CEB040324
:201F4000311913F8010F01F8010F9A45F9D1A9451444924405F10103ACD01D46EEE700BFE1
:201F6000012B13D014DD2DE9F0411E4607460D469046012400E0284601342B464246394620
:201F8000FFF772FFB442F6D1BDE8F081FFF752BF704700BF2DE9F8436C46A4EBC20400AF83
:201FA00002F1FF3CA546002A00F08380D7F820909FED426A9846064604F1040E002507EEE9
:201FC000905AF8EEE77A9FED3D7ACEED007A00230AE0F05C07EE900A581CF8EE677A824271
:201FE00037EE277A07D003469D42F2D1581C824237EE067AF7D1F8EC017AF9EC016A67EEB0
:20200000A67A9D4227EE877A16440EED017A05F101000EF1080E01D00546D0E7BCF1000F40
:2020200034DD4FF000094B46CE46664604EBC300D0ED007A90ED027AF4EEC77A0133F1EEDE
:2020400010FA04EBC3051BD580ED007AC0ED027AD0F804E0D5F80480C0F80480B342C5F8D4
:2020600004E0B8BF4FF0010EE0DB09F10109CC45ACEB090609DD002E07DD00239E46D5E786
:20208000B342D3DBBEF1000FEFD17AB14D1ED4ED017A2B46FCEEE77A023317EE900A5B1A48
:2020A0009A4205F8010F04F10804F0DCBD46BDE8F883BCF1000FB4DCF8E700BF000000005D
:2020C00070B415785378947805FB0106024601FB0300F35C065D01FB0421A3F10100B0FA18
:2020E00080F04B5D4009012E08BF0130012B04BF0130C0B270BC70472DE9F04F2DED028BE7
:2021000093B002AF12FB02F57D6107354FEAD5087D606D46A5EBC805AD466E46A6EBC806A4
:2021200002ADB546FD608B4629466D46A5EBC80502AEAD46054614460DF1080A08EE900A60
:202140009946BE60FFF776FE294628463346FFF78BFE294628465346FFF786FE294653464B
:2021600095005046FFF780FEEB1D03F4FF63ADEB030D02AB18462A4600213B6106F0AEFBE0
:20218000002C00F09F8107EE904ADFEDCB6A7A6F3869DFEDCA5AB8EE676A26B2911EC4EB0C
:2021A000C47C26EE266A7600054401EB44014FEA4C0CB0EC017A01EB0C0308E05AB107EEC0
:2021C000902AF8EEE77A8B4237EE277A07D033F9022FFF2AF2D18B4237EE667AF7D136EE8D
:2021E000077AA842C7EE257A03EB060140ED017ADFD17B686A46DB08A2EBC3039D4602AD78
:202200007A692846002106F069FBFB68C7F80CB004F1FF3C08EE105AD7F808B0C7F80490AA
:202220009C444FF0FF3E4FF00008F6EE005AF0EE006AB0EE086A994609EB0E0205EB0E067E
:202240000AEB0E000BEB0E017C6112F8013F23B1012B38BF0123DB00DBB211F8014F07EE7E
:20226000904AF8EE677A67EEA57AF5EE407AF1EE10FA0CD0F4EEE67AF1EE10FA57BFFCEEBC
:20228000E77A043317EE904A03EB8403DBB210F8014F07EE904AF8EE677A87EE867AB5EEBF
:2022A000407AF1EE10FA0CD0B4EEE67AF1EE10FA57BFBCEEC77A023317EE104A03EB4403EA
:2022C000DBB2624506F8013FBFD17C6908F101084445A444A644AFD1D7F80CB0D7F804904C
:2022E000E31D03F4FC73ADEB030D69463B6941F8083B22463B6F18EE100AFFF74BFE0BEB9A
:202300008B035B0007336E4A23F00703ADEB030D02AB02F11E0CA646FB601E46DC445A44EA
:202320005C4644B1131B304613F8015B4D5D00F8015B9342F8D1033262452644F1D1A3466E
:202340000BF1070222F00702ADEB020D02A900225FFA8BF33961C7E90722F968BA8407F108
:202360001C05581E744608442E46AE4607F1260A8846002B00F0978008F1FF324FF0000CBB
:2023800012F8011F8C4207D919F80110012904BF0CF1010C5FFA8CFC9042F1D10EF801CB05
:2023A000F2455844D844E4D1002207F12809C7E90A223A86FA68C7F80490C84618EE909A9F
:2023C000BE60C7F814B016469B465B46324621464846FFF775FE7B6908F8010B1E4407F15E
:2023E00032034345F1D10023D7E90196C7E90D33D7F814B0BB8707F1340216F8013B19F896
:20240000011BB2450B4402F8013BF6D1FB680BF1FF341C44062007F13402002312F8011BCE
:20242000884201D8E95C59BB01330A2BF6D1013810F0FF00EFD1BBF1000F1BD0FB683A69CC
:20244000013B013A13F8011F02F8011F9C42F9D1BBF1000F0ED03B690BF1FF35581EBA6F0C
:20246000511E3A6903462A4413F8010F01F8010F9A42F9D14437BD46BDEC028BBDE8F08FF1
:20248000BBF1000FF6D03A69F9680BF1FF35501E54190BFB0313024613F8011B02F8011F07
:2024A0009442F9D1DBE79C460EF801CBF2455844D8447FF45EAF77E70000C84200001643D6
:2024C000D48D00004FEAC808ADEB080D02AB7A691846214608EE103A06F000FA00E700BFBA
:2024E0002DE9F04F2DED028B12FB02F48DB007346E46E408D51D00AFA6EBC404A54605F4E7
:20250000FC74C7F818D0ADEB040D914605460C463861002168469A463C623C6E06F0DEF92A
:2025200015FB09F2D31D6946DB08A1EBC303C7F804D09D466846002109F1010506F0CEF9BA
:2025400005FB05F202F1070B69464FEADB03A1EBC303C7F808D09D460021684606F0BEF971
:2025600004F1FF386FEA09014FF0000C6C4668465144C64666460023002E00F08D80002B5B
:2025800000F08F80CA5CC2540133AB42F4D101369E420EF1010E18449C444944EBD13D69CA
:2025A000EB1D03F4FC73ADEB030D2A466846002106F094F9E8464FEADB03A8EBC3039D46C2
:2025C0005FFA86FB2A4668460021C7F80C8006F085F9434607EE10BAD7F820B007EE90AA0D
:2025E0006E46CA465D19A1464FF001081C46434617EE102A31464846FFF7B2FC3B69FBB14F
:202600000BF1FF302146234610F8012F324452781AB11A780AB983F800800133AB42F3D147
:20262000002311F8012B002A08BF01238D42F8D108F101085FFA88F8C24501D3002BD6D10D
:20264000D7F8188017EE900A52464146D146FFF7F1FBBAF1000F51D03B6A3A697E68C64647
:2026600000249D1894469846BCF1000F0DD0337841460EEB040011F8012B19FB02F28D42F5
:20268000825C1344DBB2F6D13370631C994506F101060DD01C46E7E743B118F80320E25449
:2026A00072E79EF8002004F80C206DE723706BE74FEA8902D31D03F4FF63ADEB030DE846C7
:2026C00000214046C7F8248006F008F93B6A3E69002198190125C6469C46634616B907E068
:2026E000984205D013F8012B8A42F9D14EF82150A14201F1010306D01946EEE76846494687
:20270000786206F0EBF83B69002B00F0AC803A69930008EE903A073303F4FF637B61531C47
:202720003B604FF001084C46002C6ED07B683A69013BBB623B6A9D18BB6823440026FB6175
:20274000B7EE008A7B69EA46ADEB030DE94618EE902A4846002106F0C1F8BB6AB96913F8EF
:2027600001EFBB62D7E9072305EE909A01EB060BB14600207E6AFA6206E0FA6A9D4222445E
:2027800000F10100FA6237D013F8011B14FB01FC1BF80CC008FB0CFCF445EED1BEF1000F11
:2027A000EBD056F82920002AE7D17A6E9FED427A02EB8101FA6A91ED006A111B11F801CBF9
:2027C00007EE90CAF8EE677A8A4237EE277AF5D137EE087AFA62C6EE076AFA68125C07EE9E
:2027E000902AF8EE677A15EE902A86EEA77A02EB800181ED007AC0E7C6454E4615EE909A3D
:2028000037D00136B442D5469CD13B6808F10108984589D1BB6E3A69D7F808E003F1FF3872
:202820003B6A4FF0000CA1466546981893469A46B9F1000F11D044467646002116F8013B62
:2028400004F8013F534613F8012B8A4208BF25709842F8D101318945F0D10CF1010CE345AE
:20286000CE44C844E4D13437BD46BDEC028BBDE8F08F7B6A53F82620002AC2D1396999ED62
:20288000007A012911D009F104090123F9EC017AF4EEC77AF1EE10FAA8BF1A4603F101035D
:2028A000A8BFB0EE677A9942F0D1BB6804FB023301229A55A5E700BF0000000072B32DE9A7
:2028C000F04302380027C2EBC27E00EB42054FEA4E0EBC463E464FEA42094FF0010805EB6E
:2028E0000E03C81909E014F14B0F0ADB4CB1AB4280F8008000F1010008D033F9024FFF2C65
:20290000F1D1AB42067000F10100F6D10CF1010C62454D441744E2D1BDE8F083704700BFFB
:202920002DE9F04F2DED028B1C4613FB03F389B007336D4600AFDB08A5EBC30305469D46F9
:20294000BD60E51D9246D7E91409224605F4FC758B466946C7F804A0FFF76CFAC7F814D0EF
:20296000ADEB050D684600216E46386005F0B6FFADEB050D224668460021D046EA4605F0CC
:20298000ADFFC4B135460026B446C6465E465EB12B780EEB0C000021027801311344DBB263
:2029A000B1422B702044F7D10CF1010C644505F10105ECD1B346B348B34E01F0B5FFB3485C
:2029C00001F03AFEBB6803F1FF389D1C18F8011F304601F031FEA845F8D1AD4801F0A4FFC2
:2029E000BBF1000F00F09680BB689FEDAA8A03EB0B05C7E906B4C7E903A5D7F858A0002686
:202A0000984618F8061019F80140012C00F02B81FA697869F0EE486A43464FF0FE0B02FBF5
:202A2000010E6FEA080CF0EE005AB6EE006A13F8012B1EF802000CEB0304B8B1A6420AEB41
:202A4000820013D019F8024090ED007A012C14BFF0EE467AF0EE657A67EE877AF4EEE67AD4
:202A6000F1EE10FAC4BFF0EE676A9346AB42DED1BBF1FE0F11D05A46874801F0DDFDFB698E
:202A800018F80620F96D01338B4402FB03339B44F96801238B548BF80130BB6901369E4232
:202AA000AFD17B68D7F80CA0D7F80890FC69013BFB612CB304F10108FE6945464FF0000BBB
:202AC00005E00BF101018C428B46454418DD16F8012F002AF5D0594699F800206E4801F0D2
:202AE000ABFDFA6D99F8000001232A440BEB030102448C420AF80B30454453708B46E6DC7A
:202B0000FA692244FA613A6909F101099145D0D1D7F818B06200D31D03F47E73ADEB030DFA
:202B20006846FF21FA616D4605F0D8FE002C00F094803B685E1EBB684FF0000E704603EB8B
:202B40000B01984604E000F1010C64451CD0604616F8013F002BF6D1BBF1000F0AD0434610
:202B6000012213F801CB844508BF00229942F8D1002AE8D000F1010C0EF10103644505F87C
:202B80001E005FFA83FEE2D19FED425AD7F858B0002605F1010EF0EE005AB6EE006A4FF0DB
:202BA000010904E0864206F1010334D01E4615F81620FF2AF6D07B690CFB0232013A5946D1
:202BC0000023F0EE456A00E0434612F8014F03F10108C4B11AF8034091ED007A012C14BFC3
:202BE000F0EE467AF0EE657A67EE877AF4EEE67AF1EE10FA07DD0EF8163015F816400AF864
:202C00000490F0EE676A834201F10401DCD1864206F10103CAD1FB69DFF87C8003F1010A74
:202C20005544D7F85CA0744602364FF0010914F8011CFF290ED02278FF2A40460AD001F0B2
:202C4000FBFC14F8013C227803FB06635344134483F801900234AC42E9D12437BD46BDEC54
:202C6000028BBDE8F08F0D4801F0E6FCFB6918F80620F96801338C5402FB0333FA6DD454AA
:202C80000BE700BF788D0000988D0000888D00000892000000000000B08D00009C8D000044
:202CA0002DE9F041CB1D03F4FC7300AFADEB030D0E4604460A466846002105F00FFECEB1EA
:202CC000601E00EB060E6D467246EC460DEB0608694611F8013B10F8014F23449042DBB2C2
:202CE000F9D1414500EB060201F8013C704604D0B644EEE7BD46BDE8F081741EDFF82080E0
:202D00006444013DCCF1010601E0AC42F2D0711915F8013F002BF8D1404601F08DFCF4E7D2
:202D2000C48D0000012921DDF0B55C1E4618431C13F8015B04F8015FB342F9D1451E561EE5
:202D400005EB410501F1FF3E8C46012700EB0C03324613F8014F02F8014FAB42F9D101370E
:202D6000B94276448C440D44F0D1F0BD704700BF2DE9F04F12FB02F489B0561E0734F6B2B1
:202D8000EC46E4081546ACEBC40416FB06F202F1070804AFA546E9464FEAD808A9EBC80806
:202DA00006F1070E04AC4FEA420CC5460EF4FC7E0DF110090CF1070CADEB0E0D4FEADC0C4E
:202DC000804668468E46A0EBCC0004A9F960854600214846C7E9003E05F080FDD7F80CA0F9
:202DE00032460021504605F079FD21462A464046FFF764FD204653464A462946FFF792FF00
:202E000004AC31464846BC60FFF74AFF012D1BDDA8F1020202EB85024FEA450BAE464FF0AF
:202E2000000C0120A4F1020A08EB4E030AEB4C0133F8024F21F8024F9342F9D101308542C1
:202E4000AE44B4445A44EFD1BB6B0293BB6801937D680095D7F80C80324643464846032130
:202E6000FFF74AF906EB4602D31D03F4FF63ADEB030D04AC2046002105F030FDCDE901548B
:202E8000C7F80C80CDF80080B96B4B4632460320FFF726FB3968CDE90251FB68CDE90093E5
:202EA0002246B86B33460321FFF73AFD1437BD46BDE8F08F4FF4616303FB00F0000B704794
:202EC000054B10B51B689847044B5B689847044BBDE810405B681847588E0000148D00009D
:202EE000988E0000034A04499079D37903EB00230B807047F4130020D8130020064B074A96
:202F000001211960D2F8503513F0FF03FAD1C2F8FC3F0120704700BF1010004000100040BB
:202F2000A1B1192810D8DFE800F00D770F0F6E65605B453F0F3A0F0F0F36322E2A0F26221E
:202F40001E1A17130020704701207047022070477D230B6000207047002008607047102333
:202F60000B60002070470A230B600020704720230B600020704703230B6000207047082388
:202F80000B6000207047D8230B60002070471A230B60002070470B230B6000207047244B54
:202FA0001B780B6000207047224B93F900300B6000207047204B214A012082B018601368B5
:202FC000002BFCD00020106012681D4B0192019AD3F8483503F07F035B420B6002B070472C
:202FE000184B5B790B6000207047164B5B780B6000207047134BDB7800200860002BA1D00D
:2030000001230B6070470F4B1B7800200860002B98D004230B607047094B0B4AD3F8083568
:20302000A2FB03239B080A33DBB20B6000207047E3130020E4130020141000401C11004020
:2030400000100040BC010020CDCCCCCC0120704770B582B0FEF7D2FCBFF35F8F1C4B1B7886
:20306000ABB11C4B1C4902224FF0FF34C1F80843C3F88021C3F88020BFF34F8FBFF36F8F97
:20308000BFF35F8F02B0BDE87040FEF7BBBC134903F0FF020A600968114B019101991A60F0
:2030A0001A680D490B4B00924FF0FF3502224FF44054009EC1F80853C3F88021C1F80443D4
:2030C0001A60BFF35F8F02B0BDE87040FEF79ABCBC01002000E100E0001000403011004015
:2030E00034110040144BD3F8FC0F28B1D3F85035DBB2032B01D000207047104B1B7803F0A9
:20310000FF0073B10E4B1B78053B7A2BF3D80D4B1B68002BEFD10C4B1868B0FA80F04009F0
:203120007047074A1378053B7A2BE5D892F8800080F00100704700BF00100040BC0100203C
:20314000B405002030110040341100400D2801D001207047042A05D121B1034B1B680B60A0
:2031600000207047022070473806002070B51B4CD4F85055EDB2032D82B028D0184B194887
:20318000194AC4F804051949C3F8102501264FF00062C3F81415C3F80465C3F80425FFF70B
:2031A00057FFD4F8003243F01003C4F80032D4F80032022D43F40023C4F8003209D00C4BE2
:2031C0000C4A002119601B680193019B166002B070BD094B1E6002B070BD00BF0010004037
:2031E00000F00140B4050020381100404C80004058110040041000400810004070B52F4D3A
:203200002F49304A304B00242C6084B02D680095009D0C600968019101991460126802920B
:203220002A4D029A1C6029781B6803934B1F7A2B039A38D88C1E2246691C05F041FB2B197D
:203240005B783F2B2DD89B00DBB2214E214A3370D2F84835204A03F07F035B425BB299B26C
:203260000420137001F078F93178032001F074F91A4B2A781A491A74D1F84C055860D1F888
:20328000481599605200DA605D68104881220021023D1D6005F022FBFFF768FF204604B026
:2032A00070BDFF23D1E781222146284605F016FBFFF75CFF204604B070BD00BF38110040A9
:2032C0000C1100403411004030110040B4050020E313002000100040E413002038060020D7
:2032E0000080004010B5038804461BB340F2D332934224D1822901D0012010BD124A137854
:20330000053B7A2B16D8114B1B6813B992F8803083B103F0E1FD01F0B1F801F067F8802165
:20332000FFF76CFF002805DD80B201F059F8084BDB68984740F2D3332380012010BD00234D
:203340000380032010BD00BFB405002030110040148D00007D2910B50C4609D801460A4809
:20336000A31C00F8013B224605F0AAFA002010BD064A0749074801F05FF921467D220648E0
:2033800001F05AF9012010BD4C060020F48D0000048E0000508C0000088E000070B4164B7F
:2033A0001649174C0F22C3F810258A780A3A02EB8202C3F808250879CD798A7949791206E7
:2033C00042EA0522024342EA0142C3F86C2640F2022600250B48C3F834657F2140F201227E
:2033E000C3F83845C3F83C55C3F81405C3F81815C3F8502670BC704700100040BC0100204C
:20340000211001000800000608B5084BD3F8FC2F1AB1FFF7ABFE012008BD0122C3F8FC2F0D
:20342000FFF7BCFFFFF7A2FE012008BD0010004030B585B0FFF7E8FF104A11491148124CAD
:203440000023136015680395039D0B600D680295029D03600368019301230198236001E088
:203460000B6813B91368002BFAD0044A044B10681B68B0FA80F0400905B030BD4811004067
:20348000441100404C1100402C10004010B5072867D8DFE800F01A2A666648525A04364A0C
:2034A0003648C9B25171D0F8FC3F5BB11179D479937952791B0643EA04230B4343EA02435F
:2034C000C0F86C360024204610BD01294FD000294AD12B4A294B01211160D3F8504514F0CE
:2034E000FF04FAD1C3F8FC4FEDE7A1F10B030F2B3AD8214A214BC8B29070D3F8FC2F002AC7
:20350000E0D01F4A01201060D3F8504514F0FF04FAD10A3901EB8101C3F8FC4FC3F8081540
:20352000FFF772FFCFE731F007041DD1124BC1F380011970FFF78CFDC5E731F0010413D104
:203540000D4BC9B2D970204610BD0B4A0B4BC9B25170D3F8FC2F002AB4D0C3F80C15002491
:20356000B1E70124204610BD0224204610BDFFF74BFF0024A7E700BFBC0100200010004024
:203580001010004010B57D2884B04BD82C4CFFF73BFFE378002B3FD163782A4A2A49DBB27D
:2035A0000120C2F80C350860D2F85035DBB2022BFAD12649264BC2F8043500230B600868E2
:2035C000019001980B66086E029002988B648B6C0393039BD2F8003223F01003C2F8003286
:2035E000D2F80032012143F48023C2F80032116001F08AFA6FF002031C1A01F085FAE042D5
:20360000FBD4104AD2F85035DBB20B2BFAD0FFF7ADFD002004B010BDFFF70AFF0028BBD1B1
:203620000220F7E70B4A0C4904460C4801F004F821460B4801F000F8012004B010BD00BF51
:20364000BC010020001000400C1000400C1100404C060020F48D0000048E0000508C000023
:20366000248E000010B50C46FFF774FE2046BDE81040FFF787BF00BF10B51A491A481B4AD4
:203680001B4C00230B6003704B6023708B6082B0CB600B741360136800934FF08043012118
:2036A000009819601368002BFCD0002414601368019321460F48019B01F06CF82146812227
:2036C0000D4805F00BF90D4B0122C3F8FC2FFFF765FE0B4A1378DBB21370FFF7B9FC2046E1
:2036E00002B010BD38060020E313002000010040E4130020AC010020B40500200010004089
:20370000BC010020074A1378053B7A2B07D8064B1B6813B992F880007047012070470020D3
:20372000704700BFB405002030110040154B1B7803B1704700B503F0FF02134B196883B0A0
:2037400029B9124B1A6882B903B05DF804FB1A601B6800930E480F4B009A012283F880204E
:2037600003B05DF804EB01F0CFB819601B68019381220848019B05F0B1F803B05DF804EB26
:20378000FFF7F4BCBC0100203011004034110040AC010020B405002010B568B90E4CA368AF
:2037A000012262703BB1D3E900230020A2609847A368002BF7D110BD0128FCD1064C2369A9
:2037C000A070002BF7D0D3E900230120226198472369002BF7D110BDCC06002010B50B4C2B
:2037E000237882B013B1852002B010BD08486360A3602361E36000F03BF8019000F044F857
:2038000001980123237002B010BD00BFCC0600209937000038B5154DAB78044673B110B1B7
:203820004368012098470020FCF71EFEEB680133EB600020BDE83840FCF71EBE03F0FF00DE
:20384000FCF712FE64B12A6942B1944208D0134601E09C4204D01B68002BFAD122602C61A8
:20386000EB68002BE2D100F025F8DFE7CC060020044A137923B901211060918018467047E4
:2038800085207047E0060020084B1A68D20704D4C02283F8002301221A60054A4FF08041D4
:2038A0000123C1F818351370704700BF00E100E03714002010B4094B094A0021196083B081
:2038C0001B680193019C4FF0804102200123C1F80403136003B05DF8044B70470401004068
:2038E0000800004010B5174B1A6882B062B10021154A19601B68507900934FF08041012396
:20390000009CC1F8083398B1104B1A68BAB100221A601B6801934FF0804202210A4B0198C1
:20392000C2F808131B68012002B0BDE810401847116853718847054B1A68002AE7D102B096
:2039400010BD00BF00010040E00600200401004030B41F4C94F86A3082B0002B33D104F184
:203960002F03204604F15F01FF2203F8012F8B42FBD14FF0FF3222600123072B88BFE118ED
:2039800003F1010340F8042F88BF81F858200C2BF3D11049104B0020C0228880606683F892
:2039A000062340221A600D4B0D4A18601B680193019D01214FF0004384F86A10C2F804339B
:2039C00002B030BC7047082002B030BC704700BFE80600204C07002000E100E07C610040F7
:2039E00000600040034B93F86A00003818BF0120704700BFE8060020F0B4454F3B1893F919
:203A00003030002B5DDA91F802C0CCF3400CBCF1000F0CBF0823002307EB8304A4F10404A3
:203A20000CBF0C26082602E001339E424CD954F8045F0135F8D13C1847F8232084F83030E0
:203A4000BCF1000F4FD08A7854071AD4D5074ED41F284C7887BF2F4D00F01F0202464FF0DD
:203A6000A04502F5E072A40045F822402A4DC40800F0070C2E5D012202FA0CF232432A55F3
:203A80008A7812F0020222D09B0003F1804303F5C0430978D3F8104524F44F3424F44074D7
:203AA000C3F8104502020904D3F8100501F4403102F47C520A430243C3F810250020F0BC8D
:203AC00070470820F0BC70470420F0BC7047083B1F44097897F8603043EA811387F8603007
:203AE0001046F0BC7047FA1882F85800ABE71F2887BF084A00F01F0404464FF0A04202EB4D
:203B00008402D2F8004724F00204C2F80047ADE7E8060020000300504C07002070B4324CE9
:203B2000251883B095F93030072B22DD234493F858309B09032B46D0012B0CBF4FF4003228
:203B40004FF440321F288ABF284B4FF0A04300F01F0003EB8000D0F8003723F44033C0F8CD
:203B60000037D0F800371A43C0F8002703B070BC7047DAB2072AF9D8980000F1804000F571
:203B8000C04003F140029200D0F8106592B202F1804202F5C04246F00106C0F810650020A4
:203BA000106012680192019A0029DFD095F9302054F82220002AD9D00D49012202FA03F36B
:203BC000C1F80433D2E71F288ABF084A4FF0A04200F01F03D2F8102598BF0346DA4002F07C
:203BE000010202321204ADE7E80600200003005000600040194B034493F93030072B13DD2A
:203C00001F288ABF164B4FF0A04300F01F0003EB8000D0F8003723F44033C0F80037D0F8D4
:203C20000037C0F800377047DAB2072A14D810B49A0002F1804202F5C0420A4CD2F81005BD
:203C4000012120F0010001FA03F3C2F81005C4F808335DF8044B7047704700BFE80600209B
:203C600000030050006000402DE9F04F002289B0CDE9022216461546704B714C71480122BC
:203C800004E0043383424FEA420211D019680129F7D1D4F804131142F3D01D6019680091EB
:203CA0000433834246EA020600994FEA4202EDD1654B1A68012A07D016F0FF0F17D1002E9E
:203CC00032DB09B0BDE8F08F00221A601B6801934FF0A042019BD2F810255C4B0292D3F885
:203CE0001035039316F0FF0F1ED046F00046584F01250024A30003F180432E4203F5C043B5
:203D00004FEA45050BD0D3F8100557F82420D3F81015C0F30520C1F3014102B19047013455
:203D2000082CE7D1002ECCDA4FF0FF33494D0DF1100ACDE906330022CAF804200492A5F181
:203D40006408454C0027012614F9010B431C32D0C0F3C20E08AB03EB0E0C00F007031CF852
:203D6000081C06FA03F31942C2B200F03F0022D008EB0009910999F9309058F82990B9F19E
:203D8000000F4CD003294CD01F288BBFDFF8BCE04FF0A04E02F01F0202460EEB82021CF893
:203DA00018ECD2F800C71EEA030FCCF3014C1BD1BCF1030F3CD0A542C6D1002F81D04FF054
:203DC000A0430299D3F81035204A9942D2F8102503D1039991423FF474AFDDE90401CDE9F7
:203DE0000232CDE90601ACE7BCF1020FE3D1032904D0B9F1000FDED0C847DCE74FF4403CD5
:203E0000D2F8003723F44033C2F80037D2F8003701374CEA0303FFB2C2F80037E9E7032913
:203E2000C9D11AF80EB04BEA030B0AF80EB0ABE70329DED14FF4003CE2E700BF0061004000
:203E400000600040206100407C61004000030050E80600204C0700204807002010B54FF09D
:203E6000804386B0D3F80443620705D5D3F8082103F58473002A4ED1A30603D52A4B1A6850
:203E8000002A3FD1600603D5284B1A68002A2FD1210602D5264B1A680ABBE20502D5254BA7
:203EA0001A6892B9A3050ED5234B1A685AB100221A601A68214B0592059A1B68022006B094
:203EC000BDE81040184706B010BD00221A601B4A1B68049301201368049A9847E2E70020EE
:203EE0001860164A1B6803931368039A9847D4E700221A60124A1B68029301201368029AD7
:203F00009847C5E7002018600D4A1B6801931368019A9847B6E700221A600A4A1B68009378
:203F20001368009A9847A7E714010040180100401C01004020010040240100405C070020AB
:203F4000580700205407002008B5FFF787FFBDE80840FFF7C7BC00BF074B0849084A0020F4
:203F6000186082B01B680193019BD1F808051368C0B202B0184700BF00D1004000D0004030
:203F80006007002070B443791E4C1F4E03EB430546F82320655D8DBB90F904308A78002B38
:203FA00024DB03F1604303F561435201D2B283F8002390F90430002B07DB144D03F01F0617
:203FC00001225B09B24045F8232003680A88C3F8082543790879C97803EB4303E218012531
:203FE00050709170E554002070BC7047084D03F00F0352011D44D2B22A76DAE7082070BC7D
:20400000704700BF640700206807002000E100E0FCEC00E00368044A01211960437903EB89
:2040200043030221D15470476407002010B403680022C3F8002183B0D3F800310268019356
:204040000123019CC2F8443311B10268C2F8043303B05DF8044B70472DE9F041274F284E10
:20406000DFF8A08084B000244FF48035D7F804332B4211D056F824200023E0B262B1C7F88C
:204080004853C7F8085346F8243056F824300393D8F80030039A98470134032C4FEA45053E
:2040A000E4D1164BD3F80423D10702D5D3F80021C2B9124BD3F80423920710D5D3F8042125
:2040C0006AB10022C3F80421D3F804210D4B0192019A1B68052004B0BDE8F041184704B008
:2040E000BDE8F0810022C3F80021064AD3F80031029304201368029A9847DAE700B0004000
:2041000040B100406807002010B5074C236882B03BB1064B1B6898470023236023680193A6
:20412000019B02B010BD00BF000101406C07002070B5114B114A1D781160DDB9104E027880
:2041400001211970C6F80C25416804464FF47A720023C803490C04F029FAC6F80405237AE5
:20416000084A5B01DBB282F810334FF480331360284670BD082070BDE61300206C07002042
:204180000000014000E100E0044B054901220220C3F804231A600870704700BF00000140B0
:2041A000E613002010B504460020FCF75DF90E4A1378072B11D80D492370581C1070D1F8CA
:2041C0000805012202FA03F30343C1F8083500240020FCF751F9204610BD04240020FCF792
:2041E0004BF9204610BD00BFE513002000000140034B044A00F5C07043F82020704700BF7E
:20420000000001403546526E014B00221A6070477007002010B5044600F030F90D4A0E4B14
:204220001188186800F03AF974B121460D2000F0A1F90A490C2000F09DF9094B0021084637
:204240009B689847012010BD06490D2000F092F9EFE700BF0414002000140020F41300206F
:20426000148D0000588D000030B50E4B1C6883B0B4B100F0BBF8054600F0CCF801460C2049
:20428000019100F083F900900D2000F07FF9DDE900210346A446284603B0BDE83040604704
:2042A00003B030BD70070020014B1860704700BF70070020704700BF704700BF0020704733
:2042C000002070470020704701207047704700BF0120704701207047704700BF00207047E5
:2042E000704700BF00207047704700BF704700BF0020704701207047012070470020704727
:20430000704700BF2DE9F0410E4A0F4B16781F88F419802C03DD00242046BDE8F081DFF8E9
:20432000308032464146054604F0CAFA074B1B7833443A46A81958FA83F104F0C1FA204653
:20434000BDE8F081E7130020DA130020DC1300207407002070B4134B134D144A2C781B78FF
:204360001288234452FA83F39BB21A18802A15DC013B1BB2002B0CDB0D4A591C1E181144EE
:204380003244013B11F8016D02F801691BB25E1CF7D120442870012070BC7047002070BC35
:2043A000704700BFDC130020E7130020DA13002074070020084A138883420BDB10B407490A
:2043C0000C8880B21B1A20440880138001205DF8044B704700207047DA130020DC130020F4
:2043E000014B1880704700BFDA130020044A054B12781B780448134450FA83F0704700BFC5
:20440000DC130020E7130020740700200048704774070020014B1888704700BFDA130020CF
:204420000549064A064B127808781B88104453FA80F080B2704700BFE7130020DC130020FE
:20444000DA13002010B50A4B0A4C0B49002220461A605A609A60DA601A615A61FDF78AFBEC
:2044600004F108000449BDE81040FDF783BB00BF1814002008140020588D00000448054905
:20448000054A002303800B801370FFF7DBBF00BFDC130020DA130020E713002070B58029C6
:2044A00082B00B4A0B4D0C4E01900C464FF0000328BF8024137033802B80FFF7C3FF0199E0
:2044C0000648224604F0FCF920462C8002B070BDE7130020DA130020DC130020740700207B
:2044E000F0B40C4B0C4A1C685D689F68DE68C6600460456087601C695D69456104615468AD
:204500009068D36812680A604C608860F0BCCB60704700BF181400200814002070B40C4BA0
:20452000026844688568C668DE601A605C609D60026944695C611A61064B0C6848688A6822
:20454000C968D9601C6058609A6070BC704700BF1814002008140020024B23F810100120F0
:20456000704700BF18140020014B33F8100070471814002008B5044B0C3803EBC000FDF7FD
:20458000F9FA012008BD00BF08140020024B0C3803EBC000704700BF0814002001490248C2
:2045A000FDF7EEBA588D00001014002008B5FDF71BFABDE80840FDF7BBBA00BF08B5FCF7AB
:2045C00045F8002000F028FA02F002FC00F002FC4FF08052064BD2F8A800D2F8A4205A6072
:2045E0004CF6F4613622D87019809A7008BD00BFF41300200148002100F0CCB8F001002047
:2046000010B5FDF7FBF90446BFF35F8F00F050F900B930BFBFF35F8F2046BDE81040FDF733
:20462000F1B900BF0AB90020704708B508461146FCF70AFD002008BD0FB400B583B004AADD
:20464000054852F8041B019201F044FD03B05DF804EB04B0704700BFD00100202DE9F8437C
:20466000DFF8A880D8F80040844205460F4645D0002C36D0234601E0002B32D01B689D42A5
:20468000FAD173B3204EAB7BD6F80090F3B10023AB73002C34D0A54209D0A37B13F0010F31
:2046A00020462A464FF0870101D000F031F82468002CF0D1AB683BB1BD4205D03560002270
:2046C000832105F10C009847D8F80040A5420AD02CB12368AB420CD01C46002CF9D1C6F83D
:2046E0000090BDE8F8832B68C8F80030C6F80090F7E72B682360C6F80090F2E72346C0E70E
:20470000AB68002BD8D1EAE774090020780900208368BBB170B504460B4E0220A0733460BB
:2047200004F10C000D4698470238012804D9832D02D00123A37370BD21462046BDE87040FB
:20474000FFF78CBF704700BF7409002038B50B4A0B4B146800221A707CB1012501E0246885
:204760005CB1E37B002BFAD0E581204600228221FFF7CEFF2468002CF3D138BD7809002073
:20478000EB130020024B1878421C1A70704700BFE913002070B50E4D2C68844207D00A46A3
:2047A00034B1234600E01BB11B689842FBD170BD0028FCD0074E0460012100233468817327
:2047C000838181212860FFF7A3FF346070BD00BF780900207409002030B4074B074808497F
:2047E000084A094C8A251D70002303700B601360237030BC704700BFE9130020EA13002034
:204800007809002074090020E81300202DE9F041224D2B78FBB9224E3378C3B12148224CCC
:20482000027802EB420704EB8701013202F01F02013B0270886814F82770D1F80480DBB2F0
:20484000337058B1812F1ED0827BD2071DD428781844BDE8F081FFF779FFDCE7134A14682B
:204860005CB9F4E7A37B13F0010F20464246394601D0FFF74DFF24685CB12B78002BF1D06F
:20488000FFF764FFEEE70123837342463946FFF73FFF337828781844BDE8F081EB130020BA
:2048A000EA130020E8130020F407002078090020024A034B10781B7818447047EA1300201F
:2048C000EB13002070B40D4D2C78202C12D00C4B0C4E1B78234403F01F0303EB4303013441
:2048E0002C7006EB8304C4E9012006F82310002070BC7047012070BC704700BFEA130020C2
:20490000E8130020F407002018B1837B013B012B00D97047024A01231370C373704700BF03
:20492000EB130020FCF788BB10B5044603F0DEFF01462046FCF788FBBDE810400A20FCF70F
:204940007BBB00BF08B50448FDF71CFABDE808400248FDF717BA00BFE4010020D801002096
:2049600038B50E48FDF720FA044678B10C48FDF71BFA0546206058B1FFF7C4FC05F19A01FB
:20498000A5F8800005F18200FFF7AAFD204638BD214602482C46FDF723FAF7E7D80100207F
:2049A000E4010020006800F19A018230FFF798BD10B5014604460748FDF72EFA00B910BDBA
:2049C00021680548FDF70CFA21460248BDE81040FDF706BAD8010020E401002010B50146A3
:2049E00004460948FDF718FA00B910BD2468B4F880102046FFF752FD04F19A0104F1820016
:204A0000BDE81040FFF78ABDD801002008B502F0D5FA80B208BD00BF0F4B01210022196020
:204A20001946C3F80021D1F80031002BFBD0D1F80805094A0023C0B2C1F80031D2F80031A8
:204A4000002BFBD0D2F80815012340EA012080B2536002F085BA00BF00D000400023013AC7
:204A60000271016043718371704700BF10B4817942790479521A224208D003464A1C00688F
:204A80002240405C9A715DF8044B70474FF0FF30F9E700BF10B4164A164B17490020106030
:204AA00083B012680192019AD3F8102522F00F0242F00802C3F81025D3F8082542F003029D
:204AC000C3F80825D3F804254FF4803422F003024FF48070C3F80425C3F80443C1F8800199
:204AE000086001221A6003B05DF8044B704700BF408100400080004000E100E0014BC3F85B
:204B00004005704700800040034A044B01211160D3F84405704700BF44800040008000405C
:204B2000064B1A6802B97047002282B01A601B680193019B02B000F005B800BF4081004090
:204B4000FFF7A8BF10B5084C206858B1D0E90131002222609847236823B1BDE8104018680C
:204B6000FFF7CCBF10BD00BFFC0E002010B4174B83B000220124ADF8042000921946C3F8E9
:204B80002CD61C60D1F80031002BFBD0002401230E4AC1F800414B60D2F80431002BFBD06D
:204BA000002401230949C2F804419360D1F81431002BFBD002AB03EB40000023C1F8143169
:204BC00030F9080C03B05DF8044B70470070004001207047802801D00120704730B4144B6E
:204BE00014490120C3F8000500224FF4003509240720C3F81855C3F810450825C3F8142530
:204C00000224C3F82815C3F820050320C3F82425C3F83815C3F83055C3F83425C3F8F04523
:204C2000C3F8F425C3F8300630BC0120704700BF00700040001202002DE9F0410488752CF4
:204C4000064607D07C2C37D0A4B1002303800320BDE8F081DFF8D0802E4D98F800202E4F7F
:204C600000233B602B6012B32C4CE256002A41DB2B6832E02A4F274DFFF784FD294B3A6811
:204C800018702C60002A43D02346244C984604F8038000219368802098472B6801332B60A0
:204CA00057F82320002AF2D1DBB21F4A1370752333800120BDE8F0811A4B1B788B4216D1CE
:204CC000144D164CDFF86080134F2B683A68E15C01F07F010132E1543A6098F8002001332F
:204CE00093422B60C1DB3B68002BB9D1DFE70120BDE8F0810A4A0B4952F82320097800208D
:204D0000FFF7E0FD0028E0D17C23338001209FE71346CAE7040F0020000F0020FC13002053
:204D2000C401002038140020EC13002070B50488672C06461BD0792C33D05CB3002303802B
:204D4000032070BD1E4C1F4923681F4A0978581C002520602846D554FFF7B4FD1B4B2A468F
:204D600018688521FFF7AEFD30B300232360184C134D06E00A28E5D00D28E3D02B687E2B2E
:204D800015DD2046FFF772FE431CF3D167233380012070BDFFF7F6FC0A4A094B10701C601B
:204DA000E5E7852901D0012070BD054CDDE706495A1CC8542A60E4E779233380012070BD72
:204DC000880F002039140020080F0020740900208C0F002008B5054905488022FFF73EFEF4
:204DE000BDE8084003480021FFF7D4BC940F00208C0F00200002002038B505460948FCF7B8
:204E0000CBFE58B1044601E024683CB12946201DFCF7B6FE0028F7D0204638BD00242046F5
:204E200038BD00BF301100202DE9F84F384C3948FFF702FC2368002B1EDDDFF8E090DFF838
:204E4000E4A04F464FF000084E46002530463946FCF796FE083620B90135092DF6D14FF62E
:204E6000FF7529465046FFF7E7FB236808F10108434507F10807E7DC0A20FFF753FD236807
:204E8000002B42DDDFF8A080234DDFF8A090234E0027DFF888B04FF0000A58463146FCF762
:204EA0006FFE0BF1080B30B90AF1010ABAF1090FF3D14FF6FF7A1A485146FFF7BDFB236810
:204EC000002B17DDC3464FF0000A06E0FFF7B4FB21680AF1010A51450CDD3BF9021B4B1C10
:204EE0002846F3D14846FFF7A7FB21680AF1010A5145F2DC0A20FFF715FD23680137BB4275
:204F000008F1100806F10806C3DCBDE8F88F00BF70020020388F0000648F00003002002053
:204F2000588F0000508F00001C1000205C8F00002DE9F041134FDFF850803B68002B06460A
:204F400012DD0024454603E03B680134A34209DD29463046FCF714FE08350028F4D02046B4
:204F6000BDE8F081072B0ADC08EBC3003146FCF701FE3C68631C3B602046BDE8F0814FF06B
:204F8000FF34ECE7700200203002002038B505460948FCF701FE60B1044601E0246844B1EF
:204FA0002946201DFCF7ECFD0028F7D004F10C0038BD002038BD00BF301100202DE9F04FFA
:204FC000048887B00546002C00F0E98040F276239C4240F0DE80904BDFF89CA25F68DFF879
:204FE0009C92DFF89C828D4E0120B847CAF800000220B8470346DAF80000C9F80030FBF7B2
:205000004FF90346D9F80000C8F80030FBF77CF9034600203360B84780B2FDF74BFF804AA2
:20502000804B10605B68002098477F49DFF854E2D1F80090D8F800207C4BDFF84CC2DFF8D2
:205040004C824EF829200028B8BF033009F101028010366843F82960022A4CF829000A602F
:20506000C8F8000040F3AF80714E724F30681A680390D3E9010A3B68049305976E4B039FE9
:205080001F60BB18049FDFF808926C4A03445344BA46DEF80070DCF80000BA44D9F80070BD
:2050A000384482FB037BABEBE373DEE901BED344DCE901AC039F33605044FB1A6044DFF825
:2050C000ACC1049FCCF80070DE44002B82FB0ECADFF8C0B1574F82FB00C2B8BF5B42A2EB1C
:2050E000E070AAEBEE7E4FF0010C0022132BC7F800E0C9F800008BF800C00A600DDD049B1D
:20510000A3EB0E0EBEF1000FB8BFCEF1000EBEF5FA7F02DB01238BF80030DFF87C9148498E
:205120004846032300F8023BFCF724FD059B3C4A31681B681268D8F800604248C9E9033116
:20514000C9E90526FFF722FF00285CD03E493F4A3F4BC1F800901C21DB68118098473D4AAD
:205160003D493E48FFF768FAD9F80C300093D9E90423D9F818103A48FFF75EFA00238BF8D3
:2051800000303848FCF738F801202C8007B0BDE8F08F002403202C8007B0BDE8F08F31484D
:2051A0004FF4C071FCF71EF82F4B1A884FF651539A4240F2762316BF1C46032001202C809F
:2051C00007B0BDE8F08F1C4B194E1B683268DFF8C4B09B1A002BB8BF5B42132B06DC9BF817
:2051E0000030002BCDD0134B059396E7114A1F4B05921B6812689B1A002BB8BF5B42B3F54F
:20520000FA7FECDB86E7134A19491448FFF714FA1848FFF789FBB1E7108F0000CC100020B5
:20522000B813002080960000D0100020BC100020B4100020D4100020B8100020565555555C
:20524000F4130020141000200014002004140020988E00006C8F0000488C0000508C0000A6
:20526000748F000084130020D8130020D8100020C08F0000C88F0000E8100020C8100020AB
:20528000EC100020DC1000209C1300209413002098130020EE1300204C1100202DE9F04F92
:2052A0002A4A2B492B4885B0FFF7C6F92A48FFF73BFB2A48FCF770FC00283BD0DFF88CB0F4
:2052C000DFF88CA007464FF00008254C07F104092646002530464946FCF752FC083620B9D3
:2052E0000135092DF6D14FF6FF7507F10C09002620464946FCF744FC083420B90136092EE4
:20530000F6D14FF6FF765A4651461248FFF794F93B8B0293B7F9163001933B7D0093414641
:20532000104833462A46FFF787F93F6808F10108002FCAD1054A06490648FFF77DF90A4899
:2053400005B0BDE8F04FFFF7EFBA00BF6C8F0000488C0000508C0000DC8F000030110020DF
:205360003002002064900000209000002DE9F84381460F48BDF820800F4616461D46FCF76C
:2053800013FD98B1044649460430FCF7F3FB394604F10C00FCF7EEFB2675E582A4F8188034
:2053A00021460448BDE8F843FCF7F8BBBDE8F8838002002030110020F0B5048885B00646DF
:2053C000FCB140F251239C4216D16048FBF71EFF002800F081805E4C2378632B7FD95D4A13
:2053E0005D495E48FFF728F95D48FFF79DFA00230220338005B0F0BD00230320338005B010
:20540000F0BD544A5449574F5448FFF715F95648FFF78AFAFD6A0C210120A847BB6A03A9D1
:20542000012098474B4A4C494C48FFF705F903994E48FFF701F921460620A847454A054642
:20544000002840D144494548FFF7F6F848482946FFF7F2F84748484DFFF76AFD00242A4621
:2054600000239C420CBFFF2100210133082B22F8021BF6D10134082C05F11005EFD13F48FF
:20548000FCF780FC3E48FCF783FB3A49002308461A460093FFF76AFF3A48FEF705FF3A4B60
:2054A0003A491A884FF6515301209A420880A3D126484FF42071FBF795FE40F25123012057
:2054C000338005B0F0BD32492448FFF7B5F821463048FFF7B1F8BDE7012005B0F0BD2E4D0D
:2054E0000020FCF793FA2846012300F8023B2149FCF740FB05F10A001E49FCF73BFB234AB0
:2055000026491388DFF8A0C00D60AB8224490133002713801623ACF80030C968AF74384676
:2055200088470C4A0C490D48FFF786F821781D480131FFF781F83846FCF794FA23780348A4
:2055400001332370FBF758FEB7E700BFA8130020ED1300206C8F0000488C0000508C000039
:2055600010910000588E0000A4900000B8900000F8900000F41300201C100020800200208B
:205580003011002069560000D8130020DE130020C08F0000D4900000341100200014002083
:2055A000988E000034910000041400202DE9F04182B01646BDF820801F460546FFF71CFCE0
:2055C00098B1044617490430FCF7DAFA50B9238B434507D2B4F91630DB1B002BB8BF5B429D
:2055E000052B15DC02B0BDE8F0813B46324629462846CDF80080FFF7B9FE0B4A0B490C48FD
:20560000FFF71AF80B4802B0BDE8F041FFF78CB9054A06490648FFF70FF80748FFF784F9C1
:20562000E782DFE7F41300206C8F0000488C0000508C0000549100008091000038B505463B
:205640000848FCF7A9FA50B1044601E0246834B12946201DFCF794FA0028F7D038BD002096
:2056600038BD00BF301100202DE9F04F044687B001200D461746FCF7C9F92678731E032B5C
:2056800000F29C82DFE813F01600C000FA000400142D00F08381A649A64AA748FEF7CCFF99
:2056A000A6482946FEF7C8FF0120FCF7DBF907B0BDE8F08F0420FEF757FF45B215F1450F4E
:2056C000C0F22D819E4B1A884FF651539A424FF0010000F0968004F10A06FCF797F9994F64
:2056E0009948314604F10208FCF744FA414604A8FCF740FA3A88A38A9A4206D904A8FFF776
:205700009DFF002840F03D82A38A90493B804046FCF730FA2DB2A38A009304A908462B4667
:205720000122FFF743FF314604A8FCF729FA002800F01E8286497F4A7F48DFF84082854F51
:20574000854DFEF779FF8548FFF7EEF8844BC8F8004016223A80DE680020B04728460223B0
:2057600000F8023B7949A48AFCF704FA00237D48AC81AB72FCF710FA0446011D05F10E0078
:205780000391FCF7F7F914B3039905F1160A05F11E0900E0211D5046FCF7ECF904F10C016E
:2057A0004846FCF7E7F9237D85F82630B4F916302B85238B6B850620FBF710F82C23C8F8A5
:2057C00000503B8004A8B0472468002CE2D1594A5F495948644DFEF72FFF6448FFF7A4F8B2
:2057E0000024284604A9FCF7CBF9083520B90134092CF6D14FF6FF745D482146FEF71CFF98
:205800000120FCF72FF94FE70120FCF7FFF8494A4F494948FEF710FF5648FFF785F8A37A1D
:2058200004940133A3720420FEF79EFE43B213F1450F74DB04998A7A8989009138463946F5
:20584000FFF7B4FE3E4B42491A883B484FF651539A42384A00F05D81FEF7EEFE4648474C50
:20586000FFF762F83848FFF791FB3A4A3C4B04AD0421DB6825601180984715E70420FEF7A8
:2058800073FE40B245304ADB3D4E20686168A268E36835460FC5337820696169A269032B54
:2058A00007C57FF401AF234A294923482E4DFEF7C3FE0024B71C28463946FCF761F9083510
:2058C00020B90134092CF6D14FF6FF7421462D48FEF7B2FE174A1E491748FEF7ADFE7169E4
:2058E0002948FEF7A9FE134A19491348FEF7A4FEB1692648FEF7A0FE0E4A15490E48FEF7CE
:205900009BFEF1682248FEF797FE0A4A10490A48FEF792FE31691F48FEF78EFEC4E6054AA2
:2059200003490548FEF788FE1B48FEF785FEBBE6C08F00006C8F0000508C000054930000CA
:20594000D8130020DE13002014100020F4130020488C00000414002054120020E0910000BD
:20596000988E000030110020300200200C9200002C92000048920000A492000000140020AE
:2059800080120020D8920000F892000010930000289300003C930000A49100000420FEF7E6
:2059A000E3FD8B4A8B49DFF83C8281468A48FEF743FE8A48FEF7B8FF854A86498648FEF71B
:2059C0003BFE4FFA89F94646A71C002530463946FCF7D6F8083620B90135092DF6D14FF60A
:2059E000FF7529467E487F4EFEF726FE784A79497948FEF721FE04F10A0A00253046514684
:205A0000FCF7BEF8083620B90135092DF6D14FF6FF7529467448FEF70FFE6D4A6D496E488A
:205A2000FEF70AFE618A7148FEF706FE19F14A0FFFF675AF6E493846FCF7A2F800285CD03A
:205A40006C48FCF79FF96C48FCF7A2F86948FCF7ABF9064600283FF427AE00F1040B584664
:205A6000394606F10C0AFCF785F839465046FCF781F801236048A6F81690337533833146C4
:205A8000FCF78CF8574D002428465946FCF778F8083520B90134092CF6D14FF6FF74002533
:205AA00040465146FCF76CF808F1080820B90135092DF5D14FF6FF75454A46494648FEF704
:205AC000BBFD4E48FEF730FF414A42494248FEF7B3FD328B337D0192B6F916200092214631
:205AE0002A464748FEF7A8FD394A3A493A48FEF7A3FD4448FEF718FFD6E54349434A444BF5
:205B00000C6038461421DC681180FFF73FFAA047CAE5FEF791FD3F48FEF706FF04980230FA
:205B2000FFF706FA431C04463FD004981630FFF7FFF9844231D0049D374BB5F9282000EB1C
:205B4000C40104EBC00423F8112023F8142095F82620698DB5F928300091013205F1160093
:205B60003946D2B2FFF722FD0120FBF77BFF9BE5A38A0093A27C2B46304604A9FFF716FD85
:205B8000D8E50120FBF76EFF114A12491248FEF753FD2248FEF7C8FE86E51F4B049D04EBE9
:205BA000C404FF2223F81420D1E7094A1C490A48FEF742FD1B48FEF7B7FE75E5044A1849A1
:205BC0000548FEF739FD31461748FEF735FD6EE56C8F0000488C0000508C00006C93000053
:205BE0008893000030020020A0930000B4930000F41300207402002050120020CC93000020
:205C000014940000549400000014002004140020988E0000649200001C100020C0910000CF
:205C2000C08F0000889200009C940000544BD3F800C0BCF1010F40F3A1802DE9F04FDFF864
:205C40005C91504EDFF844814F4F89B00123C51D4C46019360462A46002312F8011F01298D
:205C60000DD001339842F8DC484A49494948FEF7E3FC4948FEF7E0FC09B0BDE8F08F474A0C
:205C800002EBC30393E80300424686E8030039464048FEF7D1FC4248FEF7CEFC04F10803C8
:205CA00003CB384BCDF80E00CDF8121003CB4FF0040C05234246CDF81600CDF81A103548C5
:205CC0008DF80CC03946ADF81E30FEF7B5FC3548FEF72AFE2F4842463946FEF7ADFC083469
:205CE000CA464FF0000B50462146FBF749FF0AF1080A30B90BF1010BBBF1090FF3D14FF648
:205D0000FF7B59462848FEF797FC224842463946FEF792FCCA464FF0000B50463146FBF725
:205D20002FFF0AF1080A30B90BF1010BBBF1090FF3D14FF6FF7B59461C48FEF77DFC4246F7
:205D400039461448FEF778FCBDF81E101848FEF773FC1849184A194B03A808601421DB68A6
:205D6000118020469847064B1868019B01339842019305F108053FF76EAF7DE7704700BF0E
:205D8000700200209C100020488C00006C8F0000C08F0000508C0000E894000030020020DD
:205DA000B8940000CC94000088930000A0930000B49300000014002004140020988E000010
:205DC0002DE9F04F038889B004467BB340F2B522934231D1544B00251B88ADF81C3007AF44
:205DE0008DF81E50FFF75AFAFFF71EF84F4B5049504800970822FCF7BBFF4F48FBF7C2FFD7
:205E00004E48FBF7C5FE4E4B1A884FF651539A4218D04648FFF70AFF4A48FBF7EDF940F226
:205E2000B5230120238009B0BDE8F08F45484FF4C071FBF7D7F9F2E700230380032009B0CB
:205E4000BDE8F08F404A41494148FEF7F5FB4148FEF76AFD05943848FBF7A6FF804660B928
:205E6000394A3A493A48FEF7E7FB01353A48FEF75BFD032DEFD1059CCBE7795D374E0131EE
:205E800000F1040A06EBC1015046FBF773FE795D08F10C0B013106EBC1015846FBF76AFE94
:205EA0007B5D244925480122013388F8142031F91330A8F81630A8F818204146FBF76EFE15
:205EC00034464FF0000920465146FBF759FE083430B909F10109B9F1090FF4D14FF6FF794D
:205EE0004FF0000A30465946FBF74AFE083630B90AF1010ABAF1090FF4D14FF6FF7A124A3B
:205F000012491348FEF798FBB8F818300293B8F91630019398F8143000934A46534629462C
:205F20000F48FEF789FB9BE784950000F0100020989500001C100020740200205012002045
:205F4000D8130020A41000206C8F0000488C0000508C0000CC93000054940000300200201E
:205F600004950000074B82B001AA9A42019304D9CD2103F8011B9342FBD10348002102B048
:205F8000FEF708BC481400209C02002038B5124C124D00F0A1FF2378CD2B08D0AC4202D3A6
:205FA0000EE0AC4212D014F8013FCD2BF9D1AC4202D30BE0AC4209D014F8013FCD2BF9D093
:205FC00000F08AFFAC4203D2281B38BD00F084FF4FF0FF3038BD00BF481400200000042018
:205FE00070B5038804463BB1922B0ED11F48FBF70DF970B9012070BD1C484FF4A061FBF7AF
:20600000F1F892232380012070BD00230380032070BDFFF7BBFF164E164B051EA6EB0306C9
:2060200015DB002E13DBB5420DDD134B1B68002B09DD124A12491348FEF7FEFA12483246B0
:206040002946FEF7F9FA0948FBF7D6F8D9E70A4B1B68002BF7DD094A09490A48FEF7ECFA6F
:20606000324629460948FEF7E7FAECE7BC1300200000042048140020A8010020B89500009A
:20608000048E0000508C0000EC950000C0950000102A2DE9F041144606460D460DD90C4F01
:2060A00001E0102C0CD93368286810223946103C98470028F5D0BDE8F0811046002AFAD08A
:2060C0003368286802492246BDE8F041184700BF549600000B78002B00F0DF842DE9F04FAE
:2060E00091B0904600228A468146009204E01AF8013F002B00F0D680252BF8D1514500F0F8
:206100000381AAEB0104D9E9003022469847002840F05881009A9AF8003022440092002B78
:2061200000F0C3809AF801300AF10104002B00F0BC800021A3F12002102A0AD8DFE802F066
:20614000AF0909AC09090909090909A909A60909A100A3F13102082A40F2BD802A2B00F0DB
:20616000C88000262E2B00F0AB804FF0FF3B6C2B00F09F80682B00F0CA807A2B03D16378FD
:2061800041F060010134782B00F2EA80DFE813F08D00E800E800E800E800E800E800E8008A
:2061A000E800E800E800E800E800E800E800E800E800E800E800E800E800E800E800E8005F
:2061C000E800E800E800E800E800E800E800E800E800E800E800E800E800C401E800E80062
:2061E000E800E800E800E800E800E800E800E800E800E800E800E800E800E800E800E8001F
:20620000E800E800E800E800E800E800E800E800E800BD01E800E800E800B601AF01A801D0
:20622000E800E800E800E800E800E800E800E800E800E800E800E800E800E800E800E800DE
:20624000A101E800E800E800E800E800E800E800E8009A01E80093011F015B0169016201FC
:20626000E8001F01E800E800E800E80085017E017701E800E8007001E8005401E800E800AB
:206280004D0141F0100114F8013F53E741F00101F9E741F00601F6E741F00801F3E741F07B
:2062A0000201F0E78A457FF42CAF009811B0BDE8F08F63786C2B31D0013441F0600162E7E7
:2062C0006378A3F13000092804F101022BD92A2B3AD0144649E7002606EB860603EB46062C
:2062E00014F8013FA3F13002092AA6F13006F3D938E7D8F800606378002E08F10408B8BFEC
:2063000041F0010101342DE79AF8003007E76378682B20D0013441F0400134E7A37841F0E5
:20632000800102342FE74FF0000B0BEB8B0B03EB4B0B12F8013F2F2BABF1300B40F29282B5
:20634000392BF2D9144612E7A378D8F800B0023408F104080BE7A37841F02001023412E757
:2063600001F4E0630F46B3F5A06F04F1010A39D000F29181B3F5407F00F09C81B3F5806FC1
:2063800040F0D180D8F80050019508F10408002D40F02082C44B01930625BBF1000F02DB5C
:2063A0005D4528BF5D46AE428CBF761B0026F80740F12382D9E9003001992A4698470028E7
:2063C00000F0B9814FF0FF3011B0BDE8F08F01F4E06343F48073B3F5A06F41F4245704F182
:2063E000010AC5D1012ED8F800308DF82830354638BF0125FA0705F1FF3508F1040840F1F7
:206400001C82D9E9003001220AA998470028D9D12A4609F104014846FFF73AFE009B01336B
:206420000028CFD1EB1800933FE001F4E06343F4807341F4C85796E701F4E06343F480734A
:2064400041F410678FE701F4E06343F4007341F4024788E701F4E06343F4007341F481377C
:2064600081E701F4E06343F4007341F400777AE701F4E06343F4806341F4806773E701F408
:20648000E06343F4407341F440776CE701F4E06343F4807341F4885765E704F1010AD8F8FE
:2064A0000030009A1A6008F104086378002B3FF4FCAE514620E601F4E06343F4A06341F46C
:2064C000A06750E701F4E06343F4007341F4C13749E701F4E06343F4807341F4B24742E786
:2064E00001F4E06343F4007341F4A1373BE701F4E06343F4007341F4844734E701F4E06356
:2065000043F4007341F442472DE701F4E06343F4007341F4E13726E701F4E06343F4C06331
:2065200041F4C0671FE7B3F5807FBED1BBF1000FABBF27F010070123CDF804B0019317F434
:206540000053069307F0E00300F01D81402B00F07C8200F20B81002B00F05A82202B40F09E
:206560009E8298F9002008F10408D317002A73F10001C0F21D82CDE9022307F4C053B3F5EA
:20658000805F00F08C81B3F5C05F00F0E781B3F5006F00F0AD81002305939B460DF13E03F0
:2065A0000493019B9B4534BFA3EB0B03002341F60802019307EA020141F208039942019B98
:2065C00000F0138191425B4404D1DDE902120A4340F0588100250795069A7AB1059A002A6B
:2065E00040F04C8107F00602022A00F054812F49062A079A04BF0A46012507922B449E4244
:206600008CBFF31A0023029317F00103059307D1FE0640F1F381DDE901210A44CDE9012336
:206620003DB1D9E9003007992A46984700287FF4C9AE009B019F5B44102F009340F2B28168
:206640001B4ED9E9003010223146103F984700287FF4B8AE102FF4D8D9F800301449D9F8CD
:2066600004003A46984700287FF4ACAED9E9003004995A469847009B1D4400287FF4A2AECD
:20668000019B2B449B46059B002B40F0ED80029B5B44009309E7B3F5C06F5BD0B3F5E06FEE
:2066A0003FF4FDAE01E700BF489600006090000064960000D8F80010C948CA4D17F4804FAB
:2066C00008F104080A464FF0000314BF8346AB4600296AD00DF13B0E7146100902F00F0C0F
:2066E00040EA03701D0902462B461BF80C0001F8010D52EA0300F0D1BEEB010557D00335EA
:206700007823AE4201F8013C4FF030024FF0230301F8022C01F8033CA1F1030B8CBF761B07
:206720000026F9077ED5D9E9003059462A46984700287FF447AE324609F104014846FFF775
:20674000A7FC009B2B441D4600287FF43BAE73190093AAE6D9E90030A349012298470028EE
:206760007FF430AE009B013300939EE6602B00F04F81802B40F0938108F1070828F0070879
:20678000F8E80223F2E6402B00F0578115D8002B00F04481202B40F0998198F800200023B4
:2067A000CDE9022308F10408E7E60DF13B01302301F8013C04250139A2E7602B00F02E8153
:2067C000802B40F0838108F1070828F00708F8E80223D0E62B78002B00F0488115F8013F1C
:2067E000002BFBD1019BED1AD7E5012B38BF01230025019307955B44EEE6324609F10401BD
:206800004846FFF745FC00287FF4DCAD0199D9E900302A46984700287FF4D4AD009B2B448E
:206820001D4694E7324609F104014846FFF730FC00287FF4C7AD5946E9E72A4609F1040166
:206840004846FFF725FC00287FF4BCADD9E9003001220AA99847009B013300287FF4B2AD1F
:206860002B44DFE514468EE4029A09F104014846FFF70EFC00283FF40AAFA3E55B4A079216
:206880000125BBE65A495B4A17F4804F18BF0A4607920225A0E6584A07920125AEE6DDE9E7
:2068A000022313433FF477AEDDE902231846002315460593DDE902230DF13E0107918C4614
:2068C0004FEAD20B4BEA437B02F007014FEAD30E30315A4673460CF8011D52EA0301EFD1BF
:2068E000079BCDF810C0CDE90250A3EB0C0B58E6DDE90223134300F0C88000230593DDE97C
:2069000002120DF13E03CDE9086407938B46154604971C46584629460A22002301F046FEAE
