:020000040000FA
:2000000000000420C5180000ED180000EF180000F1180000F3180000F518000000000000B2
:20002000000000000000000000000000F7180000F918000000000000FB180000FD18000078
:20004000BD350000A12D0000658E0000FF180000FF180000FF180000DD320000FF18000082
:20006000C1630000FF180000FF180000CD360000FF180000CD350000FF180000FF180000E4
:200080007D370000FF180000FF180000FF180000FF180000FF180000FF180000FF1800000B
:2000A000FF180000FF180000FF180000FF180000FF180000FF1800000000000000000000B6
:2000C000FF180000FF180000FF180000FF180000FF180000FF180000FF180000FF18000068
:2000E000FF180000FF180000FF1800000000000000000000FF18000000000000FF1800008D
:200100000000000000000000000000000000000000000000000000000000000000000000DF
:200120000000000000000000000000000000000000000000000000000000000000000000BF
:2001400000000000000000000000000000000000000000000000000000000000000000009F
:2001600000000000000000000000000000000000000000000000000000000000000000007F
:2001800000000000000000000000000000000000000000000000000000000000000000005F
:2001A00000000000000000000000000000000000000000000000000000000000000000003F
:2001C00000000000000000000000000000000000000000000000000000000000000000001F
:2001E0000000000000000000000000000000000000000000000000000000000000000000FF
:2002000001F0FF01102A2BDB10F0070F08D010F8013B013A8B422DD010F0070F42B3F6D1A4
:20022000F0B441EA012141EA014122F007047FF000070023F0E80256083C85EA010586EA51
:20024000010685FA47F5A3FA87F586FA47F6A5FA87F68EB9EED1F0BC01F0FF0102F007024C
:2002600032B110F8013B013A83EA010313B1F8D10020704701387047002D06BF35460338AF
:20028000073815F0010F07D1013015F4807F02BF013015F4C03F0130F0BC0138704700BF73
:2002A00010B5054C237833B9044B13B10448AFF300800123237010BD8803002000000000F1
:2002C00060C6000008B5034B1BB103490348AFF3008008BD000000008C03002060C60000CE
:2002E000A3F5803A704700BF174B002B08BF134B9D46FFF7F5FF00218B460F461348144AB7
:20030000121A0BF0D9FC0E4B002B00D098470D4B002B00D098470020002104000D000D48D5
:20032000002802D00C48AFF300800AF0E7FB2000290000F0FDF90AF0CDFB00BF00000800B9
:200340000000000000000000000004208803002048270020000000000000000000B585B055
:200360000346002101AA44F20100CDE90111039300F004F805B05DF804FB00BF72B6094BA3
:200380001B68DB0700D500BEBFF34F8F0649074BCA6802F4E0621343CB60BFF34F8F00BFFA
:2003A000FDE700BFF0ED00E000ED00E00400FA0572B6024A1368013313607047A4030020F9
:2003C000034A1368013B136003B962B6704700BFA403002010B50446006830B1002103F029
:2003E00095FC54F8040F0028F8D110BD10B590F84C10094A013180F84C1004460346802119
:20040000203000F0A5FD054B22461978BDE81040002003F013BD00BFED03000039270020AA
:200420002DE9F041038804463BB1B3F5867F0AD182290DD00120BDE8F0814FF4867323808E
:200440000120BDE8F081002303800320BDE8F08101F0ECFABFF35F8F1649174B0E680022B6
:200460000A601F781A70FFB2BFF35F8F134D01F0E1FA28680028E0D0DFF8448003E055F841
:20048000040F0028D9D090F8463026FA03F3DA07F5D590F8453047FA03F3DB07EFD500F0EF
:2004A0009FFD0028EBD02B6842461846022100F04FFDE4E7B80300209E1D00204001002003
:2004C0002105000010B4094A094C13681943116021780346012202FA03F30B43DBB22370DD
:2004E00004485DF8044B03F0D7BC00BFB80300209E1D00205401002010B5044690F84610AF
:2005000090F8450001F050FA10B994F8440010BD01280ABF94F84400002080F0010010BD4D
:2005200070B5044600F05CFD00B970BD04F12006304600F055FD05462046FFF7DDFF01289E
:200540000ED00028F1D1002DEFD1304600F02EFD0D4B224628461978BDE8704003F06EBC24
:20056000002DE2D0002530462346084A84F84C507E2100F0EDFC064B284622461978BDE859
:20058000704003F05BBC00BF38270020ED0300003A270020F8B503F0B1FB304B304C187027
:2005A00003F0ACFB2F4B304F187003F0A7FB2F4922682F4B08700025FF2139727B60FD606F
:2005C000002A42D02B4E09E091F84600F9683A72834054F8042F0B43FB60B2B392F8463051
:2005E00092F84510926C03F01F0343EA41131F2BC6BF03F01F0331464FF0A04103F5E073C2
:2006000042F08C0241F82350236893F8461093F8450001F087F9226892F8463092F8450068
:2006200003F01F0343EA4010012102F0B1FD2168387A91F8452082424FF00103C4D0FF287B
:20064000C2D054F8042F002AC8D10B48002103F05DFBBDE8F840044801F0BAB93A270020F9
:200660004001002038270020A803002039270020C5040000000300505401002030B5174B77
:2006800083B000221A6002F0E3FB00BB002002F0FBFB134B134A93E80300FF250090ADF866
:2006A0000410062400231048ADF8005069468DF802408DF8043002F09FFF58B901210A4848
:2006C00002F0EEFF084802F0DFFF03B030BDFFF745FEDBE7FFF742FEF0E700BFBC030020D5
:2006E0000CC000001907000014C00000014B1868704700BFBC03002008B5064A136801335D
:20070000136000F0A1FD00B908BDBDE8084000F07BBD00BFBC030020042800D07047FFF7FE
:20072000EBBF00BF014B1868C0097047BC03002038B5664C03F0F6F9FFF7A0FF05F050FECC
:2007400003F006FB6248002103F0E0FA00F0C6FB0AF082F900F0A4FC07F0CEFA03F0EAF9C2
:2007600003F0B8FB01F0E6FE01F0F6FE2368022B24DC584A584B1168526819605A60574817
:20078000002103F0C3FA4FF0FF3008F0A3FD2368022B054600F3818003F0E8F95048FFF729
:2007A00019FE0AF083F903F0EDFA04460AF086F914F0FF0FF7D103F0DFF9F4E7494A4A4969
:2007C0004A4803F0F5F94A4803F076FB2368022BCFDD444A4449454803F0EAF9454B4648B0
:2007E000196803F0E5F92368022BC2DD3D4A3E493E4803F0DDF9414B4148196803F0D8F999
:200800002368022BB5DD374A3749384803F0D0F93C4B3D48196803F0CBF92368022BA8DDD0
:20082000304A3149314803F0C3F938484AF6CD3103F0BEF92368022B9BDD2A4A2A492B48AA
:2008400003F0B6F932481A2103F0B2F92368022B8FDD244A2449254803F0AAF92D4B2E48B3
:20086000198803F0A5F92368022B82DD1D4A1E491E4803F09DF9294803F09AF92368022BC3
:200880007FF777AF134801F0DDFA2368022B7FF770AF0A2003F00EFB6BE7124A12491348C2
:2008A00003F086F91E4803F083F92368022B7FF773AF05B10235284601F0B4FA2368022BEF
:2008C0007FF76AAF0A2003F0F5FA65E7C8010020A8010020D41D002018210020BC02002037
:2008E0008CC100001CC0000024C000002CC000003CC0000014C300005CC00000ACC30000A1
:200900006CC0000014C1000078C0000084C00000A0C00000901D0020C0C00000D0C000001D
:20092000E8C0000070B590F82D50012D04460FD91F2503F039FB0246B0FBF5F1234601FBDC
:20094000152104F10C00054ABDE8704000F000BBE91C01258D40013DEBE700BFED09000054
:200960002DE9F04714460D468A6894F82C900646606BD2E9007801F02DFA686803F0E6FA3E
:20098000A968164801F02AFB1548294601F026FB606B01F0D1F960B10023A3852046FFF7B6
:2009A000C1FF4B46324641463846BDE8F04701F0DBBA04F10C0000F0F9FA2146094801F07A
:2009C00009FA2146084801F009FB4B46324641463846BDE8F04701F0C7BA00BF64010020C8
:2009E0007C010020280400207001002008B32DE9F047044682B0406B01F09EF90546A8B122
:200A0000406803F0B9FA63490C2003F06FF80121072003F05DF800F063F900280ADAAB685A
:200A200023B1052022462946FFF79AFF02B0BDE8F087704702F0A6FFDFF85C8190F802906D
:200A4000D8F8047002F09EFF064602F0A5FF01463046B84703F05EF8D8F818600746B04750
:200A600070BB002F4AD1D8F81CA0D04740BBD8F8087002F091FFB84700285DD002281FD02C
:200A8000AB68002BD2D00420CCE705F08DFC6FF028031E1A03E005F087FCC64202D5D0470E
:200AA0000028F8D0D04700285ED0D8F81030032101A89847032803D19DF806304B4524D0CF
:200AC000AA68002AB2D094F82D300133DBB2052B84F82D3094F82C3008D8127A9A4224D879
:200AE000224629460120FFF73BFF9FE70133DBB2002184F82C3084F82D10EEE7D8F80860C8
:200B000002F04AFFB0470028B8D1AB68002B8DD094F82C3000200133294684F82C3084F858
:200B20002D002246FFF71CFF80E72046FFF7FAFE686803F005FA79E705F036FC6FF018078D
:200B40003F1A03E005F030FCC74202D5D0470028F8D0B047002898D1D047002895D1D8F854
:200B600014309847002890D0A96800293FF45EAF94F82C300133DBB2002284F82C3084F831
:200B80002D200A7A9A42D0D8224629460220FFF7E7FE4BE7D41D002034C200002DE9F041AC
:200BA00006460D200F4602F0ADFF054601F07AF901210B2002F08CFF3C4801F0BDF8D0B1A5
:200BC000044603E001F02AF90446A0B12946201D01F0A6F803462046002BF3D0606B01F0A5
:200BE00013F907281EDD394630460123BDE8F041062201F0B9B92E4801F0D4F9044600289F
:200C0000F1D02946201D01F085F8002304F13000C4E90C30A38501F08BF82448214601F068
:200C20008DF8DBE7234801F0BDF9054650B3224801F0B8F9A86008B303F060F96860C8B1B1
:200C40000520D5F8088002F04BFFC8E9006710F0FF000ABF082388F8080088F80830606BC8
:200C6000294601F06BF8606B01F066F8854217D0BDE8F081A968104801F0B0F90D4829460C
:200C800001F0ACF9606B01F0BFF80028ABD12146064801F09FF82146054801F09FF9A2E7A4
:200CA0002046BDE8F041FFF73DBE00BF28040020700100207C0100206401002008B505483F
:200CC00001F05EF9044801F05BF9BDE80840034801F056B97C010020640100207001002050
:200CE00010B501210B2002F0F3FE024BBDE810405B681847A0C10000014B9B68184700BFCD
:200D0000A0C10000014B1B6A184700BF34C20000014B5B6A184700BF34C2000010B50D4B4B
:200D200082B01B6898470C4B04469B6A01A91920984701280BD0002C0198B8BF1524802896
:200D4000D4BFC4EB0000C4F1800002B010BD002002B010BDA0C1000034C20000FFF71EBFD4
:200D600000B583B002F012FE032802D103B05DF804FBFFF7C1FF0028F8DB0D2002F0C2FEF4
:200D80001F4900F0CDFFE8B10C2002F0BBFE1C4900F0C6FF0028E9D101F08EF8B8B10720BC
:200DA00002F09EFE0028E1D00223ADF8043002F0E9FD144B8278DB688DF80620032101A8E2
:200DC0009847D3E702F0A6FE0028DDD1CEE701F099F8072002F084FE18B90B4B9B68984733
:200DE000C4E70223ADF8043002F0CCFD054B8278DB688DF80620032101A89847EDE700BF18
:200E0000D41D002034C20000ACC3000030B50D4C83B0A56A69461920A84748B901A9042036
:200E2000A84738B101F036F8FFF748FF236A984703B030BD0199E36A21F0020101910420C1
:200E40009847EFE734C20000F0B5038883B0054633B14A2B18D188291BD0012003B0F0BDDA
:200E60001B4800F069FF044630B1A168201D00F0D1F92468002CF8D1164B01221A704A2390
:200E800001202B8003B0F0BD00230380032003B0F0BD0F48019200F04FFF04460028EED0A5
:200EA000019A031D9A4205D02468231D002CE6D09A42F9D10648084E214600F08BFFD4E930
:200EC0000523376832600BB1E06998473760D6E7080500209F1D0020B00B002010B5064B87
:200EE000064800241C7000F023FF21460448BDE8104002F00BBF00BF9F1D002008050020B6
:200F00008801002070B50E4C049E25784661C0E90623044635B9A1600A482146BDE87040AA
:200F200000F00CBF084D094B2E682B60043000F071F92E6021460348BDE8704000F0FEBE5D
:200F40009F1D002008050020B00B00208801002010B5044C82B024680094FFF7D3FF02B023
:200F600010BD00BFB00B002070B50C4B1B7804462BB921460A48BDE8704000F0DFBE094DDC
:200F8000094B2E682B60043000F04EF92E6021460348BDE8704000F0D1BE00BF9F1D0020C2
:200FA00008050020B00B00208801002010B50A4B1B7804463BB9C0E9033321460748BDE85B
:200FC000104000F007BF043000F046F921460348BDE8104000F0FEBE9F1D0020080500204C
:200FE00038B50C4B1D7804466DB90B4800F0A4FE38B1A04202D10BE0844209D0006800280B
:20100000FAD1012038BDBDE83840043000F016B9002038BD9F1D00200805002010B50446B2
:20102000C0B207F0D9FE204610BD00BF70B570B10E46451E002404E0A64206D007F0CCFEFA
:20104000013415F8010F0028F6D1204670BD0446FBE700BFF8B5038807462BB13B2B06D034
:20106000002303800320F8BD0A4802F025FF0A480A4E02F021FF052440F6F135214630466C
:20108000013402F095FDAC42F8D13B233B800120F8BD00BF40C1000060C1000070C10000DF
:2010A000704700BF10B5FFF721FB0B4B1A68D2E9003192680B44191A52B1D2E9003423444A
:2010C0001B1A9268994228BF1946002AF5D14318024A136010BD00BF100500200C050020C4
:2010E0002DE9F843038805465BB3592B2CD187292FD0822920D12C4FDFF8B4803C684FF086
:201100000009CCB1002603E0A3682646A3B11C46204607F053FE0028F6D0E068224688211E
:2011200002F08CFE03464046002B2AD002F0B4FEA3682646002BEAD159232B800120BDE851
:20114000F883194A1360F7E7002303800320BDE8F883154F3968002019B9EDE7896801209A
:20116000D9B1CB689342F9D000B139608B68002BE2D0D868904207BF9B688B6019469B68D2
:20118000F5E7E360A3686EB1B3603B68C4F808902BB1FFF787FF3C68B3E73960CCE7034ACD
:2011A0001360C9E73B60F1E7100500200C050020A801002010B50446104802F06DFE10494D
:2011C000E3680A684BB142B194420FD0134601E09C420BD09B68002BFAD10A4BA2601B68E8
:2011E000E3600C60BDE81040FFF75CBF054B1B68E360BDE81040FFF755BF00BFA80100209D
:2012000010050020B00B0020014802F045BE00BFA801002010B5044607F0BAFD2046BDE830
:201220001040FFF7C7BF00BF10B5044607F0B8FD2046BDE81040FFF7BDBF00BFC068B0FA0A
:2012400080F04009704700BF024B1868003818BF012070471005002010B5124B1968814210
:20126000044614D00B462BB19A68A24206D01346002BF9D10023C4E9023310BDA2689A6033
:2012800049B1FFF70FFF0023C4E9023310BD82681A60002AF5D1044B00221A600023C4E96F
:2012A000023310BD100500200C050020014B1888704700BF7C03002000283ED0037A022BE5
:2012C00030B410D00378022B15D00379B3B10024C37913F0030318BF012301B10C6002B1A8
:2012E000136030BC7047C579447A037965B90CB9012BF2D0DBB100231C46EEE7447A14F0E7
:20130000030418BF0124E3E7C4B1032D37D1032C2ED0022C24D143BB022D2DD00123032D85
:2013200024D1A4F10204B4FA84F46409D5E7023C012C8CBF00240124CFE770474BB9022D2F
:2013400008BF0123EAD1A4F10304B4FA84F46409C3E7032D01D0022D02D123461C46BCE79D
:20136000002BC8D1022DDAD1EDE701230024B4E7002BC0D10123D4E701231C46ADE7022D34
:20138000C7D1002BF1D1022C4FF00103DBD11C46A3E700BF30B500230B608B80437D0D466F
:2013A000D9075CBF01232B70037E012B83B0044623D901AA694604F11000FFF77DFF009BE1
:2013C0000BB10223EB70019B0BB102236B70E37D03F00303022B03D0032B14BF00230823D1
:2013E000AB70637E03F00303022B03D0032B14BF002308232B7103B030BDC37D9A0706D0B6
:20140000437E9B0703D0C28B838B9A4202D000232375CEE701230375CBE700BF02280CBF1B
:20142000012307230B441A78FF2A184603F1FF3303D18142F7D1012070470020704700BF03
:2014400030B583B06946FFF7A5FF9DF800309DF801509DF802409DF803109DF804209DF8B3
:20146000050002332B4423440B441344184403B030BD00BF70B4437882780578C478DB008E
:20148000120102F0100203F008031343027905F0070564012B4304F020049201234302F08F
:2014A000400213430B7043798579467AC479027A03F001036D0043EA861305F00205A00020
:2014C0002B4300F00C001201034302F03002134370BC4B70704700BFF0B583B00E460746F9
:2014E0006946FFF757FF314607F11000FFF7C2FF9DF80030012B04BFBB7EB3709DF80130E5
:201500000CBF03220222022B08D1BB8BB354531CB98BDBB2090A0232F154D2B29DF802304D
:201520004BB35D1E13443D44DBB214460132D2B215F8011931559A42F7D19DF80320022A87
:2015400008D1FA8BF2545A1CF98BD2B2090A0233B154DBB29DF8040078B1C41D18443C4410
:20156000C0B21A460133DBB214F80159B5549842F7D103B0F0BD1346DFE7184603B0F0BD8A
:2015800030B40278437802F00700C2F3C005C2F300140870C2F34010C2F380124D708C7079
:2015A00003F00105C3F34004C8700A71C3F38100C3F301129B094D718C71C87130BC0A7285
:2015C0004B727047012943DD2DE9F04186B00F4603A914460546FFF7D3FF03AB03CB9DF851
:2015E00011201B882383206161616AB3AE1C03A802AA01A9FFF760FE9DF81380B8F1000F12
:2016000043D0029B002B31D1B8F1020FA38367D0B8F1030F4DD09DF81580B8F1000F2CD020
:20162000019BBBB9A38BE383B8F1020F4DD0B8F1030F31D0701B3B1A8742C4E90E6300DAD2
:20164000002006B0BDE8F081AB78A376EE1CCEE700207047717816F8023B029A03EB0123EA
:201660009BB2E383002ADFD1A383DDE7727816F8023B03EB02239BB2C6E71E4904F108004D
:2016800000F048FBA4F81E80D4E71A49204600F041FBA4F81C80BEE706F10800034604F113
:2016A000080213F8011D02F8011BB342F9D10646C0E706F108000346621E13F8011D02F844
:2016C000011FB342F9D10646A5E70A4904F1080000F020FB7378237216F8023B6372A9E7C8
:2016E0000449204600F016FB7378237016F8023B637090E7ACC1000030B591B002F032F973
:20170000044602F043F96A4601462046FFF75AFF00283ED0044602F009F9D0B39DF81010F9
:201720000B2002F0D5F99DF81310072002F0D0F99DF817308BB1BDF81C50FFF7B7FD85427A
:2017400005D0BDF81C204FF6FF739A4221D19DF817006946FFF762FEB0B102A90C2002F063
:20176000C5F99DF815303BB14FF6FF71062002F0AFF9204611B030BD9DF81A10062002F085
:20178000A7F9204611B030BD69460D2002F0AEF9E3E74FF0FF34ECE7F8B505460B20144694
:2017A0000E46A84700232074A37496B3E37463750820A847002701232376A075677406208F
:2017C000A847A076FFF772FDE0830920A84701280CBF3B4603236376FFF768FDA0830A2008
:2017E000A84701281AD066B90323E375637E022B0CD0E37DA3F10203B3FA83F35B09237548
:20180000F8BD0223E375637E022BF2D101232375F8BD0720A8476675E074C9E7E775E5E737
:2018200030B591B00546FFF741FD4FF6FF74A0423AD04022002168460AF03EFA02F06AF9A7
:201840006A4601461A48FFF7A7FF02F063F918B3ADF800400C2002F055F9014602A800F048
:2018600059FA02F07FF80E9002F090F8034668460F93FFF7E5FD044615B9204611B030BDF7
:2018800002F024F880B102F07DF801466846FFF723FE204611B030BD0D2002F033F90146F0
:2018A000684600F037FAD5E74FF0FF34E5E700BFE13A00000120FFF7B3BF00BF0020FFF727
:2018C000AFBF00BF0649074A074B9B1A03DD043BC858D050FBDC07F00DF8FEF705FD00000B
:2018E0006CC600000000002088030020FEE7FEE7FEE7FEE7FEE7FEE7FEE7FEE7FEE7FEE7F9
:2019000000F01F030121C0F34710994000F066B808B501F0A1FB00B108BDBDE8084001F004
:2019200051BB00BF30B583B01446022301F01F0100228DF8063014F00C0341EA4015ADF81F
:20194000042006D0042B25D0082B27D00C2B02D103238DF8043014F0030304D0022B15D066
:20196000012B02D103238DF805300E4A01A9284601F07CFB2306284603D401F075FC03B02D
:2019800030BD012101F004FC03B030BD01238DF80530EAE701238DF80430DCE702238DF8AE
:2019A0000430D8E70119000001F01F0141EA40101F28CABF054B4FF0A04300F01F00D3F872
:2019C000101521FA00F000F001007047000300500146014800F0B2B91405002070B5054648
:2019E0000C480E4600F0A8F990B1044601E0246874B1237AAB42FAD1E36816EA0301F6D027
:201A000063682846002BF2D098472468002CF0D170BD00BF1405002008B5034800F088F9AA
:201A2000BDE80840FFF774BF14050020EFF3108072B6704780F31088704700BF70B41A4AFD
:201A40001A4D0023012440FA03F1C90712D59178B9B11178567801F01F0141EA46111F294D
:201A6000C6BF01F01F012E464FF0A04604FA01F1C6F808150133042B02F10302E3D170BC31
:201A800070471178567801F01F0141EA46111F29C6BF01F01F012E464FF0A04604FA01F13E
:201AA000C6F80C15E6E700BFECBF0000000300500E4A30B40E4D02F10C04032013785178AC
:201AC00003F01F0343EA41131F2BC6BF03F01F0329464FF0A04103F5E0730332944241F86E
:201AE0002300EBD130BC0F20FFF7A8BFECBF00000003005010B50948FFF736FA084800F015
:201B00007DFB50B1064C01460B7A5B080B72204600F03CFB01460028F6D110BDB41D0020CD
:201B2000B80100200146014800F096BBB801002080B110B50446FEF7D9FD2368C01AB0F50D
:201B4000963F05D2207A032894BF0020012010BD002010BD0020704770B50546144689B1EB
:201B6000022907D006290CD10146BDE870402A4800F072BB0146284800F06EFB06460028A8
:201B800032D170BD0146244800F066FB0646002835D0FEF7ABFD337A30602344102BA8BFB5
:201BA00010233372FEF7A2FD3368C01AE401B0F5963FA4B208D2337A042BB38834BF192270
:201BC0000A222BB9B48070BDB3881922002BF9D002FB04F41149C2F1640203FB0242A1FBE4
:201BE00002325209B28070BDFEF780FD337A30602344102BA8BF102333720C34D2E73346F5
:201C000005482946082200F08DFB06460028B8D047F6FF73C380BCE7B80100201F85EB511C
:201C200038B50546042001F05BFF29460446214824B200F011FB38B3B0F9063047F6FF7291
:201C400093422CD004EB840462005A251A4C818813FB052384FB0324DB17C3EB641424B222
:201C6000C48081B904F15A0212B222EAE2721E2A124BA8BF1E22D201A3FB0232120902F56E
:201C8000807292B2828038BD034629460948082200F048FB0028F6D047F6FF73C3808388C6
:201CA000C480002BEFD147F6FF739C42DAD14FF48072E7E7B80100201F85EB5189888888E0
:201CC00038B5094800F09AFA60B1074D04462146284600F095FB2146284600F057FA0446DE
:201CE0000028F4D138BD00BFB801002010B50021054800F029FABDE81040044A0448002372
:201D00004FF4E131FFF724B9B8010020F51A0000B41D00200B684A6842600360704700BF22
:201D200008B5082209F092FFB0FA80F0400908BD00230360704700BF006870470368DBB1F8
:201D400010B4002400E0134699420FD01A681C46002AF8D100230B600368CBB11A461B6879
:201D6000002BFBD111605DF8044B70470A686CB1226000221A60EDE700230B6003684BB12A
:201D80001A461B68002BFBD1116070470260F0E70160E8E70160704730B405684DB12B4600
:201DA000002400E01346994207D01A681C46002AF8D10D6030BC016070470A683CB12260EB
:201DC00000221A6005680D6030BC016070470260F6E700BF03689BB110B4002400E01346B3
:201DE00099421A6805D01C46002AF8D15DF8044B704734B1226000221A605DF8044B7047A3
:201E000070470260F7E700BF03682BB100201B680130002BFBD170471846704700B1006815
:201E2000704700BF00B58BB002462821684608F07DFD6946024801F0BBFE0BB05DF804FBD9
:201E4000B4C10000F0B170B50024104E054654B1E3070DD5295D304601F0AAFE072C10D001
:201E60000134002CF4D12978304601F0A1FEF7E72E2002F01FF8295D304601F099FE072CA9
:201E8000EED170BD024801F093BE00BFC8C10000B8C1000008B502F087F8014B187008BD42
:201EA000A01D0020034B197806204A1C1A7001F00FBE00BFA01D0020F8B5FEF717FC104EE3
:201EC0000746344600250C2001F01CFE2146FFF727FF103420B90135102DF4D10020F8BD32
:201EE000062006EB051501F0FBFD2B7B8342F5D1A868381AB0F5206F8CBF00200120F8BDC0
:201F0000D8050020F8B5174E0024374635460C2001F0F8FD2946FFF703FF1035F8B90134F2
:201F2000102CF4D10F2407EB0414254654F8100D6168A268E368A6420FC5F6D1062001F0D7
:201F4000CFFD3873FEF7D2FB0346BB600C2001F0D9FDBDE8F84001460248FFF7DBBE002CC8
:201F6000E1D1EBE7D805002040B120B40D4611461A46034628465DF8045B1847704700BFD1
:201F800010B5044642884068002109F095FE23886288A06802FB03F2BDE81040002109F075
:201FA0008BBE00BF30B44588ADB14368002202E00132AA420CD0194601330C78002CF7D155
:201FC00001230B700588806802FB050030BC7047002030BC70472846F8E700BF30B44488C9
:201FE000826854B18A420CD00588002301E0914208D00133A3422A44F9D14FF0FF3030BC63
:20200000704700234268D15C0029F6D00020D05430BC704783688B4208D84288008800FB54
:20202000023081422CBF00200120704700207047418849B143680020194413F8012B02B914
:2020400001308B42F9D170470846704738B5104B05461048002D08BF1D46FFF76DFE60B148
:202060000446211D2846FFF75BFE034620463BB9FFF7D4FE04460028F3D14FF0FF3038BD17
:20208000054A064B9068241AA01003FB00F038BDACC1000008070020CC010020ABAAAAAAA5
:2020A0002DE9F84F224CDFF89CA0DFF88C90214F0546884604F1200B54F8043FBBB19E68A5
:2020C000AEB1A5B1D9F80820AA1A91100C3207FB01F10CD05A68D86802FB010038B11AF8E4
:2020E00001201B6842FA03F3DB0700D5B0475C45E2D1D5B1104B0F4A9B68EB1A9B1002FB1E
:2021000003F30E490E480022CA5429460AF80320FFF760FEB8F1000F01D1BDE8F88F2946CF
:202120000548BDE8F84FFFF759BF4FF0FF33E8E7D4060020ABAAAAAACC010020F80600206A
:2021400008070020E007002038B10368072B04D80C4A52F82330984210D00B4A1368072B38
:202160000AD830B4074C03605D1C8160156044F82300012030BC7047002070478160012018
:20218000704700BFD8060020DC070020F8B5184F184C194D064608462EB358B1F168736832
:2021A000411A91FBF3F14A1C01EB410117D0B86800EB8100FFF732FE80B1B968411A8B10DF
:2021C0000C3104FB03F30CD07068F16800FB031020B1EB5C32681341DB07DDD5F8BD002043
:2021E000E8E70020F8BD3046FFF718FE3046F8BDCC010020ABAAAAAAE007002010B50446E2
:202200001148FFF799FD0146C0B1104B9868091A9CB111F10C0F10D00D4B6268E068891056
:2022200003FB01F302FB030141B10A482268C35C1341DB0702D5084610BD00212046BDE86A
:202240001040FFF7A3BF00BF08070020CC010020ABAAAAAAE007002010B504460846FFF7F8
:20226000F5FE84B1431C02460DD06368E06803FB020038B1054B21689B5C0B4113F0010F87
:2022800008BF002010BD002010BD00BFE00700202DE9F84316460D46FFF7DEFF28B1002407
:2022A000012006B13460BDE8F88304462846FFF7CDFE0130F3D11748FFF7BAFE0028EED130
:2022C0001548FFF739FD814610B3DFF85480114F124D0AE0204609F1040103F0B7FA044644
:2022E0004846FFF79BFD814670B1BB68A9EB03039B1005FB03F318F80330002BF0D1002C21
:20230000E8D109F10404EBE7201E18BF0120C8E72046C6E7CC01002008070020ABAAAAAA73
:20232000F80600202DE9F04182B060B32F4B0C46002908BF1C46214601AA0546FFF7A8FFDB
:2023400008B32046FFF782FE461C21D06A68EC6800FB02440021204609F0AEFCEB686A68DD
:20236000E31A93FBF2F35A1C06D021492D68C85C0122AA400243CA54204602B0BDE8F081E0
:20238000B8F1000F1DD10024204602B0BDE8F081184FDDF804803846FFF704FE064600289B
:2023A000EED015483146FFF7C9FCBB682146301DF41AFFF7AFFC14F10C0F12D16A68002451
:2023C000C8E74046FFF742FE411CDCD0BB6800EB400013EB8006D6D000213046FFF760FE26
:2023E000DFE7064BA01003FB00F0AFE7ACC10000E0070020CC01002008070020ABAAAAAA59
:2024000028B311B3C3684268CB1A93FBF2F35A1C1BD070B40F4E0568F45C012202FA05F538
:2024200024EA0504F454C3684468CB1A93FBF4F3591C0DD0084C0068E15C02FA00F021EACA
:202440000001E154104670BC70470020704770471046F8E7E0070020F8060020A8B191B18A
:20246000C2684368891A91FBF3F14B1C0BD010B4064A0368545C012000FA03F323435354E5
:202480005DF8044B7047002070477047F8060020B0B199B1C2684368891A91FBF3F14B1C3B
:2024A0000CD010B4074C0268635C012000FA02F223EA020363545DF8044B704700207047F6
:2024C000704700BFF806002088B179B1C3684068C91A91FBF0F14B1C08D0054B986801EB67
:2024E000410110EB810002D00430704700207047CC01002070B505460D480E46FFF71CFC76
:2025000068B10446012D0CD01DB963680BB1984730B92046FFF782FC04460028F2D10020FA
:2025200070BDA3683046002BF3D09847F0E700BFF0070020054B10B51B689847044B5B68EA
:202540009847044BBDE810405B68184734C2000014C10000ACC30000034A04499079D3790D
:2025600003EB00230B807047D41D0020901D0020064B074A01211960D2F8503513F0FF0399
:20258000FAD1C2F8FC3F0120704700BF1010004000100040A1B1192810D8DFE800F00D777E
:2025A0000F0F6E65605B453F0F3A0F0F0F36322E2A0F26221E1A171300207047012070474D
:2025C000022070477D230B600020704700200860704710230B60002070470A230B600020D4
:2025E000704720230B600020704703230B600020704708230B6000207047D8230B60002044
:2026000070471A230B60002070470B230B6000207047244B1B780B6000207047224B93F9D7
:2026200000300B6000207047204B214A012082B018601368002BFCD00020106012681D4BA3
:202640000192019AD3F8483503F07F035B420B6002B07047184B5B790B6000207047164B44
:202660005B780B6000207047134BDB7800200860002BA1D001230B6070470F4B1B7800201D
:202680000860002B98D004230B607047094B0B4AD3F80835A2FB03239B080A33DBB20B60AA
:2026A00000207047A11D0020A21D0020141000401C11004000100040E8010020CDCCCCCC2B
:2026C0000120704770B582B0FFF7B0F9BFF35F8F1C4B1B78ABB11C4B1C4902224FF0FF34D4
:2026E000C1F80843C3F88021C3F88020BFF34F8FBFF36F8FBFF35F8F02B0BDE87040FFF742
:2027000099B9134903F0FF020A600968114B019101991A601A680D490B4B00924FF0FF3507
:2027200002224FF44054009EC1F80853C3F88021C1F804431A60BFF35F8F02B0BDE870406F
:20274000FFF778B9E801002000E100E0001000403011004034110040144BD3F8FC0F28B124
:20276000D3F85035DBB2032B01D000207047104B1B7803F0FF0073B10E4B1B78053B7A2BD1
:20278000F3D80D4B1B68002BEFD10C4B1868B0FA80F040097047074A1378053B7A2BE5D839
:2027A00092F8800080F00100704700BF00100040E8010020F40700203011004034110040AE
:2027C0000D2801D001207047042A05D121B1034B1B680B60002070470220704778080020B9
:2027E00070B51B4CD4F85055EDB2032D82B028D0184B1948194AC4F804051949C3F81025A5
:2028000001264FF00062C3F81415C3F80465C3F80425FFF757FFD4F8003243F01003C4F8B8
:202820000032D4F80032022D43F40023C4F8003209D00C4B0C4A002119601B680193019B1E
:20284000166002B070BD094B1E6002B070BD00BF0010004000F00140F4070020381100408E
:202860004C80004058110040041000400810004070B52F4D2F49304A304B00242C6084B005
:202880002D680095009D0C600968019101991460126802922A4D029A1C6029781B6803939D
:2028A0004B1F7A2B039A38D88C1E2246691C09F0DBF92B195B783F2B2DD89B00DBB2214EDB
:2028C000214A3370D2F84835204A03F07F035B425BB299B20420137001F0FAF83178032079
:2028E00001F0F6F81A4B2A781A491A74D1F84C055860D1F8481599605200DA605D68104867
:2029000081220021023D1D6009F0D6F9FFF768FF204604B070BDFF23D1E781222146284679
:2029200009F0CAF9FFF75CFF204604B070BD00BF381100400C110040341100403011004098
:20294000F4070020A11D002000100040A21D0020780800200080004010B5038804461BB387
:2029600040F2D332934224D1822901D0012010BD124A1378053B7A2B16D8114B1B6813B987
:2029800092F8803083B108F099F801F033F800F0E9FF8021FFF76CFF002805DD80B200F01E
:2029A000DBFF084BDB68984740F2D3332380012010BD00230380032010BD00BFF40700208F
:2029C0003011004014C100007D2910B50C4609D801460A48A31C00F8013B224609F044F9D9
:2029E000002010BD064A0749074801F0E1F821467D22064801F0DCF8012010BD8C08002076
:202A0000D0C10000E0C100002CC00000E4C1000070B4164B1649174C0F22C3F810258A7889
:202A20000A3A02EB8202C3F808250879CD798A794979120642EA0522024342EA0142C3F893
:202A40006C2640F2022600250B48C3F834657F2140F20122C3F83845C3F83C55C3F8140571
:202A6000C3F81815C3F8502670BC704700100040E8010020211001000800000608B5084BB1
:202A8000D3F8FC2F1AB1FFF7ABFE012008BD0122C3F8FC2FFFF7BCFFFFF7A2FE012008BDBA
:202AA0000010004030B585B0FFF7E8FF104A11491148124C0023136015680395039D0B60AE
:202AC0000D680295029D03600368019301230198236001E00B6813B91368002BFAD0044ACB
:202AE000044B10681B68B0FA80F0400905B030BD48110040441100404C1100402C10004040
:202B000010B5072867D8DFE800F01A2A666648525A04364A3648C9B25171D0F8FC3F5BB179
:202B20001179D479937952791B0643EA04230B4343EA0243C0F86C360024204610BD0129D7
:202B40004FD000294AD12B4A294B01211160D3F8504514F0FF04FAD1C3F8FC4FEDE7A1F1F8
:202B60000B030F2B3AD8214A214BC8B29070D3F8FC2F002AE0D01F4A01201060D3F8504580
:202B800014F0FF04FAD10A3901EB8101C3F8FC4FC3F80815FFF772FFCFE731F007041DD19D
:202BA000124BC1F380011970FFF78CFDC5E731F0010413D10D4BC9B2D970204610BD0B4A21
:202BC0000B4BC9B25170D3F8FC2F002AB4D0C3F80C150024B1E70124204610BD0224204643
:202BE00010BDFFF74BFF0024A7E700BFE8010020001000401010004010B57D2884B04BD8DD
:202C00002C4CFFF73BFFE378002B3FD163782A4A2A49DBB20120C2F80C350860D2F8503554
:202C2000DBB2022BFAD12649264BC2F8043500230B600868019001980B66086E0290029801
:202C40008B648B6C0393039BD2F8003223F01003C2F80032D2F80032012143F48023C2F89A
:202C60000032116003F0A0FB6FF002031C1A03F09BFBE042FBD4104AD2F85035DBB20B2BA3
:202C8000FAD0FFF7ADFD002004B010BDFFF70AFF0028BBD10220F7E70B4A0C4904460C482E
:202CA00000F086FF21460B4800F082FF012004B010BD00BFE8010020001000400C1000405E
:202CC0000C1100408C080020D0C10000E0C100002CC0000000C2000010B50C46FFF774FE84
:202CE0002046BDE81040FFF787BF00BF10B51A491A481B4A1B4C00230B6003704B602370E9
:202D00008B6082B0CB600B741360136800934FF080430121009819601368002BFCD00024A0
:202D200014601368019321460F48019B00F0EEFF214681220D4808F0BFFF0D4B0122C3F88E
:202D4000FC2FFFF765FE0B4A1378DBB21370FFF7B9FC204602B010BD78080020A11D0020F1
:202D600000010040A21D0020D8010020F407002000100040E8010020074A1378053B7A2B05
:202D800007D8064B1B6813B992F880007047012070470020704700BFF407002030110040E9
:202DA000154B1B7803B1704700B503F0FF02134B196883B029B9124B1A6882B903B05DF8F6
:202DC00004FB1A601B6800930E480F4B009A012283F8802003B05DF804EB01F05DB8196066
:202DE0001B68019381220848019B08F065FF03B05DF804EBFFF7F4BCE801002030110040AA
:202E000034110040D8010020F407002010B568B90E4CA368012262703BB1D3E900230020EE
:202E2000A2609847A368002BF7D110BD0128FCD1064C2369A070002BF7D0D3E90023012010
:202E4000226198472369002BF7D110BD0C09002010B50B4C237882B013B1852002B010BDBE
:202E600008486360A3602361E36000F03BF8019000F044F801980123237002B010BD00BF07
:202E80000C0900200D2E000038B5154DAB78044673B110B14368012098470020FDF788FAE0
:202EA000EB680133EB600020BDE83840FDF788BA03F0FF00FDF77CFA64B12A6942B1944200
:202EC00008D0134601E09C4204D01B68002BFAD122602C61EB68002BE2D100F025F8DFE7A2
:202EE0000C090020044A137923B9012110609180184670478520704720090020084B1A68B5
:202F0000D20704D4C02283F8002301221A60054A4FF080410123C1F818351370704700BF71
:202F200000E100E03B27002010B4094B094A0021196083B01B680193019C4FF08041022040
:202F40000123C1F80403136003B05DF8044B7047040100400800004010B5174B1A6882B0A4
:202F600062B10021154A19601B68507900934FF080410123009CC1F8083398B1104B1A688C
:202F8000BAB100221A601B6801934FF0804202210A4B0198C2F808131B68012002B0BDE831
:202FA00010401847116853718847054B1A68002AE7D102B010BD00BF0001004020090020DA
:202FC0000401004030B41F4C94F86A3082B0002B33D104F12F03204604F15F01FF2203F8D8
:202FE000012F8B42FBD14FF0FF3222600123072B88BFE11803F1010340F8042F88BF81F85D
:2030000058200C2BF3D11049104B0020C0228880606683F8062340221A600D4B0D4A186012
:203020001B680193019D01214FF0004384F86A10C2F8043302B030BC7047082002B030BC35
:20304000704700BF280900208C09002000E100E07C61004000600040034B93F86A000038FB
:2030600018BF0120704700BF28090020F0B4454F3B1893F93030002B5DDA91F802C0CCF3AE
:20308000400CBCF1000F0CBF0823002307EB8304A4F104040CBF0C26082602E001339E42D8
:2030A0004CD954F8045F0135F8D13C1847F8232084F83030BCF1000F4FD08A7854071AD465
:2030C000D5074ED41F284C7887BF2F4D00F01F0202464FF0A04502F5E072A40045F822401C
:2030E0002A4DC40800F0070C2E5D012202FA0CF232432A558A7812F0020222D09B0003F165
:20310000804303F5C0430978D3F8104524F44F3424F44074C3F8104502020904D3F81005E8
:2031200001F4403102F47C520A430243C3F810250020F0BC70470820F0BC70470420F0BC05
:203140007047083B1F44097897F8603043EA811387F860301046F0BC7047FA1882F8580005
:20316000ABE71F2887BF084A00F01F0404464FF0A04202EB8402D2F8004724F00204C2F808
:203180000047ADE728090020000300508C09002070B4324C251883B095F93030072B22DDCA
:2031A000234493F858309B09032B46D0012B0CBF4FF400324FF440321F288ABF284B4FF04A
:2031C000A04300F01F0003EB8000D0F8003723F44033C0F80037D0F800371A43C0F80027DC
:2031E00003B070BC7047DAB2072AF9D8980000F1804000F5C04003F140029200D0F8106568
:2032000092B202F1804202F5C04246F00106C0F810650020106012680192019A0029DFD042
:2032200095F9302054F82220002AD9D00D49012202FA03F3C1F80433D2E71F288ABF084A59
:203240004FF0A04200F01F03D2F8102598BF0346DA4002F0010202321204ADE7280900205E
:203260000003005000600040194B034493F93030072B13DD1F288ABF164B4FF0A04300F09F
:203280001F0003EB8000D0F8003723F44033C0F80037D0F80037C0F800377047DAB2072AC7
:2032A00014D810B49A0002F1804202F5C0420A4CD2F81005012120F0010001FA03F3C2F803
:2032C0001005C4F808335DF8044B7047704700BF2809002000030050006000402DE9F04F78
:2032E000002289B0CDE9022216461546704B714C7148012204E0043383424FEA420211D050
:2033000019680129F7D1D4F804131142F3D01D60196800910433834246EA020600994FEAAC
:203320004202EDD1654B1A68012A07D016F0FF0F17D1002E32DB09B0BDE8F08F00221A60A7
:203340001B6801934FF0A042019BD2F810255C4B0292D3F81035039316F0FF0F1ED046F081
:203360000046584F01250024A30003F180432E4203F5C0434FEA45050BD0D3F8100557F8C4
:203380002420D3F81015C0F30520C1F3014102B190470134082CE7D1002ECCDA4FF0FF333B
:2033A000494D0DF1100ACDE906330022CAF804200492A5F16408454C0027012614F9010BD8
:2033C000431C32D0C0F3C20E08AB03EB0E0C00F007031CF8081C06FA03F31942C2B200F067
:2033E0003F0022D008EB0009910999F9309058F82990B9F1000F4CD003294CD01F288BBFFD
:20340000DFF8BCE04FF0A04E02F01F0202460EEB82021CF818ECD2F800C71EEA030FCCF3B2
:20342000014C1BD1BCF1030F3CD0A542C6D1002F81D04FF0A0430299D3F81035204A994278
:20344000D2F8102503D1039991423FF474AFDDE90401CDE90232CDE90601ACE7BCF1020F11
:20346000E3D1032904D0B9F1000FDED0C847DCE74FF4403CD2F8003723F44033C2F8003724
:20348000D2F8003701374CEA0303FFB2C2F80037E9E70329C9D11AF80EB04BEA030B0AF86A
:2034A0000EB0ABE70329DED14FF4003CE2E700BF0061004000600040206100407C610040BB
:2034C00000030050280900208C0900208809002010B54FF0804386B0D3F80443620705D590
:2034E000D3F8082103F58473002A4ED1A30603D52A4B1A68002A3FD1600603D5284B1A68BB
:20350000002A2FD1210602D5264B1A680ABBE20502D5254B1A6892B9A3050ED5234B1A6855
:203520005AB100221A601A68214B0592059A1B68022006B0BDE81040184706B010BD00226C
:203540001A601B4A1B68049301201368049A9847E2E700201860164A1B6803931368039A67
:203560009847D4E700221A60124A1B68029301201368029A9847C5E7002018600D4A1B686C
:2035800001931368019A9847B6E700221A600A4A1B6800931368009A9847A7E71401004028
:2035A000180100401C01004020010040240100409C090020980900209409002008B5FFF799
:2035C00087FFBDE80840FFF7C7BC00BF074B0849084A0020186082B01B680193019BD1F805
:2035E00008051368C0B202B0184700BF00D1004000D00040A009002070B443791E4C1F4E60
:2036000003EB430546F82320655D8DBB90F904308A78002B24DB03F1604303F5614352017A
:20362000D2B283F8002390F90430002B07DB144D03F01F0601225B09B24045F823200368C1
:203640000A88C3F8082543790879C97803EB4303E218012550709170E554002070BC704721
:20366000084D03F00F0352011D44D2B22A76DAE7082070BC704700BFA4090020A8090020EF
:2036800000E100E0FCEC00E00368044A01211960437903EB43030221D1547047A409002091
:2036A00010B403680022C3F8002183B0D3F80031026801930123019CC2F8443311B1026892
:2036C000C2F8043303B05DF8044B70472DE9F041274F284EDFF8A08084B000244FF4803571
:2036E000D7F804332B4211D056F824200023E0B262B1C7F84853C7F8085346F8243056F8C8
:2037000024300393D8F80030039A98470134032C4FEA4505E4D1164BD3F80423D10702D5A5
:20372000D3F80021C2B9124BD3F80423920710D5D3F804216AB10022C3F80421D3F8042158
:203740000D4B0192019A1B68052004B0BDE8F041184704B0BDE8F0810022C3F80021064A3A
:20376000D3F80031029304201368029A9847DAE700B0004040B10040A809002010B5074CD3
:20378000236882B03BB1064B1B6898470023236023680193019B02B010BD00BF00010140EC
:2037A000AC09002070B5114B114A1D781160DDB9104E027801211970C6F80C254168044657
:2037C0004FF47A720023C803490C08F0C3F8C6F80405237A084A5B01DBB282F810334FF425
:2037E00080331360284670BD082070BDA41D0020AC0900200000014000E100E0044B05495E
:2038000001220220C3F804231A600870704700BF00000140A41D002010B504460020FCF7D5
:20382000C7FD0E4A1378072B11D80D492370581C1070D1F80805012202FA03F30343C1F8FF
:20384000083500240020FCF7BBFD204610BD04240020FCF7B5FD204610BD00BFA31D00204A
:2038600000000140034B044A00F5C07043F82020704700BF000001403546526E2DE9F04192
:203880000E4A0F4B16781F88F419802C03DD00242046BDE8F081DFF8308032464146054637
:2038A00008F0E2F9074B1B7833443A46A81958FA83F108F0D9F92046BDE8F081A51D0020AA
:2038C000921D0020941D0020B009002070B4134B134D144A2C781B781288234452FA83F335
:2038E0009BB21A18802A15DC013B1BB2002B0CDB0D4A591C1E1811443244013B11F8016D13
:2039000002F801691BB25E1CF7D120442870012070BC7047002070BC704700BF941D0020A1
:20392000A51D0020921D0020B0090020084A138883420BDB10B407490C8880B21B1A2044F2
:203940000880138001205DF8044B704700207047921D0020941D0020014B1880704700BFFF
:20396000921D0020044A054B12781B780448134450FA83F0704700BF941D0020A51D002034
:20398000B009002000487047B0090020014B1888704700BF921D00200549064A064B1278CC
:2039A00008781B88104453FA80F080B2704700BFA51D0020941D0020921D002010B50A4B8F
:2039C0000A4C0B49002220461A605A609A60DA601A615A61FEF79EF904F108000449BDE89C
:2039E0001040FEF797B900BFF01D0020E01D0020ACC1000004480549054A002303800B80A2
:203A00001370FFF7DBBF00BF941D0020921D0020A51D002070B5802982B00B4A0B4D0C4E4B
:203A200001900C464FF0000328BF8024137033802B80FFF7C3FF01990648224608F014F9E8
:203A400020462C8002B070BDA51D0020921D0020941D0020B0090020F0B40C4B0C4A1C6845
:203A60005D689F68DE68C6600460456087601C695D694561046154689068D36812680A60F5
:203A80004C608860F0BCCB60704700BFF01D0020E01D002070B40C4B026844688568C6684F
:203AA000DE601A605C609D60026944695C611A61064B0C6848688A68C968D9601C60586040
:203AC0009A6070BC704700BFF01D0020E01D0020024B23F810100120704700BFF01D0020B4
:203AE000014B33F810007047F01D002008B5044B0C3803EBC000FEF70DF9012008BD00BFBD
:203B0000E01D0020024B0C3803EBC000704700BFE01D002001490248FEF702B9ACC1000005
:203B2000E81D002008B5FDF777FFBDE80840FDF7BFBF00BF08B5FCF72DFD002000F03AFAFD
:203B400005F05EF902F096FD4FF08052064BD2F8A800D2F8A4205A604CF6F4613622D87041
:203B600019809A7008BD00BFD41D00200148002100F0CCB88402002010B5FDF757FF044630
:203B8000BFF35F8F00F050F900B930BFBFF35F8F2046BDE81040FDF74DBF00BF0AB9002007
:203BA000704708B508461146FDF740FA002008BD0FB400B583B004AA054852F8041B019237
:203BC00004F06AF903B05DF804EB04B0704700BFFC0100202DE9F843DFF8A880D8F80040F0
:203BE000844205460F4645D0002C36D0234601E0002B32D01B689D42FAD173B3204EAB7BBA
:203C0000D6F80090F3B10023AB73002C34D0A54209D0A37B13F0010F20462A464FF08701A3
:203C200001D000F031F82468002CF0D1AB683BB1BD4205D035600022832105F10C00984712
:203C4000D8F80040A5420AD02CB12368AB420CD01C46002CF9D1C6F80090BDE8F8832B6809
:203C6000C8F80030C6F80090F7E72B682360C6F80090F2E72346C0E7AB68002BD8D1EAE723
:203C8000B00B0020B40B00208368BBB170B504460B4E0220A073346004F10C000D4698474F
:203CA0000238012804D9832D02D00123A37370BD21462046BDE87040FFF78CBF704700BF02
:203CC000B00B002038B50B4A0B4B146800221A707CB1012501E024685CB1E37B002BFAD029
:203CE000E581204600228221FFF7CEFF2468002CF3D138BDB40B0020A91D0020024B18785D
:203D0000421C1A70704700BFA71D002070B50E4D2C68844207D00A4634B1234600E01BB166
:203D20001B689842FBD170BD0028FCD0074E04600121002334688173838181212860FFF787
:203D4000A3FF346070BD00BFB40B0020B00B002030B4074B07480849084A094C8A251D70CE
:203D6000002303700B601360237030BC704700BFA71D0020A81D0020B40B0020B00B002057
:203D8000A61D00202DE9F041224D2B78FBB9224E3378C3B12148224C027802EB420704EB2E
:203DA0008701013202F01F02013B0270886814F82770D1F80480DBB2337058B1812F1ED0D0
:203DC000827BD2071DD428781844BDE8F081FFF779FFDCE7134A14685CB9F4E7A37B13F0EF
:203DE000010F20464246394601D0FFF74DFF24685CB12B78002BF1D0FFF764FFEEE70123B9
:203E0000837342463946FFF73FFF337828781844BDE8F081A91D0020A81D0020A61D002006
:203E2000300A0020B40B0020024A034B10781B7818447047A81D0020A91D002070B40D4D38
:203E40002C78202C12D00C4B0C4E1B78234403F01F0303EB430301342C7006EB8304C4E9A6
:203E6000012006F82310002070BC7047012070BC704700BFA81D0020A61D0020300A002008
:203E800038B5837B034CDB07256801D5FFF7FCFE256038BDB00B002018B1837B013B012B2F
:203EA00000D97047024A01231370C373704700BFA91D0020FDF7B2B810B5044607F004FF86
:203EC00001462046FDF7B2F8BDE810400A20FDF7A5B800BF08B50448FEF752F8BDE8084033
:203EE0000248FEF74DB800BF10020020040200200148FEF79DB800BF0402002038B50E48AC
:203F0000FEF750F8044678B10C48FEF74BF80546206058B1FFF7B2FC05F19A01A5F880003F
:203F200005F18200FFF798FD204638BD214602482C46FEF753F8F7E704020020100200208A
:203F4000006800F19A018230FFF786BD10B5014604460748FEF75EF800B910BD2168054836
:203F6000FEF73CF821460248BDE81040FEF736B8040200201002002010B501460446094890
:203F8000FEF748F800B910BD2468B4F880102046FFF740FD04F19A0104F18200BDE8104009
:203FA000FFF778BD0402002008B506F0F9FD80B208BD00BF0F4B0121002219601946C3F820
:203FC0000021D1F80031002BFBD0D1F80805094A0023C0B2C1F80031D2F80031002BFBD037
:203FE000D2F80815012340EA012080B2536006F0A9BD00BF00D000400023013A0271016029
:2040000043718371704700BF10B4817942790479521A224208D003464A1C00682240405CCF
:204020009A715DF8044B70474FF0FF30F9E700BF38B505460C4605F0CBF88DB10F4B2868A3
:20404000696803C3ACB121460D4B51F8080F496803C3BDE8384009480122002105F092B9E4
:204060000346064D59689A680068DB680FC5002CE9D10449014805F0CFFAEAE738110020EE
:20408000401100201821002010B5044C237803B110BDFFF7CDFF0123237010BDAA1D0020F8
:2040A00010B51C4C217882B029B31B4B002403F160011A7E1AB193F82A20012A15D02033B2
:2040C0008B42F6D1204605F0E9F804B9F8B102F0A7F84023024621460020009300F07EFBEB
:2040E00000F026FA002002B010BD9A7EFE2A08D003F11A04E3E70846FFF79AFF0123237089
:20410000D3E7DA7E802ADAD003F11A04D7E74FF0FF30E8E7AA1D0020801F0020054B187BA3
:2041200030B1B3F84A00DB8AC01AB0FA80F04009704700BF081E00202DE9F0471A4CDFF8C1
:204140006C809DF82490164607460D4620464FF4B07200219A4607F0AFFDB8F82030B342CA
:2041600005D108994A46504602F0AAF810B90020BDE8F08701264FF0FF33F0214FF2F0022D
:204180006773E1732673A364A4F84C30A4F85A20C4F8088028686968AA68EB681C340FC4F6
:2041A0003046BDE8F08700BF081E00204C020020437D012B01D900207047F0B590F85120BF
:2041C00090F8503083B0CDE900320446028A00F13C032146007EFFF7AFFF48B3164B226A45
:2041E000607D617FE58B5A610022666D1976618B5D83257F83F85E20A77D83F8567098737A
:20420000207D83F85500E07D1982996883F857201E609D7483F854000B689847074801F056
:20422000ABFD01F0C1FE01F0F1FE012003B0F0BD002003B0F0BD00BF081E00206CC2000012
:2042400008B5FFF76BFF084B08B983F85E009B681B68984701F0D6FB044801F08DFDBDE8C1
:20426000084001F029BF00BF081E002074C200000A4B93F9541093F85420002902F101027F
:20428000B4BFD2B202F07F02197B83F85420F022DA7301B97047FFF7D3BF00BF081E0020D4
:2042A0002DE9F0414B4DB5F84A4001F0FBFE95F85E30032B5BD0FFF731FF804620B1AB68BA
:2042C000BDE8F041DB6918476F6C434E01F0C2FB01F074FB686C01F0EFFA03463068A5F8BF
:2042E0004A30FDF78BFF0446002836D1002F55D0B5F84A30B5F848209A4201D9A5F84830F2
:20430000B5F84C304FF6FF7293420AD0B5F84A10914206D0CB1A002BB8BF5B42B3F5007F14
:204320003FDC95F85D30002BC9D06B6C002B3ED0002F46D001F050FD002385F85D30AB68B1
:20434000BDE8F041DB69184723681BB321463068FDF71CFF04460028C8D0204601F0ACFA76
:20436000B5F84A308342EFD8C4F80080EEE7002001F024FB4FF6FF739C42A5F84A309ED02F
:20438000164801F0F9FC01F041FEAB68BDE8F041DB691847FCF7AAF92060D7E7B5F84A3022
:2043A000ACE70F48A5F84C1001F0E6FCB9E70B4885F85E3001F0E0FC01F078FC01F026FE02
:2043C000BAE70123074885F85E3001F0D5FC01F009FEAFE7081E00207002002084C2000050
:2043E00094C20000ACC2000030B4084D2B7B53B1044630B11C350FCD20606160A260E36038
:20440000012030BC7047184630BC7047081E002010B5FFF783FE134C78B994F95A2094F832
:204420005A30002A03F10103B4BFDBB203F07F03002084F85A3001F08FF8FDF741FC01F09B
:20444000E1FA05F0A3FD01F00BFE94F841305B0602D40023237310BD034801F01BFF0023BF
:20446000237310BD081E0020341E0020024B032283F85E2001F020BE081E002008B50F4B8A
:204480001A7B8AB11A6D511C0ED082420DD9101AB0F5967F186507D2586C28B101F018FAF6
:2044A000BDE8084000F0F4BE08BD00210322196583F85E20BDE8084001F0FEBD081E00200C
:2044C00010B5084C237B5BB194F840200146D20804F11C0007F0BAFBB0FA80F0400910BD1F
:2044E000184610BD081E002008B5FFF717FE18B1BDE80840FFF7BCBE08BD00BF024B1B7BF6
:2045000003B97047FFF79CBE081E0020074B9A7B187B1AB9003818BF0120704728B193F87A
:204520005E00012894BF002001207047081E0020024B1B7B03B97047FFF7B2BE081E002061
:204540002DE9F041614D2A7B06460C462AB16A7B237E9A4209D0BDE8F081FFF7DFFD98B1DC
:204560002B7B002BF3D1BDE8F08159481022214607F06CFB0028EED1628AEB8A9A4209D2F9
:20458000BDE8F041FFF78CBE2046FFF711FE0028E6D1E0E7E17D95F8540001F023FE628AB7
:2045A000002840D14FF6FF739A4204D095F85930013385F8593095F85410E07D01F012FEBC
:2045C00048B1B5F84A20EB8A9A4257D0FFF7A6FD074600286BD022460121304600F03CFEE0
:2045E000E8B1304601F028FA0746002843D090F80680304601F020FA002849D0638A838051
:20460000637E83712B6DABB96B8BAA7BC3EB03135B012B651AB117B16B6C9F4217D02B7B26
:20462000002B98D0ACE7EB8A9A42F8D1294801F0A3FBF4E7002FF2D06B6C9F42EFD16B8B00
:20464000AA7BC3EB03135B012B65002AE7D0607E414601F0C7FD0028E1D095F90F20EB7B8E
:20466000002A03F10103B4BFDBB203F07F03EB7301F0B2FBD3E74FF0F008BAE7E37D85F838
:204680005430FFF74BFD0028A5D0FFF7F1FDA2E7304604F0A5FC0028C1D00F4B01460122C6
:2046A00018682346FDF73EFE0028A7D1B7E701F0D7FC384601F082F92046FFF779FD2B7B7D
:2046C000002B88D0FFF7BCFD85E700BF081E0020241E0020B8C200007002002011B10848B7
:2046E00001F04ABB10B50A460321044600F0B4FD20B12046BDE8104000F0E6BD10BD00BF55
:20470000D4C2000038B591F823300C460546BBB1FF2B1BBF0D4A508B4FF0FF3343430A46B4
:204720000020294605F08EFB18B194F92530002B00DB38BD218C2846BDE8384001F066BB7C
:204740000A461846294605F063FBEEE7081E002070B5154D0E4695F85B10044601F042FD81
:2047600008B185F85B4095F85A30A34200D070BD95F85E30012B76B207D001F063FB002EAC
:20478000F5DA032385F85E3070BD002E02DA01F059FBF6E70223054885F85E3001F0ECFA6C
:2047A000BDE8704001F04EBB081E0020E4C2000070B50E461C4605463AB924B11DB1064BB1
:2047C000AE801B7B23B9012070BD01F0EFFAF4E7FFF766FD012070BD081E00202DE9F047FC
:2047E000284C82B094F80CC09DF828A00546174699460E46BCF1000F0AD0102204F11C00AA
:2048000007F024FA80B34FF0F008FFF701FE01E04FF0F0083B463146CDE9009A2846012233
:20482000FFF78AFC184F194884F854800023012140F608421E263C25A173228280214FF0E2
:20484000FF32A37484F85530A4F856300223676126766583A4F84A10226584F85E3002B043
:20486000BDE8F04701F088BA94F9543094F85480002B08F10108B4BF5FFA88F808F07F08C0
:20488000C3E700BF081E002000048000F0C2000002484FF4B072002107F00EBA081E00205E
:2048A000144A907918B992F82A10632901D00120704792F82910C1B992F82B30042B15D190
:2048C0000D4B187B88B110B45C7B92F82D00A0420ED1B3F84A1082F82D000B0A43EA01238F
:2048E000D38501205DF8044B70477047084670470846F7E720210020081E002070B5174ACF
:204900000546118816482B2205F0BAFF04461548FFF7D6FD08B9002070BD1349002005F06B
:2049200031FA10490646002005F02CFA14B1A278032A06D00028EED0002EECD04369B34219
:20494000E9D1084C0FCC002148F2FE002880AA60EB606980A980E980012070BD10210020FE
:204960002021002038210020241E00202DE9F0432C4B2D48198885B02B2205F081FF0446E4
:2049800010B18378032B03D0002005B0BDE8F083C278002A41D04378417906790133DB00F5
:2049A000DBB2A3EB111306F00F052B443609183BC6F1100193FBF1F30133DBB29A42E3D81B
:2049C000194F9B1ADBB201FB03F1C31B01F1080C1033012A18BF354663445B1BB3F5A06FC5
:2049E000D2D807F118030FCBE84688E80F0004EB0C06C5F1100905F1180031464A46384412
:204A000007F032F94A4608EB0501304607F02CF9E378013BE3700120B7E7012005B0BDE835
:204A2000F08300BF10210020202100204378A3BB2DE9F047425A40F263439A4200EB0104EC
:204A400028D11B4D2B7B2BB36A7BE3789A4221D1A67816F020081DD1A388164A1F0A0C2049
:204A6000D2F8009047EA0327FFF74CF801464846FDF7F2FBA278B5F84A10F609BFB2C2F34B
:204A800080130CD08F420ED242463946BDE8F047FFF78EBE0020BDE8F087002070478F42ED
:204AA00001D33246F1E742F04002A2700122ECE7081E0020700200202DE9F0432B4E2C4F41
:204AC000318883B038460DF10702012305F07EFE002842D09DF80730062B3ED0044607F149
:204AE0000609B84614E013B9A378632B16D03188E31BC91A204689B200230DF1070205F000
:204B000065FE044648B39DF80730062B814624D0112B22D03A2B20D02B2BE4D1237889F88B
:204B2000003065780135ED00684205F01BFEC0B13188283989B2404605F03EFE3288E31B58
:204B40009A420EDDD21A6119204607F09BF899F800308DF80730062BDAD1012003B0BDE866
:204B6000F083002003B0BDE8F08300BF10210020202100202DE9F04FA34E337B89B05BB32B
:204B8000A24C228B48F2FE039A4225D0237EFF2B22D0FFF7C3FA054680B904F1080004F089
:204BA0007DFB20B19A4BE2791B799A4219D0FFF777FE0546284609B0BDE8F08F04F11809FC
:204BC000FFF77AFF4846FFF77BFC28B14946002005F0D8F8804688BB0125284609B0BDE823
:204BE000F08F8C4F3A88B2F59F6FF6D8283A04F1280104F1300007F045F8B6F84A20A1790B
:204C0000767B84F82950130A43EA022340F26342E385628584F82C5084F82810A57108202F
:204C200084F82D6005F09EFD3988283989B2204605F0C2FDFFF734FE0546CEE706F11C0128
:204C4000002005F09FF80190002848D04946002005F0B8F8002842D0D8F81410002900F03C
:204C6000C480019B8B4200F0C7806B4BCDF80C809B6902934FF0000B0F270DF1100A88464A
:204C8000029B414650469847DFF898C139466046D6465246002312F8015B10F8016FAE4281
:204CA00002D10133102BF6D19F420CDAD8F814800BF10103DBB2B8F1000F15D0019A424574
:204CC00012D09B46DCE700271EF8013B1CF8012F9A4206D10137102FF6D13946E6E700252F
:204CE0007BE73946FFB2E1E7C1F11006C7F1180A16FB0BAA5FFA8AFB1AF0070A1FBFCAF160
:204D0000080A5FFA8AFAD3445FFA8BFBDDF80C801D465B463F4A02931288D118B1F5A06FF3
:204D2000DDDC3E490888283021185844283A2044039106F0A7FF03995A460846002106F0DF
:204D4000BBFFA279029B84F828202B22A271B3F1080248BF03F1FF32D210314B2E4984F892
:204D60002920ABEB0A024FEA0A1A84F82B5084F82DA0D5180DF1100A8B69029307EB071212
:204D80000320574484F82A0084F82C204446DDF80480CDF804B0D346BA461F46626990456D
:204DA00021465846A5EB060508D0B84732465146284606F059FF6469002CEFD1DA46029B3B
:204DC000DDF804B02146504698479AE80F0089E80F00584605F0C6FC0E4B0C481988283959
:204DE00089B205F0E9FC0125F7E608230D468A469B460F2701268DE7082300259B46AA467A
:204E00000F27012686E700BF081E002020210020801F00201021002014C300009C1D0020A2
:204E2000482100203721002008B50C4A137B43B10B4B0C491B88527B2C3358185B5C9A425F
:204E400003D0BDE8084005F073BCC1788078FFF77FFCBDE8084005F06BBC00BF081E0020BE
:204E60009C1D0020202100202DE9F0418EB02622002104A806F020FF434B444C1F88444BF5
:204E8000217B07F12C02D618D25C8DF8322011B1617B914204D005F04BFC0EB0BDE8F08108
:204EA0003C4A083315880FCB2C3DED1BADB20027E846032D88E80F00CDE90477CDE9067782
:204EC000E9D97378217EF2788DF835305B068DF83310ADF8302046D40424AC424FDA002794
:204EE00020E0621CAA42D6DA3219507802300444AC42D0DC052B21D10328CCDD7318DA789E
:204F00008DF834200732D210131D8342C3D10431314408A8CDE90877CDE90A7706F0A4FEB6
:204F2000AC422CDA335D2146002BDAD10134A542F6DA05F0FDFB0EB0BDE8F081062BEFD112
:204F40000528A8DD731813285B798DF83330E7DD0631731870589A685968DB680DF1100CAF
:204F6000ACE80F00DCE7132D95D904F11C001022311D06F06BFE00288DD11424ADE704A92E
:204F80004046FFF7BFFB86E79C1D0020081E002020210020102100202DE9F0439DB05C2289
:204FA000002105A806F088FE9B4B9C4F9C4A1D889C4B0C9307F1080314880FCB2C3C641B65
:204FC000A4B201AE86E80F004FF0010C964BADF824C040F60842172CADF82E200D9304D867
:204FE00005F0A6FB1DB0BDE8F08305F12C03DD19AE4695F8038095F802905EF8080F95F8FE
:2050000004C0DB5DDEF80410DEF808208DF82C3048EA0927DEF80C30ADF826702CF07F0E73
:20502000CCF3C2078DF828E08DF8297095F8018095F805E08DF82B800CF0070C05AF182C86
:205040008DF82AC08DF82DE00FC700F0E08018216B5C002BC4D04A1CA242C1DA6A1850783B
:2050600002304718A742BBDC023B062BB8D80FF2080C5CF823F000BF9F5100004551000060
:20508000E9500000E14F0000E14F0000E14F0000955000002028A3D16B1892F809C093F845
:2050A00008909378D07A8DF8643010316B184FEA0C4C92F80AE092F803809A688DF86580A8
:2050C0004CEA096C4CEA000C68585968DB684CEA0E2C0DF1500ECDF860C0AEE80F00A742E0
:2050E00080F295803946B3E710287FF479AF294492F807C08B7A91F8069091F8088091F8C1
:205100000EE0D17A507A41EA0321D37BADF824104CEA092C40EA08205179ADF834C0ADF851
:20512000360092F803C01079527B8DF82EC043EA0E23ADF832308DF82F008DF830108DF8C0
:205140003120CCE707287FF74BAF05EB010C53799CF804E092F802C092F807808DF84CC07D
:205160001B0443EA0E6392F806E0D2788DF84D200CF1070243EA0803D21043EA0E2302F155
:20518000070E86451293BFF62BAFBCF1800F3FF627AF083129440EA806F066FD9FE705284C
:2051A0007FF71EAF137992F803E092F802C08DF868C0D90941EA4E018DF86910C3F3011E8B
:2051C00051798DF86AE003F00F038DF86B308DF86C10BCF1000F82D0BCF1070F0DD0BCF1B5
:2051E000020F7FF4FDAE07287FF7FAAE9179D3798DF86E108DF86F3071E707287FF7F0AE1B
:205200009179D37943EA0123ADF86E3067E705A93046FFF795F9E3E69C1D002020210020AB
:2052200010210020001E3C000004800008B5084B1B7B4BB10748017EA1F1FF01B1FA81F120
:2052400008304909FFF74AFABDE8084005F070BA081E002020210020F0B583B00E4617464E
:20526000054603F097FE044610B1204603B0F0BD0C20FEF747FC22460146CDE900672846EC
:20528000012303F025FE0446204603B0F0BD00BF70B50446FFF74CF9084B094D19880948C0
:2052A0002C314B1900225A70944218BF20464A550223BDE870409B2104F0A8BB9C1D002029
:2052C00020210020681F00202DE9F04F8BB00646FFF72EF900F01AFF10B1002E00F02C8138
:2052E000974B984A1B88984D2C339C18697B995495F85430637000F009FF002868D1B5F894
:205300004A30E3701B0AA37095F855308F4FEA7B95F856C095F80E806271002B0FCF0CF09D
:20532000070C14BF6FF07F0E4FF0000E4CEAC8074EEA070727710027A060E16022616361BC
:20534000A771E77100F0E2FE002845D12B78002B42D06978A878A376CA0142EA0012E8786C
:2053600049080243E17602200621072B22772076617600F0DA80022B40F0DE80A879EA7936
:2053800063772021A077E27727234FF0290809932823CDE907384FF02B092A23CDE9053938
:2053A0004FF02F0A2E23CDE9033A2D222C23CDE9013222238B464FF0260C4FF030084FF06D
:2053C000250E4FF024094FF0230A0093212725E0FF23A370E37097E71F2309932122202378
:2053E000CDE90732232022232727CDE905302623CDE903374FF0250E2423CDE9013E1821DD
:205400001A238B464FF01E0C4FF028084FF01D0E4FF01C094FF01B0A0093192704206054C9
:205420000098AA8AEB8A0E21E1554FF000072754297C099F04F80A10687CA97C04F8090094
:205440004FEA122A04F80E1004F80CA0E255079AA968059F95F840C0180AA054089A287E9D
:20546000A3540A8C6B8B4FEA122E04F807E0069FE255019A4FF00007A754029AA054039A68
:20548000190AA154049AA354BCF1000F0FD100F03DFE18B92E4B002E08BF1E4643463046F6
:2054A00001229B210BB0BDE8F04F04F0AFBAD5F83CE095F841A0DFF89C90082504F8085036
:2054C00004EB0B05B9E80F0085F812C04FF01E0C85F811C04FEA1E6C85F814C085F818C0AE
:2054E000CEF3074C85F815C085F819C00BF12009CEF3072C5FFA8EFE85F816C085F81AC048
:2055000085F813A085F817E085F81BE00BF11C0C04EB0905002744F80C700BF1300844F8FF
:2055200009006960AA60EB60B1E7EB8860771A0A2021E377A27727E70BB0BDE8F08F00BFDE
:205540009C1D002020210020081E0020241E0020681F0020341E00202DE9F041074600F0CC
:205560005FFE304C8046606C00F0B2F90646FEF7DFFF237B002B52D0636C002B4FD0B8F159
:20558000000F4CD0002E4AD0A37B002B47D0264B264A1B88617B94F85AC02C339D18002FEF
:2055A00099540CBF002380236B7005200023122180221C342871697185F803C0EA71AB70FC
:2055C000AB7103CCD8F800C0D8F80420D8F808E0D8F80C80C5F808C0EA604FF0060C1422F2
:2055E0006A76C5F81E00C5F82210C5F81480C5F810E0AB76EB762B776F7785F818C056F856
:20560000083FA4F108007468C5F826300222C5F82A402E23BDE8F0419B2104F0F7B9BDE840
:20562000F08100BF081E00209C1D002020210020F0B583B00E4615460190FEF779FF0A4BE0
:205640000A4A1B880A490198497B2C339C1899540027042303229B21A670E570677003B07F
:20566000BDE8F04004F0D2B99C1D002020210020081E002008B5074804F01AF9064804F001
:2056800017F9064804F014F9BDE80840044804F00FB900BF400200203402002028020020F5
:2056A0001C020020704700BF014B00221A707047081E002008B500F017F908B1808808BDFE
:2056C0004FF6FF7008BD00BFB0B138B50446858800F00AF968B183884FF6FE722B449342DD
:2056E00007D8204600F000F948B18088284480B238BD4FF6FF7038BD4FF6FF7070474FF68F
:20570000FF70F3E770B50646FFF7DEFF0B4B0446586CFFF7D9FF336804F1BF05044623B950
:20572000A542B4BF0020012070BDFAF7DFFF3368C01AB0F5963FF3D9002070BD081E002084
:2057400088B138B5094B0446DD8AFFF7BDFFA2884FF6FF7153198B4228BF0B46984238BF4B
:20576000184680B238BD4FF6FF707047081E002008B500F0B9F828B18088B0F5007F8CBF45
:205780000020012008BD00BF10B50446FFF79CFF034620461C4600F0A7F840B18388B3F560
:2057A000007F05D8B4F5004F8CBF0020012010BD002010BD70B50E46F0B10446FFF7E4FF12
:2057C0000546AEB13046FFF7DFFF88B1DDB1164D6B6CA34220D09E4217D02046FFF774FF69
:2057E00005463046FFF770FF85420CD2204670BD002DFBD1002070BD0029FBD00846FFF7CD
:20580000C3FF0028F6D0304670BD2046FFF77AFF0028E2D03046F7E73046FFF773FF00282C
:20582000E4D16B6CD7E700BF081E002010B500F03BF828B1044B9B68BDE810405B691847EE
:205840004FF6FF7010BD00BF081E002070B5044608460D46FFF7EAFF06462046FFF7E6FF46
:2058600086428CBF2846204670BD00BF08B50C4BD3F82821824204BF0022C3F82821D3F8B5
:205880000421824204BF0022C3F80421054B01461868FCF7B5FDBDE8084000F00DBC00BF39
:2058A000081E002070020020024B01461868FCF7D3BC00BF7002002020B1044B9B685B6942
:2058C00003B118474FF6FF70704700BF081E002008B5044B01461868FCF7F6FDBDE808409F
:2058E00003F078BB7002002008B5044B01461868FCF7EAFDBDE80840FCF714B97002002004
:205900002DE9F041274C237B82B000274BB3264D80462868FCF772FC014610B34FF6FF76EA
:20592000A3685B690846B3B101919847B0420199034610D0E28A82420DD8B4F814C00846DD
:20594000BCF1000F11D0B4F848206244B24228BF3246934209DD2868FCF718FC01460028DC
:20596000DED1384602B0BDE8F081A3680191DB68984701990028EED0B8F1000F07D1A36858
:20598000019138469B69984701990746E3E708460191FFF7A9FFFCF7CBF801990028EED1AE
:2059A000D9E700BF081E00207002002008B5FFF79BFFBDE80840FCF7BBB800BF70B50F4DB0
:2059C000696C814219D00E4E04463068FCF760FD21463068FCF742FD686CFFF779FF03F052
:2059E00041FB03F021FB2046FFF772FF002103F057FB01236C6485F85D3070BD081E0020B8
:205A00007002002038B50B4D0020FFF7D7FF2868FCF7F4FB50B104462046FFF727FF21461D
:205A20002868FCF7B3FB04460028F5D1BDE83840FEF77EBD7002002008B503F0ABFA03F0D6
:205A4000A3FA034B01461868BDE80840FCF704BC7002002038B5FEF761FBF8B90546FFF732
:205A60004FFF0446D0B1FFF73FFFFCF761F868B90E4DD5F82831A3B16B6CA34209D00120E1
:205A8000FFF73EFF38B10446204638BD074BC3F82851204638BD6B6C002BFAD1002420460D
:205AA00038BDC5F8284100F087FAE5E7081E0020024B03491868FCF747BB00BF70020020E9
:205AC0006D58000070B5114D114995F8573080249C40A1FB0434A3092B66FEF765FAE4093E
:205AE0000C492B6E0C4A04FB00F0A1FB000104EBD1315B1A01242B6605F1A400A5F85840EB
:205B00000023BDE87040FBF723BA00BF081E0020D34D621001800080055C000010B5FEF78B
:205B200043FA094B094A0146A3FB01C35B0A03EB8303A1EBC31189B2BDE81040044801F52D
:205B4000A0710023FBF704BACDCCCCCCA55B0000EC1E002008B5054BD3F80401FFF7B8FE7D
:205B600018B1BDE80840FFF7AFBB08BD081E002010B50B4C012384F85C30FFF7CFFF94F96B
:205B80005A2094F85A30207E0133002AB4BFDBB203F07F0384F85A30BDE81040FFF7DCBC7B
:205BA000081E002010B50B4C94F85C30207E013384F85C30FFF7D0FC94F85C30042B03D8AD
:205BC000BDE81040FFF7AABFBDE810400248FEF795BC00BF081E0020FCC2000003480022BC
:205BE00090F83C1100F59670FFF722BD081E0020024B1B7B03B97047FEF70ABC081E002063
:205C0000FEF796BC10B5FEF781FC58B3164C94F858306BB9637C217C94F857200B449A42B7
:205C2000BCBF013284F85720BDE81040FFF74ABFFEF774FA28B9A37C1BB194F859209A42BF
:205C400006D2B4F84A30A4F84C300020FFF73CFB0023216E84F85830044A0548BDE810409B
:205C6000FBF776B910BD00BF081E0020055C0000AC1E002010B5FEF797F9094C094A0146AD
:205C80000B0AA4FB03434FF4345404FB131189B2BDE81040044801F5B4510023FBF758B97F
:205CA0000B5BB005795F0000101F002010B50D48FBF796F900B910BDFEF776F90A4B0B4A73
:205CC0000146A3FB01C3DB0AC3EB0313A1EB032189B2BDE81040034801F5F0610023FBF7EB
:205CE00037B900BFC811002089888888F15C000008B5FEF713FA50B9094B1A7B42B15A6C24
:205D000032B1B3F84A204FF6FF739A4200D008BD0020FFF7BDFABDE80840FFF7C7BF00BF6E
:205D2000081E002010B5124C237B43B9FFF7BEFFFEF7FEFBBDE810400E48FBF715B93C2058
:205D4000FEF79CFB3C2004F0E1F8237B002BEDD0636C002BEAD0B4F84A204FF6FF739A42AB
:205D6000E4D0FEF7E5FBBDE810400248FBF7FCB8081E0020E811002010B5FEF7C7FB48B1E1
:205D8000094C94F8573013B1627C9A4202D200F0BDF900B110BD637C84F8590084F857306E
:205DA000BDE81040FFF78EBE081E002030B4084D2B7B0BB930BC70470446002305F1C400F9
:205DC000C5F80441034A30BC1946FBF7C1B800BF081E0020555B000010B50A4C237B0BB194
:205DE000A37B03B910BDFEF7DFF8C0F3080000F58071054A04F1E4000023BDE81040FBF75D
:205E0000A7B800BF081E0020715B000030B40B4C227B0AB930BC704703460D469A685968B5
:205E20000068DB68A4F83C5104F596740FC40023201D034A30BC1946FBF78AB8081E002046
:205E4000DD5B0000114B1A7B12B1197EFF2900D1704710B55C8B01FB04F1CC01FEF7A4F814
:205E60000B4BA3FB00231B0BC3EB0313A0EB432080B200F5F050844288BF241A2146054ACB
:205E80000548BDE810400023FBF762B8081E002089888888715B0000EC1E00202DE9F041ED
:205EA000334CFAF723FC237B002B39D0D4F8285115B12846BDE8F0810746606C18B1FFF71A
:205EC00075FD002852D0FEF76FF800EB800303EB031303EB032300EB430080B2254E45F21A
:205EE0005553984230681FD9FCF788F90446B8B14FF6FF7706E021463068FCF747F904464C
:205F00000028D6D02046FFF751FD0028F3D12046FFF7D2FC0DB1B842EDD207462546EAE7F3
:205F200000252846BDE8F081FCF768F904460028F6D04FF0000806E021463068FCF726F9EE
:205F400004460028B5D02046FFF730FD0028F3D12046FFF7C9FC0028EED0036815B1FA1A89
:205F60004245E9D9A7EB03082546E5E7656CA0E7081E00207002002038B5FFF78FFF054618
:205F8000FFF7A6FC30B104462846FFF7ADFC2046FFF79AF9034B1B7B03B938BDBDE8384090
:205FA000FFF768BE081E0020024B1B7B03B97047FFF760BE081E002010B5084C237B03B95C
:205FC00010BDFDF7F1FF064AC0F30801002304F58470BDE81040FAF7BBBF00BF081E00208F
:205FE000795F000010B5084C237B03B910BD04F18400FAF7F5FF0028F8D104F18400BDE81C
:206000001040FAF7D3BF00BF081E002010B50A4C237B03B910BD04F18400FAF7E1FF0028F4
:20602000F8D004F18400054ABDE8104000234FF41641FAF78DBF00BF081E0020F15B000090
:2060400008B5054A054800234FF4F051FAF780FFBDE80840FFF72ABE255D0000E81100206A
:2060600010B50F4C2046FAF7A1FF04F12000FAF79DFF04F14000FAF799FF04F16000FAF763
:2060800095FF04F18000FAF791FF04F1A400FAF78DFF04F1DC00BDE81040FAF787BF00BFA4
:2060A0006C1E00200348037B03B970476430FAF77DBF00BF081E00200448037B03B97047F7
:2060C0000023034A64301946FAF742BF081E0020015C0000044B187B20B193F85E000038F4
:2060E00018BF0120704700BF081E0020054B187B30B193F85E00A0F10200B0FA80F0400949
:20610000704700BF081E0020704700BF014B1878704700BFAB1D002010B50023C0E900334F
:20612000C0E902330A7D07320446D20805F09CFD20460249BDE8104003F06EBA18210020F5
:2061400008B50E48002340F2FF214FF4D05243808380C3800381438183810180C28103F046
:20616000E3F8FEF795FBFFF7A3FCFFF769FFFFF781FABDE8084003F0B7BE00BF681F0020A0
:2061800010B50A4C237B012B00D010BDFFF78CFB0028FAD0D4F82831984204BF0023C4F86D
:2061A0002831BDE81040FFF787BF00BF081E0020024688B10B4669B110B4084C03CC10600D
:2061C000516053F80C1F5B68D360916001205DF8044B704708467047704700BF241E002058
:2061E000704700BF7F2801DD7F290EDD884206DC13DA081A7028D4BF002001207047401AD9
:206200000F28CCBF00200120704701F58071081A1028D4BF0020012070470020704700BF62
:206220002DE9F843194E377B17B196F8407007BB3E46174C4FF0000804F16005237E1BB137
:2062400094F82A30012B05D02034A542F6D14046BDE8F883A37E04F11A09FE2B3A4649463E
:20626000304609D06EB105F0F1FC0028ECD1C846EAE7FF082C36DCE7E37E802BE4D0002EF0
:20628000F1D104F11A09C846DEE700BF081E0020801F002000B585B001466846FFF73CFF7D
:2062A000684602F0FBFF08B103F000F9034B002283F8402005B05DF804FB00BF081E002046
:2062C00078B370B54B1E7F2B84B00C4606D812F04001154605D1084604B070BD002004B080
:2062E00070BD134B0026E21DD2080146C3E90066C3E90266184605F0B7FC4FF0FF33A0F19F
:206300002C020146684682F8404082F84150D363FFF702FF684602F0C1FF18B1012004B02A
:2063200070BD704701460122684603F02BF8F5E7341E002010B4164A164B17490020106088
:2063400083B012680192019AD3F8102522F00F0242F00802C3F81025D3F8082542F00302E4
:20636000C3F80825D3F804254FF4803422F003024FF48070C3F80425C3F80443C1F88001E0
:20638000086001221A6003B05DF8044B704700BF408100400080004000E100E0014BC3F8A2
:2063A0004005704700800040034A044B01211160D3F84405704700BF4480004000800040A4
:2063C000064B1A6802B97047002282B01A601B680193019B02B000F005B800BF40810040D8
:2063E000FFF7A8BF10B5084C206858B1D0E90131002222609847236823B1BDE81040186854
:20640000FFF7CCBF10BD00BF0812002010B4174B83B000220124ADF8042000921946C3F820
:206420002CD61C60D1F80031002BFBD0002401230E4AC1F800414B60D2F80431002BFBD0B4
:20644000002401230949C2F804419360D1F81431002BFBD002AB03EB40000023C1F81431B0
:2064600030F9080C03B05DF8044B70470070004001207047802801D00120704730B4144BB5
:2064800014490120C3F8000500224FF4003509240720C3F81855C3F810450825C3F8142577
:2064A0000224C3F82815C3F820050320C3F82425C3F83815C3F83055C3F83425C3F8F0456B
:2064C000C3F8F425C3F8300630BC0120704700BF00700040001202002DE9F0410488752C3C
:2064E000064607D07C2C37D0A4B1002303800320BDE8F081DFF8D0802E4D98F800202E4FC7
:2065000000233B602B6012B32C4CE256002A41DB2B6832E02A4F274DFDF7F0FB294B3A68F0
:2065200018702C60002A43D02346244C984604F8038000219368802098472B6801332B60E7
:2065400057F82320002AF2D1DBB21F4A1370752333800120BDE8F0811A4B1B788B4216D115
:20656000144D164CDFF86080134F2B683A68E15C01F07F010132E1543A6098F80020013376
:2065800093422B60C1DB3B68002BB9D1DFE70120BDE8F0810A4A0B4952F8232009780020D4
:2065A000FDF74CFC0028E0D17C23338001209FE71346CAE7101200200C120020DC1D00202A
:2065C000F00100203C270020AC1D002070B50488672C06461BD0792C33D05CB30023038066
:2065E000032070BD1E4C1F4923681F4A0978581C002520602846D554FDF720FC1B4B2A466E
:2066000018688521FDF71AFC30B300232360184C134D06E00A28E5D00D28E3D02B687E2B0C
:2066200015DD2046FDF7F0FC431CF3D167233380012070BDFDF762FB0A4A094B10701C607F
:20664000E5E7852901D0012070BD054CDDE706495A1CC8542A60E4E779233380012070BDB9
:20666000941200203D27002014120020B00B00209812002008B5054905488022FDF7BCFC3F
:20668000BDE8084003480021FDF740BBA01200209812002094020020014B024A1A60704797
:2066A000201300200100FD0010B51A4C0220A179FDF70EFAA379112B17D0062B07D03A2B7A
:2066C0001DD0BDE8104000210120FDF701BA124B1B8828331A191B5B51889942BDE810403A
:2066E00028BF19460120FDF7F3B9618D238D9942BDE8104028BF19460120FDF7E9B9064BD7
:2067000028341B88195B49BABDE8104089B20120FDF7DEB9202100209C1D002070B414783D
:206720000D7A84F00204A542064624D00B891BB94B89B3F57F4F0FD01F4A146801F10803BE
:2067400003CB04F108031360012202FA06F320606160D8B270BC70478B89FE2BECD1164CD6
:20676000C989236823F8021B022202FA06F02360C0B270BC7047487A53789842D6D1887A06
:2067800093789842D2D1C87AD3789842CED1087B13799842CAD1487B53799842C6D1887BE4
:2067A00093799842C2D1D379CA7B9A42BED1032202FA06F0C0B2CDE7E01900200F4B1A7822
:2067C000012A19D110B459880288914203D000205DF8044B704742889988914200F10200A3
:2067E000F5D1D98830F8022F9142F0D1428819899142ECD11846EBE700207047201300202F
:2068000038B5154A154C164B24781B68156815492A460144181905F027FA601980B2FDF7D5
:206820009BF8FDF76BFBA8B10F4B00219B6804460E48984704F042F92046FDF79DFB20468E
:20684000FDF784FB0A4B1B68012B03D0032B01DC012038BD002038BDEC190020AE1D0020A8
:20686000F01900202021002014C1000075680000E419002070B5124B1B680C46154613B149
:206880009B68084698470F4B0D201C60FDF73AF90D490646FBF744FA00B170BD2A46214617
:2068A0003046FBF759F9094B304621462A465B6C984729462046BDE8704002F09FBB00BFA2
:2068C0002C130020E4190020ACC1000014C300002DE9F0410F468046FDF758F8134B197863
:2068E000461A731E6D2B08D8114800230446A57871343DB101330C2BF9D14FF0FF3630469A
:20690000BDE8F081C3EBC3040A4A03EB0413C418126800F80380033311441844324667708C
